{"abi":[{"type":"constructor","inputs":[],"stateMutability":"nonpayable"},{"type":"function","name":"CLOCK_MODE","inputs":[],"outputs":[{"name":"","type":"string","internalType":"string"}],"stateMutability":"view"},{"type":"function","name":"DOMAIN_SEPARATOR","inputs":[],"outputs":[{"name":"","type":"bytes32","internalType":"bytes32"}],"stateMutability":"view"},{"type":"function","name":"allowance","inputs":[{"name":"owner","type":"address","internalType":"address"},{"name":"spender","type":"address","internalType":"address"}],"outputs":[{"name":"","type":"uint256","internalType":"uint256"}],"stateMutability":"view"},{"type":"function","name":"approve","inputs":[{"name":"spender","type":"address","internalType":"address"},{"name":"value","type":"uint256","internalType":"uint256"}],"outputs":[{"name":"","type":"bool","internalType":"bool"}],"stateMutability":"nonpayable"},{"type":"function","name":"authorizeIssuer","inputs":[{"name":"newIssuer","type":"address","internalType":"address"}],"outputs":[],"stateMutability":"nonpayable"},{"type":"function","name":"balanceOf","inputs":[{"name":"account","type":"address","internalType":"address"}],"outputs":[{"name":"","type":"uint256","internalType":"uint256"}],"stateMutability":"view"},{"type":"function","name":"baseMintFactor","inputs":[],"outputs":[{"name":"","type":"uint256","internalType":"uint256"}],"stateMutability":"view"},{"type":"function","name":"burn","inputs":[{"name":"amount","type":"uint256","internalType":"uint256"}],"outputs":[],"stateMutability":"nonpayable"},{"type":"function","name":"burnFrom","inputs":[{"name":"account","type":"address","internalType":"address"},{"name":"amount","type":"uint256","internalType":"uint256"}],"outputs":[],"stateMutability":"nonpayable"},{"type":"function","name":"checkpoints","inputs":[{"name":"account","type":"address","internalType":"address"},{"name":"pos","type":"uint32","internalType":"uint32"}],"outputs":[{"name":"","type":"tuple","internalType":"struct Checkpoints.Checkpoint208","components":[{"name":"_key","type":"uint48","internalType":"uint48"},{"name":"_value","type":"uint208","internalType":"uint208"}]}],"stateMutability":"view"},{"type":"function","name":"clock","inputs":[],"outputs":[{"name":"","type":"uint48","internalType":"uint48"}],"stateMutability":"view"},{"type":"function","name":"cooldownExpirationBlock","inputs":[{"name":"","type":"address","internalType":"address"}],"outputs":[{"name":"","type":"uint256","internalType":"uint256"}],"stateMutability":"view"},{"type":"function","name":"deauthorizeAllExpiredIssuers","inputs":[],"outputs":[],"stateMutability":"nonpayable"},{"type":"function","name":"deauthorizeIssuer","inputs":[{"name":"existingIssuer","type":"address","internalType":"address"}],"outputs":[],"stateMutability":"nonpayable"},{"type":"function","name":"decimals","inputs":[],"outputs":[{"name":"","type":"uint8","internalType":"uint8"}],"stateMutability":"view"},{"type":"function","name":"delegate","inputs":[{"name":"delegatee","type":"address","internalType":"address"}],"outputs":[],"stateMutability":"nonpayable"},{"type":"function","name":"delegateBySig","inputs":[{"name":"delegatee","type":"address","internalType":"address"},{"name":"nonce","type":"uint256","internalType":"uint256"},{"name":"expiry","type":"uint256","internalType":"uint256"},{"name":"v","type":"uint8","internalType":"uint8"},{"name":"r","type":"bytes32","internalType":"bytes32"},{"name":"s","type":"bytes32","internalType":"bytes32"}],"outputs":[],"stateMutability":"nonpayable"},{"type":"function","name":"delegates","inputs":[{"name":"account","type":"address","internalType":"address"}],"outputs":[{"name":"","type":"address","internalType":"address"}],"stateMutability":"view"},{"type":"function","name":"eip712Domain","inputs":[],"outputs":[{"name":"fields","type":"bytes1","internalType":"bytes1"},{"name":"name","type":"string","internalType":"string"},{"name":"version","type":"string","internalType":"string"},{"name":"chainId","type":"uint256","internalType":"uint256"},{"name":"verifyingContract","type":"address","internalType":"address"},{"name":"salt","type":"bytes32","internalType":"bytes32"},{"name":"extensions","type":"uint256[]","internalType":"uint256[]"}],"stateMutability":"view"},{"type":"function","name":"getExpiredIssuers","inputs":[],"outputs":[{"name":"","type":"address[]","internalType":"address[]"}],"stateMutability":"view"},{"type":"function","name":"getIssuerMintFactor","inputs":[{"name":"_issuerAddress","type":"address","internalType":"address"}],"outputs":[{"name":"","type":"uint256","internalType":"uint256"}],"stateMutability":"view"},{"type":"function","name":"getIssuers","inputs":[],"outputs":[{"name":"","type":"address[]","internalType":"address[]"}],"stateMutability":"view"},{"type":"function","name":"getPastTotalSupply","inputs":[{"name":"timepoint","type":"uint256","internalType":"uint256"}],"outputs":[{"name":"","type":"uint256","internalType":"uint256"}],"stateMutability":"view"},{"type":"function","name":"getPastVotes","inputs":[{"name":"account","type":"address","internalType":"address"},{"name":"timepoint","type":"uint256","internalType":"uint256"}],"outputs":[{"name":"","type":"uint256","internalType":"uint256"}],"stateMutability":"view"},{"type":"function","name":"getVotes","inputs":[{"name":"account","type":"address","internalType":"address"}],"outputs":[{"name":"","type":"uint256","internalType":"uint256"}],"stateMutability":"view"},{"type":"function","name":"isIssuer","inputs":[{"name":"","type":"address","internalType":"address"}],"outputs":[{"name":"","type":"uint16","internalType":"uint16"}],"stateMutability":"view"},{"type":"function","name":"issuerData","inputs":[{"name":"","type":"address","internalType":"address"}],"outputs":[{"name":"index","type":"uint256","internalType":"uint256"},{"name":"startingBlock","type":"uint256","internalType":"uint256"},{"name":"expirationBlock","type":"uint256","internalType":"uint256"},{"name":"totalMinted","type":"uint256","internalType":"uint256"},{"name":"mintCount","type":"uint256","internalType":"uint256"},{"name":"burnCount","type":"uint256","internalType":"uint256"},{"name":"totalBurned","type":"uint256","internalType":"uint256"}],"stateMutability":"view"},{"type":"function","name":"issuerInterval","inputs":[],"outputs":[{"name":"","type":"uint256","internalType":"uint256"}],"stateMutability":"view"},{"type":"function","name":"issuers","inputs":[{"name":"","type":"uint256","internalType":"uint256"}],"outputs":[{"name":"","type":"address","internalType":"address"}],"stateMutability":"view"},{"type":"function","name":"maxIssuers","inputs":[],"outputs":[{"name":"","type":"uint256","internalType":"uint256"}],"stateMutability":"view"},{"type":"function","name":"minSupply","inputs":[],"outputs":[{"name":"","type":"uint256","internalType":"uint256"}],"stateMutability":"view"},{"type":"function","name":"mint","inputs":[{"name":"to","type":"address","internalType":"address"},{"name":"userRequestedAmount","type":"uint256","internalType":"uint256"}],"outputs":[],"stateMutability":"nonpayable"},{"type":"function","name":"name","inputs":[],"outputs":[{"name":"","type":"string","internalType":"string"}],"stateMutability":"view"},{"type":"function","name":"nonces","inputs":[{"name":"owner","type":"address","internalType":"address"}],"outputs":[{"name":"","type":"uint256","internalType":"uint256"}],"stateMutability":"view"},{"type":"function","name":"numCheckpoints","inputs":[{"name":"account","type":"address","internalType":"address"}],"outputs":[{"name":"","type":"uint32","internalType":"uint32"}],"stateMutability":"view"},{"type":"function","name":"permit","inputs":[{"name":"owner","type":"address","internalType":"address"},{"name":"spender","type":"address","internalType":"address"},{"name":"value","type":"uint256","internalType":"uint256"},{"name":"deadline","type":"uint256","internalType":"uint256"},{"name":"v","type":"uint8","internalType":"uint8"},{"name":"r","type":"bytes32","internalType":"bytes32"},{"name":"s","type":"bytes32","internalType":"bytes32"}],"outputs":[],"stateMutability":"nonpayable"},{"type":"function","name":"symbol","inputs":[],"outputs":[{"name":"","type":"string","internalType":"string"}],"stateMutability":"view"},{"type":"function","name":"totalIssuers","inputs":[],"outputs":[{"name":"","type":"uint256","internalType":"uint256"}],"stateMutability":"view"},{"type":"function","name":"totalSupply","inputs":[],"outputs":[{"name":"","type":"uint256","internalType":"uint256"}],"stateMutability":"view"},{"type":"function","name":"transfer","inputs":[{"name":"to","type":"address","internalType":"address"},{"name":"value","type":"uint256","internalType":"uint256"}],"outputs":[{"name":"","type":"bool","internalType":"bool"}],"stateMutability":"nonpayable"},{"type":"function","name":"transferFrom","inputs":[{"name":"from","type":"address","internalType":"address"},{"name":"to","type":"address","internalType":"address"},{"name":"value","type":"uint256","internalType":"uint256"}],"outputs":[{"name":"","type":"bool","internalType":"bool"}],"stateMutability":"nonpayable"},{"type":"function","name":"transferIssuerAuthorization","inputs":[{"name":"newIssuer","type":"address","internalType":"address"}],"outputs":[],"stateMutability":"nonpayable"},{"type":"event","name":"Approval","inputs":[{"name":"owner","type":"address","indexed":true,"internalType":"address"},{"name":"spender","type":"address","indexed":true,"internalType":"address"},{"name":"value","type":"uint256","indexed":false,"internalType":"uint256"}],"anonymous":false},{"type":"event","name":"DelegateChanged","inputs":[{"name":"delegator","type":"address","indexed":true,"internalType":"address"},{"name":"fromDelegate","type":"address","indexed":true,"internalType":"address"},{"name":"toDelegate","type":"address","indexed":true,"internalType":"address"}],"anonymous":false},{"type":"event","name":"DelegateVotesChanged","inputs":[{"name":"delegate","type":"address","indexed":true,"internalType":"address"},{"name":"previousVotes","type":"uint256","indexed":false,"internalType":"uint256"},{"name":"newVotes","type":"uint256","indexed":false,"internalType":"uint256"}],"anonymous":false},{"type":"event","name":"EIP712DomainChanged","inputs":[],"anonymous":false},{"type":"event","name":"IssuerActivity","inputs":[{"name":"issuer","type":"address","indexed":true,"internalType":"address"},{"name":"minted","type":"uint256","indexed":false,"internalType":"uint256"},{"name":"burned","type":"uint256","indexed":false,"internalType":"uint256"},{"name":"totalMintedSoFar","type":"uint256","indexed":false,"internalType":"uint256"},{"name":"totalBurnedSoFar","type":"uint256","indexed":false,"internalType":"uint256"}],"anonymous":false},{"type":"event","name":"IssuerAuthorizationTransferred","inputs":[{"name":"oldIssuer","type":"address","indexed":true,"internalType":"address"},{"name":"newIssuer","type":"address","indexed":true,"internalType":"address"},{"name":"issuerIndex","type":"uint256","indexed":false,"internalType":"uint256"}],"anonymous":false},{"type":"event","name":"IssuerAuthorized","inputs":[{"name":"issuer","type":"address","indexed":true,"internalType":"address"},{"name":"expirationBlock","type":"uint256","indexed":false,"internalType":"uint256"}],"anonymous":false},{"type":"event","name":"IssuerDeauthorized","inputs":[{"name":"issuer","type":"address","indexed":true,"internalType":"address"},{"name":"deauthorizer","type":"address","indexed":true,"internalType":"address"}],"anonymous":false},{"type":"event","name":"Transfer","inputs":[{"name":"from","type":"address","indexed":true,"internalType":"address"},{"name":"to","type":"address","indexed":true,"internalType":"address"},{"name":"value","type":"uint256","indexed":false,"internalType":"uint256"}],"anonymous":false},{"type":"error","name":"CheckpointUnorderedInsertion","inputs":[]},{"type":"error","name":"ECDSAInvalidSignature","inputs":[]},{"type":"error","name":"ECDSAInvalidSignatureLength","inputs":[{"name":"length","type":"uint256","internalType":"uint256"}]},{"type":"error","name":"ECDSAInvalidSignatureS","inputs":[{"name":"s","type":"bytes32","internalType":"bytes32"}]},{"type":"error","name":"ERC20ExceededSafeSupply","inputs":[{"name":"increasedSupply","type":"uint256","internalType":"uint256"},{"name":"cap","type":"uint256","internalType":"uint256"}]},{"type":"error","name":"ERC20InsufficientAllowance","inputs":[{"name":"spender","type":"address","internalType":"address"},{"name":"allowance","type":"uint256","internalType":"uint256"},{"name":"needed","type":"uint256","internalType":"uint256"}]},{"type":"error","name":"ERC20InsufficientBalance","inputs":[{"name":"sender","type":"address","internalType":"address"},{"name":"balance","type":"uint256","internalType":"uint256"},{"name":"needed","type":"uint256","internalType":"uint256"}]},{"type":"error","name":"ERC20InvalidApprover","inputs":[{"name":"approver","type":"address","internalType":"address"}]},{"type":"error","name":"ERC20InvalidReceiver","inputs":[{"name":"receiver","type":"address","internalType":"address"}]},{"type":"error","name":"ERC20InvalidSender","inputs":[{"name":"sender","type":"address","internalType":"address"}]},{"type":"error","name":"ERC20InvalidSpender","inputs":[{"name":"spender","type":"address","internalType":"address"}]},{"type":"error","name":"ERC2612ExpiredSignature","inputs":[{"name":"deadline","type":"uint256","internalType":"uint256"}]},{"type":"error","name":"ERC2612InvalidSigner","inputs":[{"name":"signer","type":"address","internalType":"address"},{"name":"owner","type":"address","internalType":"address"}]},{"type":"error","name":"ERC5805FutureLookup","inputs":[{"name":"timepoint","type":"uint256","internalType":"uint256"},{"name":"clock","type":"uint48","internalType":"uint48"}]},{"type":"error","name":"ERC6372InconsistentClock","inputs":[]},{"type":"error","name":"InvalidAccountNonce","inputs":[{"name":"account","type":"address","internalType":"address"},{"name":"currentNonce","type":"uint256","internalType":"uint256"}]},{"type":"error","name":"InvalidShortString","inputs":[]},{"type":"error","name":"SafeCastOverflowedUintDowncast","inputs":[{"name":"bits","type":"uint8","internalType":"uint8"},{"name":"value","type":"uint256","internalType":"uint256"}]},{"type":"error","name":"StringTooLong","inputs":[{"name":"str","type":"string","internalType":"string"}]},{"type":"error","name":"VotesExpiredSignature","inputs":[{"name":"expiry","type":"uint256","internalType":"uint256"}]}],"bytecode":{"object":"0x610160604052348015610010575f5ffd5b5060405180604001604052806013815260200172283ab13634b1902237b6b0b4b7102a37b5b2b760691b81525080604051806040016040528060018152602001603160f81b81525060405180604001604052806013815260200172283ab13634b1902237b6b0b4b7102a37b5b2b760691b8152506040518060400160405280600481526020016314111bd560e21b81525081600390816100b09190610287565b5060046100bd8282610287565b506100cd91508390506005610177565b610120526100dc816006610177565b61014052815160208084019190912060e052815190820120610100524660a05261016860e05161010051604080517f8b73c3c69bb8fe3d512ecc4cf759cc79239f7b179b0ffacaa9a75d522b39400f60208201529081019290925260608201524660808201523060a08201525f9060c00160405160208183030381529060405280519060200120905090565b60805250503060c05250610399565b5f6020835110156101925761018b836101a9565b90506101a3565b8161019d8482610287565b5060ff90505b92915050565b5f5f829050601f815111156101dc578260405163305a27a960e01b81526004016101d39190610341565b60405180910390fd5b80516101e782610376565b179392505050565b634e487b7160e01b5f52604160045260245ffd5b600181811c9082168061021757607f821691505b60208210810361023557634e487b7160e01b5f52602260045260245ffd5b50919050565b601f82111561028257805f5260205f20601f840160051c810160208510156102605750805b601f840160051c820191505b8181101561027f575f815560010161026c565b50505b505050565b81516001600160401b038111156102a0576102a06101ef565b6102b4816102ae8454610203565b8461023b565b6020601f8211600181146102e6575f83156102cf5750848201515b5f19600385901b1c1916600184901b17845561027f565b5f84815260208120601f198516915b8281101561031557878501518255602094850194600190920191016102f5565b508482101561033257868401515f19600387901b60f8161c191681555b50505050600190811b01905550565b602081525f82518060208401528060208501604085015e5f604082850101526040601f19601f83011684010191505092915050565b80516020808301519190811015610235575f1960209190910360031b1b16919050565b60805160a05160c05160e0516101005161012051610140516135296103ea5f395f6122aa01525f61227d01525f611e0501525f611ddd01525f611d3801525f611d6201525f611d8c01526135295ff3fe608060405234801561000f575f5ffd5b5060043610610255575f3560e01c806384b0196e11610140578063a594da95116100bf578063da6130f511610084578063da6130f51461056a578063dd62ed3e1461057d578063e09917c3146105b5578063e2a4f741146105bd578063f1127ed81461063c578063f63e372d1461067b575f5ffd5b8063a594da9514610514578063a9059cbb14610529578063afc3c7571461053c578063c3cda52014610544578063d505accf14610557575f5ffd5b80639288bfa8116101055780639288bfa8146104de57806395d89b41146104e75780639819385e146104ef5780639ab24eb0146104f95780639d87b1ac1461050c575f5ffd5b806384b0196e1461044a578063877b9a67146104655780638e539e8c1461049b5780638fe6cae3146104ae57806391ddadf4146104bf575f5ffd5b806340c10f19116101d75780635c19a95c1161019c5780635c19a95c146103ae57806361ec30c4146103c15780636fcfff45146103d457806370a08231146103fc57806379cc6790146104245780637ecebe0014610437575f5ffd5b806340c10f191461032a57806342966c681461033d578063436693d5146103505780634bf5d7e914610363578063587cde1e1461036b575f5ffd5b806323b872dd1161021d57806323b872dd146102d8578063313ce567146102eb5780633644e515146102fa5780633a46b1a8146103025780633a71daf414610315575f5ffd5b806306fdde03146102595780630927cd0d14610277578063095ea7b31461028e5780631552ea8f146102b157806318160ddd146102d0575b5f5ffd5b61026161068e565b60405161026e919061304f565b60405180910390f35b610280600b5481565b60405190815260200161026e565b6102a161029c36600461307c565b61071e565b604051901515815260200161026e565b6102806102bf3660046130a4565b600f6020525f908152604090205481565b600254610280565b6102a16102e63660046130bd565b610737565b6040516012815260200161026e565b61028061075a565b61028061031036600461307c565b610768565b6103286103233660046130a4565b6107ec565b005b61032861033836600461307c565b610a18565b61032861034b3660046130f7565b610d24565b61032861035e3660046130a4565b610e38565b6102616110c4565b6103966103793660046130a4565b6001600160a01b039081165f908152600860205260409020541690565b6040516001600160a01b03909116815260200161026e565b6103286103bc3660046130a4565b61113c565b6103966103cf3660046130f7565b61114b565b6103e76103e23660046130a4565b611173565b60405163ffffffff909116815260200161026e565b61028061040a3660046130a4565b6001600160a01b03165f9081526020819052604090205490565b61032861043236600461307c565b61117d565b6102806104453660046130a4565b611240565b61045261124a565b60405161026e979695949392919061310e565b6104886104733660046130a4565b600d6020525f908152604090205461ffff1681565b60405161ffff909116815260200161026e565b6102806104a93660046130f7565b61128c565b61028069d3c21bcecceda100000081565b6104c76112f5565b60405165ffffffffffff909116815260200161026e565b6102806103e881565b6102616112fe565b610280622819a081565b6102806105073660046130a4565b61130d565b610280600581565b61051c61133c565b60405161026e91906131a4565b6102a161053736600461307c565b61139b565b6103286113a8565b6103286105523660046131ff565b6114ee565b610328610565366004613253565b6115aa565b6102806105783660046130a4565b6116e0565b61028061058b3660046132b9565b6001600160a01b039182165f90815260016020908152604080832093909416825291909152205490565b61051c6116ea565b6106076105cb3660046130a4565b600e6020525f90815260409020805460018201546002830154600384015460048501546005860154600690960154949593949293919290919087565b604080519788526020880196909652948601939093526060850191909152608084015260a083015260c082015260e00161026e565b61064f61064a3660046132ea565b611860565b60408051825165ffffffffffff1681526020928301516001600160d01b0316928101929092520161026e565b6103286106893660046130a4565b611884565b60606003805461069d90613327565b80601f01602080910402602001604051908101604052809291908181526020018280546106c990613327565b80156107145780601f106106eb57610100808354040283529160200191610714565b820191905f5260205f20905b8154815290600101906020018083116106f757829003601f168201915b5050505050905090565b5f3361072b818585611c42565b60019150505b92915050565b5f33610744858285611c54565b61074f858585611ccf565b506001949350505050565b5f610763611d2c565b905090565b5f5f6107726112f5565b90508065ffffffffffff1683106107b257604051637669fc0f60e11b81526004810184905265ffffffffffff821660248201526044015b60405180910390fd5b6107db6107be84611e55565b6001600160a01b0386165f90815260096020526040902090611e8b565b6001600160d01b0316949350505050565b6001600160a01b0381165f908152600d602052604090205461ffff166001146108635760405162461bcd60e51b815260206004820152602360248201527f41646472657373206973206e6f7420616e20617574686f72697a6564206973736044820152623ab2b960e91b60648201526084016107a9565b336001600160a01b038216148061089457506001600160a01b0381165f908152600e60205260409020600201544310155b6108e05760405162461bcd60e51b815260206004820152601b60248201527f497373756572207465726d20686173206e6f742065787069726564000000000060448201526064016107a9565b6001600160a01b0381165f908152600e6020526040902060010154439061090a9062261858613373565b1015610965576001600160a01b0381165f908152600e60205260409020600101546109359043613386565b61094290622819a0613386565b61094c9043613373565b6001600160a01b0382165f908152600f60205260409020555b6001600160a01b0381165f908152600d60205260408120805461ffff19169055600b80549161099383613399565b91905055506109a181611f3b565b60405133906001600160a01b038316907f02c36ff5da6738dbb9919fed63588f28df9d20151ed743eb0009c21317039297905f90a36001600160a01b03165f908152600e60205260408120818155600181018290556002810182905560038101829055600481018290556005810182905560060155565b335f908152600d602052604090205461ffff16600114610a4a5760405162461bcd60e51b81526004016107a9906133ae565b335f908152600e60205260409020600201544310610a7a5760405162461bcd60e51b81526004016107a9906133db565b6001600160a01b038216610ad05760405162461bcd60e51b815260206004820152601f60248201527f45524332303a206d696e7420746f20746865207a65726f20616464726573730060448201526064016107a9565b306001600160a01b03831603610b3b5760405162461bcd60e51b815260206004820152602a60248201527f43616e6e6f74206d696e7420746f6b656e7320746f2074686520636f6e7472616044820152696374206164647265737360b01b60648201526084016107a9565b5f610b4560025490565b90508015610ba8575f8211610ba85760405162461bcd60e51b8152602060048201526024808201527f4d696e74656420616d6f756e74206d75737420626520677265617465722074686044820152630616e20360e41b60648201526084016107a9565b5f610bb233612020565b90505f69d3c21bcecceda1000000831015610bde57610bdb8369d3c21bcecceda1000000613386565b90505b825f03610bed575f9350610c5c565b610bf78284613403565b610c02856064613403565b1115610c5c5760405162461bcd60e51b8152602060048201526024808201527f4d696e74656420616d6f756e74206578636565647320616c6c6f7761626c65206044820152631b5a5b9d60e21b60648201526084016107a9565b5f610c678286613373565b9050610c738682612155565b335f908152600e602052604081206003018054839290610c94908490613373565b9091555050335f908152600e60205260408120600401805491610cb68361341a565b9091555050335f818152600e6020908152604080832060038101546006909101548251878152938401949094529082015260608101919091527f2c6b67bbb0115d824b2bf0140b6b9bf739dff82b63541c7ac1d7681c917a48229060800160405180910390a2505050505050565b335f908152600d602052604090205461ffff16600114610d565760405162461bcd60e51b81526004016107a9906133ae565b335f908152600e60205260409020600201544310610d865760405162461bcd60e51b81526004016107a9906133db565b610d903382612189565b335f908152600e602052604081206006018054839290610db1908490613373565b9091555050335f908152600e60205260408120600501805491610dd38361341a565b9091555050335f818152600e60209081526040808320600381015460069091015482519485529284018690529083015260608201527f2c6b67bbb0115d824b2bf0140b6b9bf739dff82b63541c7ac1d7681c917a48229060800160405180910390a250565b6001600160a01b0381165f908152600f602052604090205481904311610ea05760405162461bcd60e51b815260206004820152601f60248201527f436f6f6c646f776e20706572696f6420686173206e6f7420657870697265640060448201526064016107a9565b6001600160a01b0382165f908152600d602052604090205461ffff1615610f095760405162461bcd60e51b815260206004820152601d60248201527f4164647265737320697320616c726561647920617574686f72697a656400000060448201526064016107a9565b6103e8600b5410610f665760405162461bcd60e51b815260206004820152602160248201527f4d6178696d756d206e756d626572206f662049737375657273207265616368656044820152601960fa1b60648201526084016107a9565b600b8054905f610f758361341a565b9091555050600c8054600180820183557fdf6966c971051c3d54ec59162606531493a51404a002842f56009d7e5cf4a8c790910180546001600160a01b0319166001600160a01b0386169081179091555f908152600d602052604090819020805461ffff191683179055805160e0810190915291548291610ff591613386565b8152602001438152602001622819a04361100f9190613373565b81525f60208083018290526040808401839052606080850184905260809485018490526001600160a01b038816808552600e84529382902086518155928601516001840155858201516002840181905590860151600384015593850151600483015560a0850151600583015560c09094015160069091015591517fa0d402b55b358dfac53c7d1b3ef26f4e07d706ad2cab4e9540094020ee9a1d99916110b89190815260200190565b60405180910390a25050565b60606110ce6121bd565b65ffffffffffff166110de6112f5565b65ffffffffffff1614611104576040516301bfc1c560e61b815260040160405180910390fd5b5060408051808201909152601d81527f6d6f64653d626c6f636b6e756d6265722666726f6d3d64656661756c74000000602082015290565b3361114781836121c7565b5050565b600c818154811061115a575f80fd5b5f918252602090912001546001600160a01b0316905081565b5f61073182612238565b335f908152600d602052604090205461ffff166001146111af5760405162461bcd60e51b81526004016107a9906133ae565b335f908152600e602052604090206002015443106111df5760405162461bcd60e51b81526004016107a9906133db565b6111ea823383611c54565b6111f48282612189565b335f908152600e602052604081206006018054839290611215908490613373565b9091555050335f908152600e602052604081206005018054916112378361341a565b91905055505050565b5f61073182612259565b5f6060805f5f5f606061125b612276565b6112636122a3565b604080515f80825260208201909252600f60f81b9b939a50919850469750309650945092509050565b5f5f6112966112f5565b90508065ffffffffffff1683106112d157604051637669fc0f60e11b81526004810184905265ffffffffffff821660248201526044016107a9565b6112e56112dd84611e55565b600a90611e8b565b6001600160d01b03169392505050565b5f6107636121bd565b60606004805461069d90613327565b6001600160a01b0381165f90815260096020526040812061132d906122d0565b6001600160d01b031692915050565b6060600c80548060200260200160405190810160405280929190818152602001828054801561071457602002820191905f5260205f20905b81546001600160a01b03168152600190910190602001808311611374575050505050905090565b5f3361072b818585611ccf565b600c545b80156114eb575f6113be600183613386565b9050600e5f600c83815481106113d6576113d6613446565b5f9182526020808320909101546001600160a01b0316835282019290925260400190206002015443106114d8575f600c828154811061141757611417613446565b5f9182526020808320909101546001600160a01b0316808352600d90915260408220805461ffff19169055600b8054919350909161145483613399565b919050555061146281611f3b565b60405133906001600160a01b038316907f02c36ff5da6738dbb9919fed63588f28df9d20151ed743eb0009c21317039297905f90a36001600160a01b03165f908152600e602052604081208181556001810182905560028101829055600381018290556004810182905560058101829055600601555b50806114e381613399565b9150506113ac565b50565b8342111561151257604051632341d78760e11b8152600481018590526024016107a9565b604080517fe48329057bfd03d55e49b547132e39cffd9c1820ad7b9d4c5307691425d15adf60208201526001600160a01b0388169181019190915260608101869052608081018590525f9061158b906115839060a00160405160208183030381529060405280519060200120612307565b858585612333565b9050611597818761235f565b6115a181886121c7565b50505050505050565b834211156115ce5760405163313c898160e11b8152600481018590526024016107a9565b5f7f6e71edae12b1b97f4d1f60370fef10105fa2faae0126114a169c64845d6126c98888886116198c6001600160a01b03165f90815260076020526040902080546001810190915590565b6040805160208101969096526001600160a01b0394851690860152929091166060840152608083015260a082015260c0810186905260e0016040516020818303038152906040528051906020012090505f61167382612307565b90505f61168282878787612333565b9050896001600160a01b0316816001600160a01b0316146116c9576040516325c0072360e11b81526001600160a01b0380831660048301528b1660248201526044016107a9565b6116d48a8a8a611c42565b50505050505050505050565b5f61073182612020565b60605f805b600c5481101561175257600e5f600c838154811061170f5761170f613446565b5f9182526020808320909101546001600160a01b03168352820192909252604001902060020154431061174a57816117468161341a565b9250505b6001016116ef565b505f8167ffffffffffffffff81111561176d5761176d613432565b604051908082528060200260200182016040528015611796578160200160208202803683370190505b5090505f805b600c5481101561185757600e5f600c83815481106117bc576117bc613446565b5f9182526020808320909101546001600160a01b03168352820192909252604001902060020154431061184f57600c81815481106117fc576117fc613446565b905f5260205f20015f9054906101000a90046001600160a01b031683838151811061182957611829613446565b6001600160a01b03909216602092830291909101909101528161184b8161341a565b9250505b60010161179c565b50909392505050565b604080518082019091525f808252602082015261187d83836123b1565b9392505050565b335f908152600d602052604090205461ffff166001146118b65760405162461bcd60e51b81526004016107a9906133ae565b335f908152600e602052604090206002015443106118e65760405162461bcd60e51b81526004016107a9906133db565b6001600160a01b0381165f908152600f60205260409020548190431161194e5760405162461bcd60e51b815260206004820152601f60248201527f436f6f6c646f776e20706572696f6420686173206e6f7420657870697265640060448201526064016107a9565b335f908152600d602052604090205461ffff166001146119bf5760405162461bcd60e51b815260206004820152602660248201527f4d73672e73656e646572206973206e6f7420616e20617574686f72697a65642060448201526534b9b9bab2b960d11b60648201526084016107a9565b6001600160a01b0382165f908152600d602052604090205461ffff1615611a285760405162461bcd60e51b815260206004820152601d60248201527f4164647265737320697320616c726561647920617574686f72697a656400000060448201526064016107a9565b335f908152600e60205260409020600201544310611a885760405162461bcd60e51b815260206004820152601760248201527f497373756572207465726d20686173206578706972656400000000000000000060448201526064016107a9565b6001600160a01b038216611af25760405162461bcd60e51b815260206004820152602b60248201527f43616e6e6f74207472616e7366657220617574686f72697a6174696f6e20746f60448201526a206164647265737328302960a81b60648201526084016107a9565b306001600160a01b03831603611b645760405162461bcd60e51b815260206004820152603160248201527f43616e6e6f74207472616e7366657220617574686f72697a6174696f6e20746f60448201527020636f6e7472616374206164647265737360781b60648201526084016107a9565b6040805160e081018252335f818152600e60208181528583208054865260018101805483880152600282018054888a015260038301805460608a015260048401805460808b015260058501805460a08c015260068601805460c08d0152998952600d87529a8820805461ffff1916905595909452918590558490558390558290558190559283905591909155611bfa83826123e5565b80516040519081526001600160a01b0384169033907fc4ae840bfec93e8c78b22242773f764c63ea7131dcd4f5a3408193968615d8a6906020015b60405180910390a3505050565b611c4f838383600161248d565b505050565b6001600160a01b038381165f908152600160209081526040808320938616835292905220545f198114611cc95781811015611cbb57604051637dc7a0d960e11b81526001600160a01b038416600482015260248101829052604481018390526064016107a9565b611cc984848484035f61248d565b50505050565b6001600160a01b038316611cf857604051634b637e8f60e11b81525f60048201526024016107a9565b6001600160a01b038216611d215760405163ec442f0560e01b81525f60048201526024016107a9565b611c4f83838361255f565b5f306001600160a01b037f000000000000000000000000000000000000000000000000000000000000000016148015611d8457507f000000000000000000000000000000000000000000000000000000000000000046145b15611dae57507f000000000000000000000000000000000000000000000000000000000000000090565b610763604080517f8b73c3c69bb8fe3d512ecc4cf759cc79239f7b179b0ffacaa9a75d522b39400f60208201527f0000000000000000000000000000000000000000000000000000000000000000918101919091527f000000000000000000000000000000000000000000000000000000000000000060608201524660808201523060a08201525f9060c00160405160208183030381529060405280519060200120905090565b5f65ffffffffffff821115611e87576040516306dfcc6560e41b815260306004820152602481018390526044016107a9565b5090565b81545f9081816005811115611ee7575f611ea4846125ce565b611eae9085613386565b5f8881526020902090915081015465ffffffffffff9081169087161015611ed757809150611ee5565b611ee2816001613373565b92505b505b5f611ef487878585612726565b90508015611f2e57611f1887611f0b600184613386565b5f91825260209091200190565b54600160301b90046001600160d01b0316611f30565b5f5b979650505050505050565b6001600160a01b0381165f908152600e6020526040812054600c54909190611f6590600190613386565b9050808214611fea575f600c8281548110611f8257611f82613446565b5f91825260209091200154600c80546001600160a01b039092169250829185908110611fb057611fb0613446565b5f91825260208083209190910180546001600160a01b0319166001600160a01b03948516179055929091168152600e909152604090208290555b600c805480611ffb57611ffb61345a565b5f8281526020902081015f1990810180546001600160a01b0319169055019055505050565b6001600160a01b0381165f908152600e60205260408120600381015460048201546005830154600690930154919290918461205a60025490565b9050805f03612070575060059695505050505050565b5f8415612086576120818587613482565b612088565b5f5b90505f84156120a05761209b8585613482565b6120a2565b5f5b90505f836120b1846064613403565b6120bb9190613482565b90505f600582106120cd57505f6120db565b6120d8826005613386565b90505b5f868a116120f1576120ee600182613373565b90505b83851161210657612103600182613373565b90505b6002831161211c57612119600182613373565b90505b5f6121278284613373565b90506005811115612145575060059c9b505050505050505050505050565b9c9b505050505050505050505050565b6001600160a01b03821661217e5760405163ec442f0560e01b81525f60048201526024016107a9565b6111475f838361255f565b6001600160a01b0382166121b257604051634b637e8f60e11b81525f60048201526024016107a9565b611147825f8361255f565b5f61076343611e55565b6001600160a01b038281165f8181526008602052604080822080548686166001600160a01b0319821681179092559151919094169392849290917f3134e8a2e6d97e929a7e54011ea5485d7d196dd5f0ba4d4ef95803e8e3fc257f9190a4611c4f818361223386612785565b6127a2565b6001600160a01b0381165f908152600960205260408120546107319061290b565b6001600160a01b0381165f90815260076020526040812054610731565b60606107637f0000000000000000000000000000000000000000000000000000000000000000600561293b565b60606107637f0000000000000000000000000000000000000000000000000000000000000000600661293b565b80545f9080156122ff576122e983611f0b600184613386565b54600160301b90046001600160d01b031661187d565b5f9392505050565b5f610731612313611d2c565b8360405161190160f01b8152600281019290925260228201526042902090565b5f5f5f5f612343888888886129e4565b9250925092506123538282612aac565b50909695505050505050565b6001600160a01b0382165f908152600760205260409020805460018101909155818114611c4f576040516301d4b62360e61b81526001600160a01b0384166004820152602481018290526044016107a9565b604080518082019091525f80825260208201526001600160a01b0383165f90815260096020526040902061187d9083612b64565b81600c825f0151815481106123fc576123fc613446565b5f91825260208083209190910180546001600160a01b0319166001600160a01b03948516179055939091168152600e835260408082208351815583850151600182810191909155848301516002830155606085015160038301556080850151600483015560a0850151600583015560c090940151600690910155600d90935291909120805461ffff19169091179055565b6001600160a01b0384166124b65760405163e602df0560e01b81525f60048201526024016107a9565b6001600160a01b0383166124df57604051634a1406b160e11b81525f60048201526024016107a9565b6001600160a01b038085165f9081526001602090815260408083209387168352929052208290558015611cc957826001600160a01b0316846001600160a01b03167f8c5be1e5ebec7d5bd14f71427d1e84f3dd0314c0f7b2291e5b200ac8c7c3b9258460405161255191815260200190565b60405180910390a350505050565b306001600160a01b038316036125c35760405162461bcd60e51b815260206004820152602360248201527f43616e6e6f74207472616e7366657220746f20636f6e7472616374206164647260448201526265737360e81b60648201526084016107a9565b611c4f838383612bd1565b5f600182116125db575090565b816001600160801b82106125f45760809190911c9060401b5b68010000000000000000821061260f5760409190911c9060201b5b64010000000082106126265760209190911c9060101b5b62010000821061263b5760109190911c9060081b5b610100821061264f5760089190911c9060041b5b601082106126625760049190911c9060021b5b6004821061266e5760011b5b600302600190811c908185816126865761268661346e565b048201901c9050600181858161269e5761269e61346e565b048201901c905060018185816126b6576126b661346e565b048201901c905060018185816126ce576126ce61346e565b048201901c905060018185816126e6576126e661346e565b048201901c905060018185816126fe576126fe61346e565b048201901c905061271d8185816127175761271761346e565b04821190565b90039392505050565b5f5b8183101561277d575f61273b8484612c37565b5f8781526020902090915065ffffffffffff86169082015465ffffffffffff16111561276957809250612777565b612774816001613373565b93505b50612728565b509392505050565b6001600160a01b0381165f90815260208190526040812054610731565b816001600160a01b0316836001600160a01b0316141580156127c357505f81115b15611c4f576001600160a01b0383161561286a576001600160a01b0383165f908152600960205260408120819061280590612c5161280086612c5c565b612c8f565b6001600160d01b031691506001600160d01b03169150846001600160a01b03167fdec2bacdd2f05b59de34da9b523dff8be42e5e38e818c82fdb0bae774387a724838360405161285f929190918252602082015260400190565b60405180910390a250505b6001600160a01b03821615611c4f576001600160a01b0382165f90815260096020526040812081906128a290612cc761280086612c5c565b6001600160d01b031691506001600160d01b03169150836001600160a01b03167fdec2bacdd2f05b59de34da9b523dff8be42e5e38e818c82fdb0bae774387a72483836040516128fc929190918252602082015260400190565b60405180910390a25050505050565b5f63ffffffff821115611e87576040516306dfcc6560e41b815260206004820152602481018390526044016107a9565b606060ff83146129555761294e83612cd2565b9050610731565b81805461296190613327565b80601f016020809104026020016040519081016040528092919081815260200182805461298d90613327565b80156129d85780601f106129af576101008083540402835291602001916129d8565b820191905f5260205f20905b8154815290600101906020018083116129bb57829003601f168201915b50505050509050610731565b5f80807f7fffffffffffffffffffffffffffffff5d576e7357a4501ddfe92f46681b20a0841115612a1d57505f91506003905082612aa2565b604080515f808252602082018084528a905260ff891692820192909252606081018790526080810186905260019060a0016020604051602081039080840390855afa158015612a6e573d5f5f3e3d5ffd5b5050604051601f1901519150506001600160a01b038116612a9957505f925060019150829050612aa2565b92505f91508190505b9450945094915050565b5f826003811115612abf57612abf6134a1565b03612ac8575050565b6001826003811115612adc57612adc6134a1565b03612afa5760405163f645eedf60e01b815260040160405180910390fd5b6002826003811115612b0e57612b0e6134a1565b03612b2f5760405163fce698f760e01b8152600481018290526024016107a9565b6003826003811115612b4357612b436134a1565b03611147576040516335e2f38360e21b8152600481018290526024016107a9565b604080518082019091525f8082526020820152825f018263ffffffff1681548110612b9157612b91613446565b5f9182526020918290206040805180820190915291015465ffffffffffff81168252600160301b90046001600160d01b0316918101919091529392505050565b612bdc838383612d0f565b6001600160a01b038316612c2c575f612bf460025490565b90506001600160d01b0380821115612c2957604051630e58ae9360e11b815260048101839052602481018290526044016107a9565b50505b611c4f838383612e28565b5f612c456002848418613482565b61187d90848416613373565b5f61187d82846134b5565b5f6001600160d01b03821115611e87576040516306dfcc6560e41b815260d06004820152602481018390526044016107a9565b5f5f612cba612c9c6112f5565b612cb2612ca8886122d0565b868863ffffffff16565b879190612e9d565b915091505b935093915050565b5f61187d82846134d4565b60605f612cde83612eaa565b6040805160208082528183019092529192505f91906020820181803683375050509182525060208101929092525090565b6001600160a01b038316612d39578060025f828254612d2e9190613373565b90915550612da99050565b6001600160a01b0383165f9081526020819052604090205481811015612d8b5760405163391434e360e21b81526001600160a01b038516600482015260248101829052604481018390526064016107a9565b6001600160a01b0384165f9081526020819052604090209082900390555b6001600160a01b038216612dc557600280548290039055612de3565b6001600160a01b0382165f9081526020819052604090208054820190555b816001600160a01b0316836001600160a01b03167fddf252ad1be2c89b69c2b068fc378daa952ba7f163c4a11628f55a4df523b3ef83604051611c3591815260200190565b6001600160a01b038316612e4a57612e47600a612cc761280084612c5c565b50505b6001600160a01b038216612e6c57612e69600a612c5161280084612c5c565b50505b6001600160a01b038381165f90815260086020526040808220548584168352912054611c4f929182169116836127a2565b5f80612cba858585612ed1565b5f60ff8216601f81111561073157604051632cd44ac360e21b815260040160405180910390fd5b82545f9081908015612fc7575f612eed87611f0b600185613386565b805490915065ffffffffffff80821691600160301b90046001600160d01b0316908816821115612f3057604051632520601d60e01b815260040160405180910390fd5b8765ffffffffffff168265ffffffffffff1603612f6957825465ffffffffffff16600160301b6001600160d01b03891602178355612fb9565b6040805180820190915265ffffffffffff808a1682526001600160d01b03808a1660208085019182528d54600181018f555f8f81529190912094519151909216600160301b029216919091179101555b9450859350612cbf92505050565b50506040805180820190915265ffffffffffff80851682526001600160d01b0380851660208085019182528854600181018a555f8a815291822095519251909316600160301b029190931617920191909155905081612cbf565b5f81518084528060208401602086015e5f602082860101526020601f19601f83011685010191505092915050565b602081525f61187d6020830184613021565b80356001600160a01b0381168114613077575f5ffd5b919050565b5f5f6040838503121561308d575f5ffd5b61309683613061565b946020939093013593505050565b5f602082840312156130b4575f5ffd5b61187d82613061565b5f5f5f606084860312156130cf575f5ffd5b6130d884613061565b92506130e660208501613061565b929592945050506040919091013590565b5f60208284031215613107575f5ffd5b5035919050565b60ff60f81b8816815260e060208201525f61312c60e0830189613021565b828103604084015261313e8189613021565b606084018890526001600160a01b038716608085015260a0840186905283810360c0850152845180825260208087019350909101905f5b81811015613193578351835260209384019390920191600101613175565b50909b9a5050505050505050505050565b602080825282518282018190525f918401906040840190835b818110156131e45783516001600160a01b03168352602093840193909201916001016131bd565b509095945050505050565b803560ff81168114613077575f5ffd5b5f5f5f5f5f5f60c08789031215613214575f5ffd5b61321d87613061565b95506020870135945060408701359350613239606088016131ef565b9598949750929560808101359460a0909101359350915050565b5f5f5f5f5f5f5f60e0888a031215613269575f5ffd5b61327288613061565b965061328060208901613061565b9550604088013594506060880135935061329c608089016131ef565b9699959850939692959460a0840135945060c09093013592915050565b5f5f604083850312156132ca575f5ffd5b6132d383613061565b91506132e160208401613061565b90509250929050565b5f5f604083850312156132fb575f5ffd5b61330483613061565b9150602083013563ffffffff8116811461331c575f5ffd5b809150509250929050565b600181811c9082168061333b57607f821691505b60208210810361335957634e487b7160e01b5f52602260045260245ffd5b50919050565b634e487b7160e01b5f52601160045260245ffd5b808201808211156107315761073161335f565b818103818111156107315761073161335f565b5f816133a7576133a761335f565b505f190190565b6020808252601390820152722ab730baba3437b934bd32b21024b9b9bab2b960691b604082015260600190565b6020808252600e908201526d22bc3834b932b21024b9b9bab2b960911b604082015260600190565b80820281158282048414176107315761073161335f565b5f6001820161342b5761342b61335f565b5060010190565b634e487b7160e01b5f52604160045260245ffd5b634e487b7160e01b5f52603260045260245ffd5b634e487b7160e01b5f52603160045260245ffd5b634e487b7160e01b5f52601260045260245ffd5b5f8261349c57634e487b7160e01b5f52601260045260245ffd5b500490565b634e487b7160e01b5f52602160045260245ffd5b6001600160d01b0382811682821603908111156107315761073161335f565b6001600160d01b0381811683821601908111156107315761073161335f56fea2646970667358221220337a84406a81cb8afca7ee33af7fa8c60d5dfc653e01f9d8e0e84c4a8822f5c764736f6c634300081c0033","linkReferences":{}},"methodIdentifiers":{"CLOCK_MODE()":"4bf5d7e9","DOMAIN_SEPARATOR()":"3644e515","allowance(address,address)":"dd62ed3e","approve(address,uint256)":"095ea7b3","authorizeIssuer(address)":"436693d5","balanceOf(address)":"70a08231","baseMintFactor()":"9d87b1ac","burn(uint256)":"42966c68","burnFrom(address,uint256)":"79cc6790","checkpoints(address,uint32)":"f1127ed8","clock()":"91ddadf4","cooldownExpirationBlock(address)":"1552ea8f","deauthorizeAllExpiredIssuers()":"afc3c757","deauthorizeIssuer(address)":"3a71daf4","decimals()":"313ce567","delegate(address)":"5c19a95c","delegateBySig(address,uint256,uint256,uint8,bytes32,bytes32)":"c3cda520","delegates(address)":"587cde1e","eip712Domain()":"84b0196e","getExpiredIssuers()":"e09917c3","getIssuerMintFactor(address)":"da6130f5","getIssuers()":"a594da95","getPastTotalSupply(uint256)":"8e539e8c","getPastVotes(address,uint256)":"3a46b1a8","getVotes(address)":"9ab24eb0","isIssuer(address)":"877b9a67","issuerData(address)":"e2a4f741","issuerInterval()":"9819385e","issuers(uint256)":"61ec30c4","maxIssuers()":"9288bfa8","minSupply()":"8fe6cae3","mint(address,uint256)":"40c10f19","name()":"06fdde03","nonces(address)":"7ecebe00","numCheckpoints(address)":"6fcfff45","permit(address,address,uint256,uint256,uint8,bytes32,bytes32)":"d505accf","symbol()":"95d89b41","totalIssuers()":"0927cd0d","totalSupply()":"18160ddd","transfer(address,uint256)":"a9059cbb","transferFrom(address,address,uint256)":"23b872dd","transferIssuerAuthorization(address)":"f63e372d"},"id":53}