{"abi":[{"type":"constructor","inputs":[],"stateMutability":"nonpayable"},{"type":"function","name":"CLOCK_MODE","inputs":[],"outputs":[{"name":"","type":"string","internalType":"string"}],"stateMutability":"view"},{"type":"function","name":"DOMAIN_SEPARATOR","inputs":[],"outputs":[{"name":"","type":"bytes32","internalType":"bytes32"}],"stateMutability":"view"},{"type":"function","name":"allowance","inputs":[{"name":"owner","type":"address","internalType":"address"},{"name":"spender","type":"address","internalType":"address"}],"outputs":[{"name":"","type":"uint256","internalType":"uint256"}],"stateMutability":"view"},{"type":"function","name":"approve","inputs":[{"name":"spender","type":"address","internalType":"address"},{"name":"value","type":"uint256","internalType":"uint256"}],"outputs":[{"name":"","type":"bool","internalType":"bool"}],"stateMutability":"nonpayable"},{"type":"function","name":"authorizeIssuer","inputs":[{"name":"newIssuer","type":"address","internalType":"address"}],"outputs":[],"stateMutability":"nonpayable"},{"type":"function","name":"balanceOf","inputs":[{"name":"account","type":"address","internalType":"address"}],"outputs":[{"name":"","type":"uint256","internalType":"uint256"}],"stateMutability":"view"},{"type":"function","name":"baseMintFactor","inputs":[],"outputs":[{"name":"","type":"uint256","internalType":"uint256"}],"stateMutability":"view"},{"type":"function","name":"burn","inputs":[{"name":"amount","type":"uint256","internalType":"uint256"}],"outputs":[],"stateMutability":"nonpayable"},{"type":"function","name":"burnFrom","inputs":[{"name":"account","type":"address","internalType":"address"},{"name":"amount","type":"uint256","internalType":"uint256"}],"outputs":[],"stateMutability":"nonpayable"},{"type":"function","name":"checkpoints","inputs":[{"name":"account","type":"address","internalType":"address"},{"name":"pos","type":"uint32","internalType":"uint32"}],"outputs":[{"name":"","type":"tuple","internalType":"struct Checkpoints.Checkpoint208","components":[{"name":"_key","type":"uint48","internalType":"uint48"},{"name":"_value","type":"uint208","internalType":"uint208"}]}],"stateMutability":"view"},{"type":"function","name":"clock","inputs":[],"outputs":[{"name":"","type":"uint48","internalType":"uint48"}],"stateMutability":"view"},{"type":"function","name":"deauthorizeAllExpiredIssuers","inputs":[],"outputs":[],"stateMutability":"nonpayable"},{"type":"function","name":"deauthorizeIssuer","inputs":[{"name":"existingIssuer","type":"address","internalType":"address"}],"outputs":[],"stateMutability":"nonpayable"},{"type":"function","name":"decimals","inputs":[],"outputs":[{"name":"","type":"uint8","internalType":"uint8"}],"stateMutability":"view"},{"type":"function","name":"delegate","inputs":[{"name":"delegatee","type":"address","internalType":"address"}],"outputs":[],"stateMutability":"nonpayable"},{"type":"function","name":"delegateBySig","inputs":[{"name":"delegatee","type":"address","internalType":"address"},{"name":"nonce","type":"uint256","internalType":"uint256"},{"name":"expiry","type":"uint256","internalType":"uint256"},{"name":"v","type":"uint8","internalType":"uint8"},{"name":"r","type":"bytes32","internalType":"bytes32"},{"name":"s","type":"bytes32","internalType":"bytes32"}],"outputs":[],"stateMutability":"nonpayable"},{"type":"function","name":"delegates","inputs":[{"name":"account","type":"address","internalType":"address"}],"outputs":[{"name":"","type":"address","internalType":"address"}],"stateMutability":"view"},{"type":"function","name":"eip712Domain","inputs":[],"outputs":[{"name":"fields","type":"bytes1","internalType":"bytes1"},{"name":"name","type":"string","internalType":"string"},{"name":"version","type":"string","internalType":"string"},{"name":"chainId","type":"uint256","internalType":"uint256"},{"name":"verifyingContract","type":"address","internalType":"address"},{"name":"salt","type":"bytes32","internalType":"bytes32"},{"name":"extensions","type":"uint256[]","internalType":"uint256[]"}],"stateMutability":"view"},{"type":"function","name":"getIssuerMintFactor","inputs":[{"name":"_issuerAddress","type":"address","internalType":"address"}],"outputs":[{"name":"","type":"uint256","internalType":"uint256"}],"stateMutability":"view"},{"type":"function","name":"getIssuers","inputs":[],"outputs":[{"name":"","type":"address[]","internalType":"address[]"}],"stateMutability":"view"},{"type":"function","name":"getPastTotalSupply","inputs":[{"name":"timepoint","type":"uint256","internalType":"uint256"}],"outputs":[{"name":"","type":"uint256","internalType":"uint256"}],"stateMutability":"view"},{"type":"function","name":"getPastVotes","inputs":[{"name":"account","type":"address","internalType":"address"},{"name":"timepoint","type":"uint256","internalType":"uint256"}],"outputs":[{"name":"","type":"uint256","internalType":"uint256"}],"stateMutability":"view"},{"type":"function","name":"getVotes","inputs":[{"name":"account","type":"address","internalType":"address"}],"outputs":[{"name":"","type":"uint256","internalType":"uint256"}],"stateMutability":"view"},{"type":"function","name":"isIssuer","inputs":[{"name":"","type":"address","internalType":"address"}],"outputs":[{"name":"","type":"uint16","internalType":"uint16"}],"stateMutability":"view"},{"type":"function","name":"issuerData","inputs":[{"name":"","type":"address","internalType":"address"}],"outputs":[{"name":"index","type":"uint256","internalType":"uint256"},{"name":"startingBlock","type":"uint256","internalType":"uint256"},{"name":"expirationBlock","type":"uint256","internalType":"uint256"},{"name":"totalMinted","type":"uint256","internalType":"uint256"},{"name":"mintCount","type":"uint256","internalType":"uint256"},{"name":"burnCount","type":"uint256","internalType":"uint256"},{"name":"totalBurned","type":"uint256","internalType":"uint256"}],"stateMutability":"view"},{"type":"function","name":"issuerInterval","inputs":[],"outputs":[{"name":"","type":"uint256","internalType":"uint256"}],"stateMutability":"view"},{"type":"function","name":"issuers","inputs":[{"name":"","type":"uint256","internalType":"uint256"}],"outputs":[{"name":"","type":"address","internalType":"address"}],"stateMutability":"view"},{"type":"function","name":"maxIssuers","inputs":[],"outputs":[{"name":"","type":"uint256","internalType":"uint256"}],"stateMutability":"view"},{"type":"function","name":"minSupply","inputs":[],"outputs":[{"name":"","type":"uint256","internalType":"uint256"}],"stateMutability":"view"},{"type":"function","name":"mint","inputs":[{"name":"to","type":"address","internalType":"address"},{"name":"userRequestedAmount","type":"uint256","internalType":"uint256"}],"outputs":[],"stateMutability":"nonpayable"},{"type":"function","name":"name","inputs":[],"outputs":[{"name":"","type":"string","internalType":"string"}],"stateMutability":"view"},{"type":"function","name":"nonces","inputs":[{"name":"owner","type":"address","internalType":"address"}],"outputs":[{"name":"","type":"uint256","internalType":"uint256"}],"stateMutability":"view"},{"type":"function","name":"numCheckpoints","inputs":[{"name":"account","type":"address","internalType":"address"}],"outputs":[{"name":"","type":"uint32","internalType":"uint32"}],"stateMutability":"view"},{"type":"function","name":"permit","inputs":[{"name":"owner","type":"address","internalType":"address"},{"name":"spender","type":"address","internalType":"address"},{"name":"value","type":"uint256","internalType":"uint256"},{"name":"deadline","type":"uint256","internalType":"uint256"},{"name":"v","type":"uint8","internalType":"uint8"},{"name":"r","type":"bytes32","internalType":"bytes32"},{"name":"s","type":"bytes32","internalType":"bytes32"}],"outputs":[],"stateMutability":"nonpayable"},{"type":"function","name":"symbol","inputs":[],"outputs":[{"name":"","type":"string","internalType":"string"}],"stateMutability":"view"},{"type":"function","name":"totalIssuers","inputs":[],"outputs":[{"name":"","type":"uint256","internalType":"uint256"}],"stateMutability":"view"},{"type":"function","name":"totalSupply","inputs":[],"outputs":[{"name":"","type":"uint256","internalType":"uint256"}],"stateMutability":"view"},{"type":"function","name":"transfer","inputs":[{"name":"to","type":"address","internalType":"address"},{"name":"value","type":"uint256","internalType":"uint256"}],"outputs":[{"name":"","type":"bool","internalType":"bool"}],"stateMutability":"nonpayable"},{"type":"function","name":"transferFrom","inputs":[{"name":"from","type":"address","internalType":"address"},{"name":"to","type":"address","internalType":"address"},{"name":"value","type":"uint256","internalType":"uint256"}],"outputs":[{"name":"","type":"bool","internalType":"bool"}],"stateMutability":"nonpayable"},{"type":"function","name":"transferIssuerAuthorization","inputs":[{"name":"newIssuer","type":"address","internalType":"address"}],"outputs":[],"stateMutability":"nonpayable"},{"type":"event","name":"Approval","inputs":[{"name":"owner","type":"address","indexed":true,"internalType":"address"},{"name":"spender","type":"address","indexed":true,"internalType":"address"},{"name":"value","type":"uint256","indexed":false,"internalType":"uint256"}],"anonymous":false},{"type":"event","name":"DelegateChanged","inputs":[{"name":"delegator","type":"address","indexed":true,"internalType":"address"},{"name":"fromDelegate","type":"address","indexed":true,"internalType":"address"},{"name":"toDelegate","type":"address","indexed":true,"internalType":"address"}],"anonymous":false},{"type":"event","name":"DelegateVotesChanged","inputs":[{"name":"delegate","type":"address","indexed":true,"internalType":"address"},{"name":"previousVotes","type":"uint256","indexed":false,"internalType":"uint256"},{"name":"newVotes","type":"uint256","indexed":false,"internalType":"uint256"}],"anonymous":false},{"type":"event","name":"EIP712DomainChanged","inputs":[],"anonymous":false},{"type":"event","name":"IssuerActivity","inputs":[{"name":"issuer","type":"address","indexed":true,"internalType":"address"},{"name":"minted","type":"uint256","indexed":false,"internalType":"uint256"},{"name":"burned","type":"uint256","indexed":false,"internalType":"uint256"},{"name":"totalMintedSoFar","type":"uint256","indexed":false,"internalType":"uint256"},{"name":"totalBurnedSoFar","type":"uint256","indexed":false,"internalType":"uint256"}],"anonymous":false},{"type":"event","name":"IssuerAuthorizationTransferred","inputs":[{"name":"oldIssuer","type":"address","indexed":true,"internalType":"address"},{"name":"newIssuer","type":"address","indexed":true,"internalType":"address"},{"name":"issuerIndex","type":"uint256","indexed":false,"internalType":"uint256"}],"anonymous":false},{"type":"event","name":"IssuerAuthorized","inputs":[{"name":"issuer","type":"address","indexed":true,"internalType":"address"},{"name":"expirationBlock","type":"uint256","indexed":false,"internalType":"uint256"}],"anonymous":false},{"type":"event","name":"IssuerDeauthorized","inputs":[{"name":"issuer","type":"address","indexed":true,"internalType":"address"},{"name":"deauthorizer","type":"address","indexed":true,"internalType":"address"}],"anonymous":false},{"type":"event","name":"Transfer","inputs":[{"name":"from","type":"address","indexed":true,"internalType":"address"},{"name":"to","type":"address","indexed":true,"internalType":"address"},{"name":"value","type":"uint256","indexed":false,"internalType":"uint256"}],"anonymous":false},{"type":"error","name":"CheckpointUnorderedInsertion","inputs":[]},{"type":"error","name":"ECDSAInvalidSignature","inputs":[]},{"type":"error","name":"ECDSAInvalidSignatureLength","inputs":[{"name":"length","type":"uint256","internalType":"uint256"}]},{"type":"error","name":"ECDSAInvalidSignatureS","inputs":[{"name":"s","type":"bytes32","internalType":"bytes32"}]},{"type":"error","name":"ERC20ExceededSafeSupply","inputs":[{"name":"increasedSupply","type":"uint256","internalType":"uint256"},{"name":"cap","type":"uint256","internalType":"uint256"}]},{"type":"error","name":"ERC20InsufficientAllowance","inputs":[{"name":"spender","type":"address","internalType":"address"},{"name":"allowance","type":"uint256","internalType":"uint256"},{"name":"needed","type":"uint256","internalType":"uint256"}]},{"type":"error","name":"ERC20InsufficientBalance","inputs":[{"name":"sender","type":"address","internalType":"address"},{"name":"balance","type":"uint256","internalType":"uint256"},{"name":"needed","type":"uint256","internalType":"uint256"}]},{"type":"error","name":"ERC20InvalidApprover","inputs":[{"name":"approver","type":"address","internalType":"address"}]},{"type":"error","name":"ERC20InvalidReceiver","inputs":[{"name":"receiver","type":"address","internalType":"address"}]},{"type":"error","name":"ERC20InvalidSender","inputs":[{"name":"sender","type":"address","internalType":"address"}]},{"type":"error","name":"ERC20InvalidSpender","inputs":[{"name":"spender","type":"address","internalType":"address"}]},{"type":"error","name":"ERC2612ExpiredSignature","inputs":[{"name":"deadline","type":"uint256","internalType":"uint256"}]},{"type":"error","name":"ERC2612InvalidSigner","inputs":[{"name":"signer","type":"address","internalType":"address"},{"name":"owner","type":"address","internalType":"address"}]},{"type":"error","name":"ERC5805FutureLookup","inputs":[{"name":"timepoint","type":"uint256","internalType":"uint256"},{"name":"clock","type":"uint48","internalType":"uint48"}]},{"type":"error","name":"ERC6372InconsistentClock","inputs":[]},{"type":"error","name":"InvalidAccountNonce","inputs":[{"name":"account","type":"address","internalType":"address"},{"name":"currentNonce","type":"uint256","internalType":"uint256"}]},{"type":"error","name":"InvalidShortString","inputs":[]},{"type":"error","name":"SafeCastOverflowedUintDowncast","inputs":[{"name":"bits","type":"uint8","internalType":"uint8"},{"name":"value","type":"uint256","internalType":"uint256"}]},{"type":"error","name":"StringTooLong","inputs":[{"name":"str","type":"string","internalType":"string"}]},{"type":"error","name":"VotesExpiredSignature","inputs":[{"name":"expiry","type":"uint256","internalType":"uint256"}]}],"bytecode":{"object":"0x610160604052348015610010575f5ffd5b5060405180604001604052806013815260200172283ab13634b1902237b6b0b4b7102a37b5b2b760691b81525080604051806040016040528060018152602001603160f81b81525060405180604001604052806013815260200172283ab13634b1902237b6b0b4b7102a37b5b2b760691b8152506040518060400160405280600481526020016314111bd560e21b81525081600390816100b09190610287565b5060046100bd8282610287565b506100cd91508390506005610177565b610120526100dc816006610177565b61014052815160208084019190912060e052815190820120610100524660a05261016860e05161010051604080517f8b73c3c69bb8fe3d512ecc4cf759cc79239f7b179b0ffacaa9a75d522b39400f60208201529081019290925260608201524660808201523060a08201525f9060c00160405160208183030381529060405280519060200120905090565b60805250503060c05250610399565b5f6020835110156101925761018b836101a9565b90506101a3565b8161019d8482610287565b5060ff90505b92915050565b5f5f829050601f815111156101dc578260405163305a27a960e01b81526004016101d39190610341565b60405180910390fd5b80516101e782610376565b179392505050565b634e487b7160e01b5f52604160045260245ffd5b600181811c9082168061021757607f821691505b60208210810361023557634e487b7160e01b5f52602260045260245ffd5b50919050565b601f82111561028257805f5260205f20601f840160051c810160208510156102605750805b601f840160051c820191505b8181101561027f575f815560010161026c565b50505b505050565b81516001600160401b038111156102a0576102a06101ef565b6102b4816102ae8454610203565b8461023b565b6020601f8211600181146102e6575f83156102cf5750848201515b5f19600385901b1c1916600184901b17845561027f565b5f84815260208120601f198516915b8281101561031557878501518255602094850194600190920191016102f5565b508482101561033257868401515f19600387901b60f8161c191681555b50505050600190811b01905550565b602081525f82518060208401528060208501604085015e5f604082850101526040601f19601f83011684010191505092915050565b80516020808301519190811015610235575f1960209190910360031b1b16919050565b60805160a05160c05160e05161010051610120516101405161322f6103ea5f395f611fb701525f611f8a01525f611adb01525f611ab301525f611a0e01525f611a3801525f611a62015261322f5ff3fe608060405234801561000f575f5ffd5b506004361061023f575f3560e01c806384b0196e11610135578063a594da95116100b4578063da6130f511610079578063da6130f51461052e578063dd62ed3e14610541578063e2a4f74114610579578063f1127ed8146105f8578063f63e372d14610637575f5ffd5b8063a594da95146104d8578063a9059cbb146104ed578063afc3c75714610500578063c3cda52014610508578063d505accf1461051b575f5ffd5b80639288bfa8116100fa5780639288bfa8146104a257806395d89b41146104ab5780639819385e146104b35780639ab24eb0146104bd5780639d87b1ac146104d0575f5ffd5b806384b0196e14610415578063877b9a67146104305780638e539e8c146104665780638fe6cae31461047957806391ddadf414610483575f5ffd5b806342966c68116101c157806361ec30c41161018657806361ec30c41461038c5780636fcfff451461039f57806370a08231146103c757806379cc6790146103ef5780637ecebe0014610402575f5ffd5b806342966c6814610308578063436693d51461031b5780634bf5d7e91461032e578063587cde1e146103365780635c19a95c14610379575f5ffd5b8063313ce56711610207578063313ce567146102b65780633644e515146102c55780633a46b1a8146102cd5780633a71daf4146102e057806340c10f19146102f5575f5ffd5b806306fdde03146102435780630927cd0d14610261578063095ea7b31461027857806318160ddd1461029b57806323b872dd146102a3575b5f5ffd5b61024b61064a565b6040516102589190612d69565b60405180910390f35b61026a600b5481565b604051908152602001610258565b61028b610286366004612d96565b6106da565b6040519015158152602001610258565b60025461026a565b61028b6102b1366004612dbe565b6106f3565b60405160128152602001610258565b61026a610716565b61026a6102db366004612d96565b610724565b6102f36102ee366004612df8565b6107a8565b005b6102f3610303366004612d96565b61094f565b6102f3610316366004612e11565b610c4d565b6102f3610329366004612df8565b610d62565b61024b610f7a565b610361610344366004612df8565b6001600160a01b039081165f908152600860205260409020541690565b6040516001600160a01b039091168152602001610258565b6102f3610387366004612df8565b610ff2565b61036161039a366004612e11565b611001565b6103b26103ad366004612df8565b611029565b60405163ffffffff9091168152602001610258565b61026a6103d5366004612df8565b6001600160a01b03165f9081526020819052604090205490565b6102f36103fd366004612d96565b611033565b61026a610410366004612df8565b6110f6565b61041d611100565b6040516102589796959493929190612e28565b61045361043e366004612df8565b600d6020525f908152604090205461ffff1681565b60405161ffff9091168152602001610258565b61026a610474366004612e11565b611142565b61026a620f424081565b61048b6111ab565b60405165ffffffffffff9091168152602001610258565b61026a6103e881565b61024b6111b4565b61026a622819a081565b61026a6104cb366004612df8565b6111c3565b61026a600581565b6104e06111f2565b6040516102589190612ebe565b61028b6104fb366004612d96565b611251565b6102f361125e565b6102f3610516366004612f19565b6113a4565b6102f3610529366004612f6d565b611460565b61026a61053c366004612df8565b611596565b61026a61054f366004612fd3565b6001600160a01b039182165f90815260016020908152604080832093909416825291909152205490565b6105c3610587366004612df8565b600e6020525f90815260409020805460018201546002830154600384015460048501546005860154600690960154949593949293919290919087565b604080519788526020880196909652948601939093526060850191909152608084015260a083015260c082015260e001610258565b61060b610606366004613004565b6115a0565b60408051825165ffffffffffff1681526020928301516001600160d01b03169281019290925201610258565b6102f3610645366004612df8565b6115c4565b60606003805461065990613041565b80601f016020809104026020016040519081016040528092919081815260200182805461068590613041565b80156106d05780601f106106a7576101008083540402835291602001916106d0565b820191905f5260205f20905b8154815290600101906020018083116106b357829003601f168201915b5050505050905090565b5f336106e7818585611918565b60019150505b92915050565b5f3361070085828561192a565b61070b8585856119a5565b506001949350505050565b5f61071f611a02565b905090565b5f5f61072e6111ab565b90508065ffffffffffff16831061076e57604051637669fc0f60e11b81526004810184905265ffffffffffff821660248201526044015b60405180910390fd5b61079761077a84611b2b565b6001600160a01b0386165f90815260096020526040902090611b61565b6001600160d01b0316949350505050565b6001600160a01b0381165f908152600d602052604090205461ffff1660011461081f5760405162461bcd60e51b815260206004820152602360248201527f41646472657373206973206e6f7420616e20617574686f72697a6564206973736044820152623ab2b960e91b6064820152608401610765565b336001600160a01b038216148061085057506001600160a01b0381165f908152600e60205260409020600201544310155b61089c5760405162461bcd60e51b815260206004820152601b60248201527f497373756572207465726d20686173206e6f74206578706972656400000000006044820152606401610765565b6001600160a01b0381165f908152600d60205260408120805461ffff19169055600b8054916108ca8361308d565b91905055506108d881611c11565b60405133906001600160a01b038316907f02c36ff5da6738dbb9919fed63588f28df9d20151ed743eb0009c21317039297905f90a36001600160a01b03165f908152600e60205260408120818155600181018290556002810182905560038101829055600481018290556005810182905560060155565b335f908152600d602052604090205461ffff166001146109815760405162461bcd60e51b8152600401610765906130a2565b335f908152600e602052604090206002015443106109b15760405162461bcd60e51b8152600401610765906130cf565b6001600160a01b038216610a075760405162461bcd60e51b815260206004820152601f60248201527f45524332303a206d696e7420746f20746865207a65726f2061646472657373006044820152606401610765565b306001600160a01b03831603610a725760405162461bcd60e51b815260206004820152602a60248201527f43616e6e6f74206d696e7420746f6b656e7320746f2074686520636f6e7472616044820152696374206164647265737360b01b6064820152608401610765565b5f610a7c60025490565b90508015610adf575f8211610adf5760405162461bcd60e51b8152602060048201526024808201527f4d696e74656420616d6f756e74206d75737420626520677265617465722074686044820152630616e20360e41b6064820152608401610765565b5f610ae933611cf6565b90505f620f4240831015610b0757610b0483620f42406130f7565b90505b825f03610b16575f9350610b85565b610b20828461310a565b610b2b85606461310a565b1115610b855760405162461bcd60e51b8152602060048201526024808201527f4d696e74656420616d6f756e74206578636565647320616c6c6f7761626c65206044820152631b5a5b9d60e21b6064820152608401610765565b5f610b908286613121565b9050610b9c8682611e62565b335f908152600e602052604081206003018054839290610bbd908490613121565b9091555050335f908152600e60205260408120600401805491610bdf83613134565b9091555050335f818152600e6020908152604080832060038101546006909101548251878152938401949094529082015260608101919091527f2c6b67bbb0115d824b2bf0140b6b9bf739dff82b63541c7ac1d7681c917a48229060800160405180910390a2505050505050565b335f908152600d602052604090205461ffff16600114610c7f5760405162461bcd60e51b8152600401610765906130a2565b335f908152600e60205260409020600201544310610caf5760405162461bcd60e51b8152600401610765906130cf565b610cb93382611e96565b335f908152600e602052604081206006018054839290610cda908490613121565b9091555050335f908152600e60205260408120600501805491610cfc83613134565b9091555050335f818152600e60209081526040808320600381015460069091015482519485529284018690529083015260608201527f2c6b67bbb0115d824b2bf0140b6b9bf739dff82b63541c7ac1d7681c917a4822906080015b60405180910390a250565b6001600160a01b0381165f908152600d602052604090205461ffff1615610dcb5760405162461bcd60e51b815260206004820152601d60248201527f4164647265737320697320616c726561647920617574686f72697a65640000006044820152606401610765565b6103e8600b5410610e285760405162461bcd60e51b815260206004820152602160248201527f4d6178696d756d206e756d626572206f662049737375657273207265616368656044820152601960fa1b6064820152608401610765565b600b8054905f610e3783613134565b9091555050600c8054600180820183557fdf6966c971051c3d54ec59162606531493a51404a002842f56009d7e5cf4a8c790910180546001600160a01b0319166001600160a01b0385169081179091555f908152600d602052604090819020805461ffff191683179055805160e0810190915291548291610eb7916130f7565b8152602001438152602001622819a043610ed19190613121565b81525f60208083018290526040808401839052606080850184905260809485018490526001600160a01b038716808552600e84529382902086518155928601516001840155858201516002840181905590860151600384015593850151600483015560a0850151600583015560c09094015160069091015591517fa0d402b55b358dfac53c7d1b3ef26f4e07d706ad2cab4e9540094020ee9a1d9991610d579190815260200190565b6060610f84611eca565b65ffffffffffff16610f946111ab565b65ffffffffffff1614610fba576040516301bfc1c560e61b815260040160405180910390fd5b5060408051808201909152601d81527f6d6f64653d626c6f636b6e756d6265722666726f6d3d64656661756c74000000602082015290565b33610ffd8183611ed4565b5050565b600c8181548110611010575f80fd5b5f918252602090912001546001600160a01b0316905081565b5f6106ed82611f45565b335f908152600d602052604090205461ffff166001146110655760405162461bcd60e51b8152600401610765906130a2565b335f908152600e602052604090206002015443106110955760405162461bcd60e51b8152600401610765906130cf565b6110a082338361192a565b6110aa8282611e96565b335f908152600e6020526040812060060180548392906110cb908490613121565b9091555050335f908152600e602052604081206005018054916110ed83613134565b91905055505050565b5f6106ed82611f66565b5f6060805f5f5f6060611111611f83565b611119611fb0565b604080515f80825260208201909252600f60f81b9b939a50919850469750309650945092509050565b5f5f61114c6111ab565b90508065ffffffffffff16831061118757604051637669fc0f60e11b81526004810184905265ffffffffffff82166024820152604401610765565b61119b61119384611b2b565b600a90611b61565b6001600160d01b03169392505050565b5f61071f611eca565b60606004805461065990613041565b6001600160a01b0381165f9081526009602052604081206111e390611fdd565b6001600160d01b031692915050565b6060600c8054806020026020016040519081016040528092919081815260200182805480156106d057602002820191905f5260205f20905b81546001600160a01b0316815260019091019060200180831161122a575050505050905090565b5f336106e78185856119a5565b600c545b80156113a1575f6112746001836130f7565b9050600e5f600c838154811061128c5761128c61314c565b5f9182526020808320909101546001600160a01b03168352820192909252604001902060020154431061138e575f600c82815481106112cd576112cd61314c565b5f9182526020808320909101546001600160a01b0316808352600d90915260408220805461ffff19169055600b8054919350909161130a8361308d565b919050555061131881611c11565b60405133906001600160a01b038316907f02c36ff5da6738dbb9919fed63588f28df9d20151ed743eb0009c21317039297905f90a36001600160a01b03165f908152600e602052604081208181556001810182905560028101829055600381018290556004810182905560058101829055600601555b50806113998161308d565b915050611262565b50565b834211156113c857604051632341d78760e11b815260048101859052602401610765565b604080517fe48329057bfd03d55e49b547132e39cffd9c1820ad7b9d4c5307691425d15adf60208201526001600160a01b0388169181019190915260608101869052608081018590525f90611441906114399060a00160405160208183030381529060405280519060200120612014565b858585612040565b905061144d818761206c565b6114578188611ed4565b50505050505050565b834211156114845760405163313c898160e11b815260048101859052602401610765565b5f7f6e71edae12b1b97f4d1f60370fef10105fa2faae0126114a169c64845d6126c98888886114cf8c6001600160a01b03165f90815260076020526040902080546001810190915590565b6040805160208101969096526001600160a01b0394851690860152929091166060840152608083015260a082015260c0810186905260e0016040516020818303038152906040528051906020012090505f61152982612014565b90505f61153882878787612040565b9050896001600160a01b0316816001600160a01b03161461157f576040516325c0072360e11b81526001600160a01b0380831660048301528b166024820152604401610765565b61158a8a8a8a611918565b50505050505050505050565b5f6106ed82611cf6565b604080518082019091525f80825260208201526115bd83836120be565b9392505050565b335f908152600d602052604090205461ffff166001146115f65760405162461bcd60e51b8152600401610765906130a2565b335f908152600e602052604090206002015443106116265760405162461bcd60e51b8152600401610765906130cf565b335f908152600d602052604090205461ffff166001146116975760405162461bcd60e51b815260206004820152602660248201527f4d73672e73656e646572206973206e6f7420616e20617574686f72697a65642060448201526534b9b9bab2b960d11b6064820152608401610765565b6001600160a01b0381165f908152600d602052604090205461ffff16156117005760405162461bcd60e51b815260206004820152601d60248201527f4164647265737320697320616c726561647920617574686f72697a65640000006044820152606401610765565b335f908152600e602052604090206002015443106117605760405162461bcd60e51b815260206004820152601760248201527f497373756572207465726d2068617320657870697265640000000000000000006044820152606401610765565b6001600160a01b0381166117ca5760405162461bcd60e51b815260206004820152602b60248201527f43616e6e6f74207472616e7366657220617574686f72697a6174696f6e20746f60448201526a206164647265737328302960a81b6064820152608401610765565b306001600160a01b0382160361183c5760405162461bcd60e51b815260206004820152603160248201527f43616e6e6f74207472616e7366657220617574686f72697a6174696f6e20746f60448201527020636f6e7472616374206164647265737360781b6064820152608401610765565b6040805160e081018252335f818152600e60208181528583208054865260018101805483880152600282018054888a015260038301805460608a015260048401805460808b015260058501805460a08c015260068601805460c08d0152998952600d87529a8820805461ffff19169055959094529185905584905583905582905581905592839055919091556118d282826120f2565b80516040519081526001600160a01b0383169033907fc4ae840bfec93e8c78b22242773f764c63ea7131dcd4f5a3408193968615d8a69060200160405180910390a35050565b611925838383600161219a565b505050565b6001600160a01b038381165f908152600160209081526040808320938616835292905220545f19811461199f578181101561199157604051637dc7a0d960e11b81526001600160a01b03841660048201526024810182905260448101839052606401610765565b61199f84848484035f61219a565b50505050565b6001600160a01b0383166119ce57604051634b637e8f60e11b81525f6004820152602401610765565b6001600160a01b0382166119f75760405163ec442f0560e01b81525f6004820152602401610765565b61192583838361226c565b5f306001600160a01b037f000000000000000000000000000000000000000000000000000000000000000016148015611a5a57507f000000000000000000000000000000000000000000000000000000000000000046145b15611a8457507f000000000000000000000000000000000000000000000000000000000000000090565b61071f604080517f8b73c3c69bb8fe3d512ecc4cf759cc79239f7b179b0ffacaa9a75d522b39400f60208201527f0000000000000000000000000000000000000000000000000000000000000000918101919091527f000000000000000000000000000000000000000000000000000000000000000060608201524660808201523060a08201525f9060c00160405160208183030381529060405280519060200120905090565b5f65ffffffffffff821115611b5d576040516306dfcc6560e41b81526030600482015260248101839052604401610765565b5090565b81545f9081816005811115611bbd575f611b7a846122db565b611b8490856130f7565b5f8881526020902090915081015465ffffffffffff9081169087161015611bad57809150611bbb565b611bb8816001613121565b92505b505b5f611bca87878585612433565b90508015611c0457611bee87611be16001846130f7565b5f91825260209091200190565b54600160301b90046001600160d01b0316611c06565b5f5b979650505050505050565b6001600160a01b0381165f908152600e6020526040812054600c54909190611c3b906001906130f7565b9050808214611cc0575f600c8281548110611c5857611c5861314c565b5f91825260209091200154600c80546001600160a01b039092169250829185908110611c8657611c8661314c565b5f91825260208083209190910180546001600160a01b0319166001600160a01b03948516179055929091168152600e909152604090208290555b600c805480611cd157611cd1613160565b5f8281526020902081015f1990810180546001600160a01b0319169055019055505050565b6001600160a01b0381165f908152600e602052604081206003810154600482015460058301546006909301549192909184611d3060025490565b9050805f03611d46575060059695505050505050565b5f8415611d6f5784611d60670de0b6b3a76400008861310a565b611d6a9190613188565b611d71565b5f5b90505f8415611d9c5784611d8d670de0b6b3a76400008661310a565b611d979190613188565b611d9e565b5f5b90505f611db384670de0b6b3a764000061310a565b611dbe84606461310a565b611dc89190613188565b90505f60058210611dda57505f611de8565b611de58260056130f7565b90505b5f868a11611dfe57611dfb600182613121565b90505b838511611e1357611e10600182613121565b90505b60028311611e2957611e26600182613121565b90505b5f611e348284613121565b90506005811115611e52575060059c9b505050505050505050505050565b9c9b505050505050505050505050565b6001600160a01b038216611e8b5760405163ec442f0560e01b81525f6004820152602401610765565b610ffd5f838361226c565b6001600160a01b038216611ebf57604051634b637e8f60e11b81525f6004820152602401610765565b610ffd825f8361226c565b5f61071f43611b2b565b6001600160a01b038281165f8181526008602052604080822080548686166001600160a01b0319821681179092559151919094169392849290917f3134e8a2e6d97e929a7e54011ea5485d7d196dd5f0ba4d4ef95803e8e3fc257f9190a46119258183611f4086612492565b6124af565b6001600160a01b0381165f908152600960205260408120546106ed90612618565b6001600160a01b0381165f908152600760205260408120546106ed565b606061071f7f00000000000000000000000000000000000000000000000000000000000000006005612648565b606061071f7f00000000000000000000000000000000000000000000000000000000000000006006612648565b80545f90801561200c57611ff683611be16001846130f7565b54600160301b90046001600160d01b03166115bd565b5f9392505050565b5f6106ed612020611a02565b8360405161190160f01b8152600281019290925260228201526042902090565b5f5f5f5f612050888888886126f1565b92509250925061206082826127b9565b50909695505050505050565b6001600160a01b0382165f908152600760205260409020805460018101909155818114611925576040516301d4b62360e61b81526001600160a01b038416600482015260248101829052604401610765565b604080518082019091525f80825260208201526001600160a01b0383165f9081526009602052604090206115bd9083612871565b81600c825f0151815481106121095761210961314c565b5f91825260208083209190910180546001600160a01b0319166001600160a01b03948516179055939091168152600e835260408082208351815583850151600182810191909155848301516002830155606085015160038301556080850151600483015560a0850151600583015560c090940151600690910155600d90935291909120805461ffff19169091179055565b6001600160a01b0384166121c35760405163e602df0560e01b81525f6004820152602401610765565b6001600160a01b0383166121ec57604051634a1406b160e11b81525f6004820152602401610765565b6001600160a01b038085165f908152600160209081526040808320938716835292905220829055801561199f57826001600160a01b0316846001600160a01b03167f8c5be1e5ebec7d5bd14f71427d1e84f3dd0314c0f7b2291e5b200ac8c7c3b9258460405161225e91815260200190565b60405180910390a350505050565b306001600160a01b038316036122d05760405162461bcd60e51b815260206004820152602360248201527f43616e6e6f74207472616e7366657220746f20636f6e7472616374206164647260448201526265737360e81b6064820152608401610765565b6119258383836128de565b5f600182116122e8575090565b816001600160801b82106123015760809190911c9060401b5b68010000000000000000821061231c5760409190911c9060201b5b64010000000082106123335760209190911c9060101b5b6201000082106123485760109190911c9060081b5b610100821061235c5760089190911c9060041b5b6010821061236f5760049190911c9060021b5b6004821061237b5760011b5b600302600190811c9081858161239357612393613174565b048201901c905060018185816123ab576123ab613174565b048201901c905060018185816123c3576123c3613174565b048201901c905060018185816123db576123db613174565b048201901c905060018185816123f3576123f3613174565b048201901c9050600181858161240b5761240b613174565b048201901c905061242a81858161242457612424613174565b04821190565b90039392505050565b5f5b8183101561248a575f6124488484612944565b5f8781526020902090915065ffffffffffff86169082015465ffffffffffff16111561247657809250612484565b612481816001613121565b93505b50612435565b509392505050565b6001600160a01b0381165f908152602081905260408120546106ed565b816001600160a01b0316836001600160a01b0316141580156124d057505f81115b15611925576001600160a01b03831615612577576001600160a01b0383165f90815260096020526040812081906125129061295e61250d86612969565b61299c565b6001600160d01b031691506001600160d01b03169150846001600160a01b03167fdec2bacdd2f05b59de34da9b523dff8be42e5e38e818c82fdb0bae774387a724838360405161256c929190918252602082015260400190565b60405180910390a250505b6001600160a01b03821615611925576001600160a01b0382165f90815260096020526040812081906125af906129d461250d86612969565b6001600160d01b031691506001600160d01b03169150836001600160a01b03167fdec2bacdd2f05b59de34da9b523dff8be42e5e38e818c82fdb0bae774387a7248383604051612609929190918252602082015260400190565b60405180910390a25050505050565b5f63ffffffff821115611b5d576040516306dfcc6560e41b81526020600482015260248101839052604401610765565b606060ff83146126625761265b836129df565b90506106ed565b81805461266e90613041565b80601f016020809104026020016040519081016040528092919081815260200182805461269a90613041565b80156126e55780601f106126bc576101008083540402835291602001916126e5565b820191905f5260205f20905b8154815290600101906020018083116126c857829003601f168201915b505050505090506106ed565b5f80807f7fffffffffffffffffffffffffffffff5d576e7357a4501ddfe92f46681b20a084111561272a57505f915060039050826127af565b604080515f808252602082018084528a905260ff891692820192909252606081018790526080810186905260019060a0016020604051602081039080840390855afa15801561277b573d5f5f3e3d5ffd5b5050604051601f1901519150506001600160a01b0381166127a657505f9250600191508290506127af565b92505f91508190505b9450945094915050565b5f8260038111156127cc576127cc6131a7565b036127d5575050565b60018260038111156127e9576127e96131a7565b036128075760405163f645eedf60e01b815260040160405180910390fd5b600282600381111561281b5761281b6131a7565b0361283c5760405163fce698f760e01b815260048101829052602401610765565b6003826003811115612850576128506131a7565b03610ffd576040516335e2f38360e21b815260048101829052602401610765565b604080518082019091525f8082526020820152825f018263ffffffff168154811061289e5761289e61314c565b5f9182526020918290206040805180820190915291015465ffffffffffff81168252600160301b90046001600160d01b0316918101919091529392505050565b6128e9838383612a1c565b6001600160a01b038316612939575f61290160025490565b90506001600160d01b038082111561293657604051630e58ae9360e11b81526004810183905260248101829052604401610765565b50505b611925838383612b42565b5f6129526002848418613188565b6115bd90848416613121565b5f6115bd82846131bb565b5f6001600160d01b03821115611b5d576040516306dfcc6560e41b815260d0600482015260248101839052604401610765565b5f5f6129c76129a96111ab565b6129bf6129b588611fdd565b868863ffffffff16565b879190612bb7565b915091505b935093915050565b5f6115bd82846131da565b60605f6129eb83612bc4565b6040805160208082528183019092529192505f91906020820181803683375050509182525060208101929092525090565b6001600160a01b038316612a46578060025f828254612a3b9190613121565b90915550612ab69050565b6001600160a01b0383165f9081526020819052604090205481811015612a985760405163391434e360e21b81526001600160a01b03851660048201526024810182905260448101839052606401610765565b6001600160a01b0384165f9081526020819052604090209082900390555b6001600160a01b038216612ad257600280548290039055612af0565b6001600160a01b0382165f9081526020819052604090208054820190555b816001600160a01b0316836001600160a01b03167fddf252ad1be2c89b69c2b068fc378daa952ba7f163c4a11628f55a4df523b3ef83604051612b3591815260200190565b60405180910390a3505050565b6001600160a01b038316612b6457612b61600a6129d461250d84612969565b50505b6001600160a01b038216612b8657612b83600a61295e61250d84612969565b50505b6001600160a01b038381165f90815260086020526040808220548584168352912054611925929182169116836124af565b5f806129c7858585612beb565b5f60ff8216601f8111156106ed57604051632cd44ac360e21b815260040160405180910390fd5b82545f9081908015612ce1575f612c0787611be16001856130f7565b805490915065ffffffffffff80821691600160301b90046001600160d01b0316908816821115612c4a57604051632520601d60e01b815260040160405180910390fd5b8765ffffffffffff168265ffffffffffff1603612c8357825465ffffffffffff16600160301b6001600160d01b03891602178355612cd3565b6040805180820190915265ffffffffffff808a1682526001600160d01b03808a1660208085019182528d54600181018f555f8f81529190912094519151909216600160301b029216919091179101555b94508593506129cc92505050565b50506040805180820190915265ffffffffffff80851682526001600160d01b0380851660208085019182528854600181018a555f8a815291822095519251909316600160301b0291909316179201919091559050816129cc565b5f81518084528060208401602086015e5f602082860101526020601f19601f83011685010191505092915050565b602081525f6115bd6020830184612d3b565b80356001600160a01b0381168114612d91575f5ffd5b919050565b5f5f60408385031215612da7575f5ffd5b612db083612d7b565b946020939093013593505050565b5f5f5f60608486031215612dd0575f5ffd5b612dd984612d7b565b9250612de760208501612d7b565b929592945050506040919091013590565b5f60208284031215612e08575f5ffd5b6115bd82612d7b565b5f60208284031215612e21575f5ffd5b5035919050565b60ff60f81b8816815260e060208201525f612e4660e0830189612d3b565b8281036040840152612e588189612d3b565b606084018890526001600160a01b038716608085015260a0840186905283810360c0850152845180825260208087019350909101905f5b81811015612ead578351835260209384019390920191600101612e8f565b50909b9a5050505050505050505050565b602080825282518282018190525f918401906040840190835b81811015612efe5783516001600160a01b0316835260209384019390920191600101612ed7565b509095945050505050565b803560ff81168114612d91575f5ffd5b5f5f5f5f5f5f60c08789031215612f2e575f5ffd5b612f3787612d7b565b95506020870135945060408701359350612f5360608801612f09565b9598949750929560808101359460a0909101359350915050565b5f5f5f5f5f5f5f60e0888a031215612f83575f5ffd5b612f8c88612d7b565b9650612f9a60208901612d7b565b95506040880135945060608801359350612fb660808901612f09565b9699959850939692959460a0840135945060c09093013592915050565b5f5f60408385031215612fe4575f5ffd5b612fed83612d7b565b9150612ffb60208401612d7b565b90509250929050565b5f5f60408385031215613015575f5ffd5b61301e83612d7b565b9150602083013563ffffffff81168114613036575f5ffd5b809150509250929050565b600181811c9082168061305557607f821691505b60208210810361307357634e487b7160e01b5f52602260045260245ffd5b50919050565b634e487b7160e01b5f52601160045260245ffd5b5f8161309b5761309b613079565b505f190190565b6020808252601390820152722ab730baba3437b934bd32b21024b9b9bab2b960691b604082015260600190565b6020808252600e908201526d22bc3834b932b21024b9b9bab2b960911b604082015260600190565b818103818111156106ed576106ed613079565b80820281158282048414176106ed576106ed613079565b808201808211156106ed576106ed613079565b5f6001820161314557613145613079565b5060010190565b634e487b7160e01b5f52603260045260245ffd5b634e487b7160e01b5f52603160045260245ffd5b634e487b7160e01b5f52601260045260245ffd5b5f826131a257634e487b7160e01b5f52601260045260245ffd5b500490565b634e487b7160e01b5f52602160045260245ffd5b6001600160d01b0382811682821603908111156106ed576106ed613079565b6001600160d01b0381811683821601908111156106ed576106ed61307956fea2646970667358221220465569045dee54e02357df50a3104bccd26e0d0bc9d134cd22c211a52c118b7764736f6c634300081c0033","linkReferences":{}},"methodIdentifiers":{"CLOCK_MODE()":"4bf5d7e9","DOMAIN_SEPARATOR()":"3644e515","allowance(address,address)":"dd62ed3e","approve(address,uint256)":"095ea7b3","authorizeIssuer(address)":"436693d5","balanceOf(address)":"70a08231","baseMintFactor()":"9d87b1ac","burn(uint256)":"42966c68","burnFrom(address,uint256)":"79cc6790","checkpoints(address,uint32)":"f1127ed8","clock()":"91ddadf4","deauthorizeAllExpiredIssuers()":"afc3c757","deauthorizeIssuer(address)":"3a71daf4","decimals()":"313ce567","delegate(address)":"5c19a95c","delegateBySig(address,uint256,uint256,uint8,bytes32,bytes32)":"c3cda520","delegates(address)":"587cde1e","eip712Domain()":"84b0196e","getIssuerMintFactor(address)":"da6130f5","getIssuers()":"a594da95","getPastTotalSupply(uint256)":"8e539e8c","getPastVotes(address,uint256)":"3a46b1a8","getVotes(address)":"9ab24eb0","isIssuer(address)":"877b9a67","issuerData(address)":"e2a4f741","issuerInterval()":"9819385e","issuers(uint256)":"61ec30c4","maxIssuers()":"9288bfa8","minSupply()":"8fe6cae3","mint(address,uint256)":"40c10f19","name()":"06fdde03","nonces(address)":"7ecebe00","numCheckpoints(address)":"6fcfff45","permit(address,address,uint256,uint256,uint8,bytes32,bytes32)":"d505accf","symbol()":"95d89b41","totalIssuers()":"0927cd0d","totalSupply()":"18160ddd","transfer(address,uint256)":"a9059cbb","transferFrom(address,address,uint256)":"23b872dd","transferIssuerAuthorization(address)":"f63e372d"},"id":53}