{"abi":[{"type":"constructor","inputs":[],"stateMutability":"nonpayable"},{"type":"function","name":"CLOCK_MODE","inputs":[],"outputs":[{"name":"","type":"string","internalType":"string"}],"stateMutability":"view"},{"type":"function","name":"DOMAIN_SEPARATOR","inputs":[],"outputs":[{"name":"","type":"bytes32","internalType":"bytes32"}],"stateMutability":"view"},{"type":"function","name":"allowance","inputs":[{"name":"owner","type":"address","internalType":"address"},{"name":"spender","type":"address","internalType":"address"}],"outputs":[{"name":"","type":"uint256","internalType":"uint256"}],"stateMutability":"view"},{"type":"function","name":"approve","inputs":[{"name":"spender","type":"address","internalType":"address"},{"name":"value","type":"uint256","internalType":"uint256"}],"outputs":[{"name":"","type":"bool","internalType":"bool"}],"stateMutability":"nonpayable"},{"type":"function","name":"authorizeIssuer","inputs":[{"name":"newIssuer","type":"address","internalType":"address"}],"outputs":[],"stateMutability":"nonpayable"},{"type":"function","name":"balanceOf","inputs":[{"name":"account","type":"address","internalType":"address"}],"outputs":[{"name":"","type":"uint256","internalType":"uint256"}],"stateMutability":"view"},{"type":"function","name":"baseMintFactor","inputs":[],"outputs":[{"name":"","type":"uint256","internalType":"uint256"}],"stateMutability":"view"},{"type":"function","name":"burn","inputs":[{"name":"amount","type":"uint256","internalType":"uint256"}],"outputs":[],"stateMutability":"nonpayable"},{"type":"function","name":"burnFrom","inputs":[{"name":"account","type":"address","internalType":"address"},{"name":"amount","type":"uint256","internalType":"uint256"}],"outputs":[],"stateMutability":"nonpayable"},{"type":"function","name":"checkpoints","inputs":[{"name":"account","type":"address","internalType":"address"},{"name":"pos","type":"uint32","internalType":"uint32"}],"outputs":[{"name":"","type":"tuple","internalType":"struct Checkpoints.Checkpoint208","components":[{"name":"_key","type":"uint48","internalType":"uint48"},{"name":"_value","type":"uint208","internalType":"uint208"}]}],"stateMutability":"view"},{"type":"function","name":"clock","inputs":[],"outputs":[{"name":"","type":"uint48","internalType":"uint48"}],"stateMutability":"view"},{"type":"function","name":"deauthorizeAllExpiredIssuers","inputs":[],"outputs":[],"stateMutability":"nonpayable"},{"type":"function","name":"deauthorizeIssuer","inputs":[{"name":"existingIssuer","type":"address","internalType":"address"}],"outputs":[],"stateMutability":"nonpayable"},{"type":"function","name":"decimals","inputs":[],"outputs":[{"name":"","type":"uint8","internalType":"uint8"}],"stateMutability":"view"},{"type":"function","name":"delegate","inputs":[{"name":"delegatee","type":"address","internalType":"address"}],"outputs":[],"stateMutability":"nonpayable"},{"type":"function","name":"delegateBySig","inputs":[{"name":"delegatee","type":"address","internalType":"address"},{"name":"nonce","type":"uint256","internalType":"uint256"},{"name":"expiry","type":"uint256","internalType":"uint256"},{"name":"v","type":"uint8","internalType":"uint8"},{"name":"r","type":"bytes32","internalType":"bytes32"},{"name":"s","type":"bytes32","internalType":"bytes32"}],"outputs":[],"stateMutability":"nonpayable"},{"type":"function","name":"delegates","inputs":[{"name":"account","type":"address","internalType":"address"}],"outputs":[{"name":"","type":"address","internalType":"address"}],"stateMutability":"view"},{"type":"function","name":"eip712Domain","inputs":[],"outputs":[{"name":"fields","type":"bytes1","internalType":"bytes1"},{"name":"name","type":"string","internalType":"string"},{"name":"version","type":"string","internalType":"string"},{"name":"chainId","type":"uint256","internalType":"uint256"},{"name":"verifyingContract","type":"address","internalType":"address"},{"name":"salt","type":"bytes32","internalType":"bytes32"},{"name":"extensions","type":"uint256[]","internalType":"uint256[]"}],"stateMutability":"view"},{"type":"function","name":"getExpiredIssuers","inputs":[],"outputs":[{"name":"","type":"address[]","internalType":"address[]"}],"stateMutability":"view"},{"type":"function","name":"getIssuerMintFactor","inputs":[{"name":"_issuerAddress","type":"address","internalType":"address"}],"outputs":[{"name":"","type":"uint256","internalType":"uint256"}],"stateMutability":"view"},{"type":"function","name":"getIssuers","inputs":[],"outputs":[{"name":"","type":"address[]","internalType":"address[]"}],"stateMutability":"view"},{"type":"function","name":"getPastTotalSupply","inputs":[{"name":"timepoint","type":"uint256","internalType":"uint256"}],"outputs":[{"name":"","type":"uint256","internalType":"uint256"}],"stateMutability":"view"},{"type":"function","name":"getPastVotes","inputs":[{"name":"account","type":"address","internalType":"address"},{"name":"timepoint","type":"uint256","internalType":"uint256"}],"outputs":[{"name":"","type":"uint256","internalType":"uint256"}],"stateMutability":"view"},{"type":"function","name":"getVotes","inputs":[{"name":"account","type":"address","internalType":"address"}],"outputs":[{"name":"","type":"uint256","internalType":"uint256"}],"stateMutability":"view"},{"type":"function","name":"isIssuer","inputs":[{"name":"","type":"address","internalType":"address"}],"outputs":[{"name":"","type":"uint16","internalType":"uint16"}],"stateMutability":"view"},{"type":"function","name":"issuerData","inputs":[{"name":"","type":"address","internalType":"address"}],"outputs":[{"name":"index","type":"uint256","internalType":"uint256"},{"name":"startingBlock","type":"uint256","internalType":"uint256"},{"name":"expirationBlock","type":"uint256","internalType":"uint256"},{"name":"totalMinted","type":"uint256","internalType":"uint256"},{"name":"mintCount","type":"uint256","internalType":"uint256"},{"name":"burnCount","type":"uint256","internalType":"uint256"},{"name":"totalBurned","type":"uint256","internalType":"uint256"}],"stateMutability":"view"},{"type":"function","name":"issuerInterval","inputs":[],"outputs":[{"name":"","type":"uint256","internalType":"uint256"}],"stateMutability":"view"},{"type":"function","name":"issuers","inputs":[{"name":"","type":"uint256","internalType":"uint256"}],"outputs":[{"name":"","type":"address","internalType":"address"}],"stateMutability":"view"},{"type":"function","name":"maxIssuers","inputs":[],"outputs":[{"name":"","type":"uint256","internalType":"uint256"}],"stateMutability":"view"},{"type":"function","name":"minSupply","inputs":[],"outputs":[{"name":"","type":"uint256","internalType":"uint256"}],"stateMutability":"view"},{"type":"function","name":"mint","inputs":[{"name":"to","type":"address","internalType":"address"},{"name":"userRequestedAmount","type":"uint256","internalType":"uint256"}],"outputs":[],"stateMutability":"nonpayable"},{"type":"function","name":"name","inputs":[],"outputs":[{"name":"","type":"string","internalType":"string"}],"stateMutability":"view"},{"type":"function","name":"nonces","inputs":[{"name":"owner","type":"address","internalType":"address"}],"outputs":[{"name":"","type":"uint256","internalType":"uint256"}],"stateMutability":"view"},{"type":"function","name":"numCheckpoints","inputs":[{"name":"account","type":"address","internalType":"address"}],"outputs":[{"name":"","type":"uint32","internalType":"uint32"}],"stateMutability":"view"},{"type":"function","name":"permit","inputs":[{"name":"owner","type":"address","internalType":"address"},{"name":"spender","type":"address","internalType":"address"},{"name":"value","type":"uint256","internalType":"uint256"},{"name":"deadline","type":"uint256","internalType":"uint256"},{"name":"v","type":"uint8","internalType":"uint8"},{"name":"r","type":"bytes32","internalType":"bytes32"},{"name":"s","type":"bytes32","internalType":"bytes32"}],"outputs":[],"stateMutability":"nonpayable"},{"type":"function","name":"symbol","inputs":[],"outputs":[{"name":"","type":"string","internalType":"string"}],"stateMutability":"view"},{"type":"function","name":"totalIssuers","inputs":[],"outputs":[{"name":"","type":"uint256","internalType":"uint256"}],"stateMutability":"view"},{"type":"function","name":"totalSupply","inputs":[],"outputs":[{"name":"","type":"uint256","internalType":"uint256"}],"stateMutability":"view"},{"type":"function","name":"transfer","inputs":[{"name":"to","type":"address","internalType":"address"},{"name":"value","type":"uint256","internalType":"uint256"}],"outputs":[{"name":"","type":"bool","internalType":"bool"}],"stateMutability":"nonpayable"},{"type":"function","name":"transferFrom","inputs":[{"name":"from","type":"address","internalType":"address"},{"name":"to","type":"address","internalType":"address"},{"name":"value","type":"uint256","internalType":"uint256"}],"outputs":[{"name":"","type":"bool","internalType":"bool"}],"stateMutability":"nonpayable"},{"type":"function","name":"transferIssuerAuthorization","inputs":[{"name":"newIssuer","type":"address","internalType":"address"}],"outputs":[],"stateMutability":"nonpayable"},{"type":"event","name":"Approval","inputs":[{"name":"owner","type":"address","indexed":true,"internalType":"address"},{"name":"spender","type":"address","indexed":true,"internalType":"address"},{"name":"value","type":"uint256","indexed":false,"internalType":"uint256"}],"anonymous":false},{"type":"event","name":"DelegateChanged","inputs":[{"name":"delegator","type":"address","indexed":true,"internalType":"address"},{"name":"fromDelegate","type":"address","indexed":true,"internalType":"address"},{"name":"toDelegate","type":"address","indexed":true,"internalType":"address"}],"anonymous":false},{"type":"event","name":"DelegateVotesChanged","inputs":[{"name":"delegate","type":"address","indexed":true,"internalType":"address"},{"name":"previousVotes","type":"uint256","indexed":false,"internalType":"uint256"},{"name":"newVotes","type":"uint256","indexed":false,"internalType":"uint256"}],"anonymous":false},{"type":"event","name":"EIP712DomainChanged","inputs":[],"anonymous":false},{"type":"event","name":"IssuerActivity","inputs":[{"name":"issuer","type":"address","indexed":true,"internalType":"address"},{"name":"minted","type":"uint256","indexed":false,"internalType":"uint256"},{"name":"burned","type":"uint256","indexed":false,"internalType":"uint256"},{"name":"totalMintedSoFar","type":"uint256","indexed":false,"internalType":"uint256"},{"name":"totalBurnedSoFar","type":"uint256","indexed":false,"internalType":"uint256"}],"anonymous":false},{"type":"event","name":"IssuerAuthorizationTransferred","inputs":[{"name":"oldIssuer","type":"address","indexed":true,"internalType":"address"},{"name":"newIssuer","type":"address","indexed":true,"internalType":"address"},{"name":"issuerIndex","type":"uint256","indexed":false,"internalType":"uint256"}],"anonymous":false},{"type":"event","name":"IssuerAuthorized","inputs":[{"name":"issuer","type":"address","indexed":true,"internalType":"address"},{"name":"expirationBlock","type":"uint256","indexed":false,"internalType":"uint256"}],"anonymous":false},{"type":"event","name":"IssuerDeauthorized","inputs":[{"name":"issuer","type":"address","indexed":true,"internalType":"address"},{"name":"deauthorizer","type":"address","indexed":true,"internalType":"address"}],"anonymous":false},{"type":"event","name":"Transfer","inputs":[{"name":"from","type":"address","indexed":true,"internalType":"address"},{"name":"to","type":"address","indexed":true,"internalType":"address"},{"name":"value","type":"uint256","indexed":false,"internalType":"uint256"}],"anonymous":false},{"type":"error","name":"CheckpointUnorderedInsertion","inputs":[]},{"type":"error","name":"ECDSAInvalidSignature","inputs":[]},{"type":"error","name":"ECDSAInvalidSignatureLength","inputs":[{"name":"length","type":"uint256","internalType":"uint256"}]},{"type":"error","name":"ECDSAInvalidSignatureS","inputs":[{"name":"s","type":"bytes32","internalType":"bytes32"}]},{"type":"error","name":"ERC20ExceededSafeSupply","inputs":[{"name":"increasedSupply","type":"uint256","internalType":"uint256"},{"name":"cap","type":"uint256","internalType":"uint256"}]},{"type":"error","name":"ERC20InsufficientAllowance","inputs":[{"name":"spender","type":"address","internalType":"address"},{"name":"allowance","type":"uint256","internalType":"uint256"},{"name":"needed","type":"uint256","internalType":"uint256"}]},{"type":"error","name":"ERC20InsufficientBalance","inputs":[{"name":"sender","type":"address","internalType":"address"},{"name":"balance","type":"uint256","internalType":"uint256"},{"name":"needed","type":"uint256","internalType":"uint256"}]},{"type":"error","name":"ERC20InvalidApprover","inputs":[{"name":"approver","type":"address","internalType":"address"}]},{"type":"error","name":"ERC20InvalidReceiver","inputs":[{"name":"receiver","type":"address","internalType":"address"}]},{"type":"error","name":"ERC20InvalidSender","inputs":[{"name":"sender","type":"address","internalType":"address"}]},{"type":"error","name":"ERC20InvalidSpender","inputs":[{"name":"spender","type":"address","internalType":"address"}]},{"type":"error","name":"ERC2612ExpiredSignature","inputs":[{"name":"deadline","type":"uint256","internalType":"uint256"}]},{"type":"error","name":"ERC2612InvalidSigner","inputs":[{"name":"signer","type":"address","internalType":"address"},{"name":"owner","type":"address","internalType":"address"}]},{"type":"error","name":"ERC5805FutureLookup","inputs":[{"name":"timepoint","type":"uint256","internalType":"uint256"},{"name":"clock","type":"uint48","internalType":"uint48"}]},{"type":"error","name":"ERC6372InconsistentClock","inputs":[]},{"type":"error","name":"InvalidAccountNonce","inputs":[{"name":"account","type":"address","internalType":"address"},{"name":"currentNonce","type":"uint256","internalType":"uint256"}]},{"type":"error","name":"InvalidShortString","inputs":[]},{"type":"error","name":"SafeCastOverflowedUintDowncast","inputs":[{"name":"bits","type":"uint8","internalType":"uint8"},{"name":"value","type":"uint256","internalType":"uint256"}]},{"type":"error","name":"StringTooLong","inputs":[{"name":"str","type":"string","internalType":"string"}]},{"type":"error","name":"VotesExpiredSignature","inputs":[{"name":"expiry","type":"uint256","internalType":"uint256"}]}],"bytecode":{"object":"0x610160604052348015610010575f5ffd5b5060405180604001604052806013815260200172283ab13634b1902237b6b0b4b7102a37b5b2b760691b81525080604051806040016040528060018152602001603160f81b81525060405180604001604052806013815260200172283ab13634b1902237b6b0b4b7102a37b5b2b760691b8152506040518060400160405280600481526020016314111bd560e21b81525081600390816100b09190610287565b5060046100bd8282610287565b506100cd91508390506005610177565b610120526100dc816006610177565b61014052815160208084019190912060e052815190820120610100524660a05261016860e05161010051604080517f8b73c3c69bb8fe3d512ecc4cf759cc79239f7b179b0ffacaa9a75d522b39400f60208201529081019290925260608201524660808201523060a08201525f9060c00160405160208183030381529060405280519060200120905090565b60805250503060c05250610399565b5f6020835110156101925761018b836101a9565b90506101a3565b8161019d8482610287565b5060ff90505b92915050565b5f5f829050601f815111156101dc578260405163305a27a960e01b81526004016101d39190610341565b60405180910390fd5b80516101e782610376565b179392505050565b634e487b7160e01b5f52604160045260245ffd5b600181811c9082168061021757607f821691505b60208210810361023557634e487b7160e01b5f52602260045260245ffd5b50919050565b601f82111561028257805f5260205f20601f840160051c810160208510156102605750805b601f840160051c820191505b8181101561027f575f815560010161026c565b50505b505050565b81516001600160401b038111156102a0576102a06101ef565b6102b4816102ae8454610203565b8461023b565b6020601f8211600181146102e6575f83156102cf5750848201515b5f19600385901b1c1916600184901b17845561027f565b5f84815260208120601f198516915b8281101561031557878501518255602094850194600190920191016102f5565b508482101561033257868401515f19600387901b60f8161c191681555b50505050600190811b01905550565b602081525f82518060208401528060208501604085015e5f604082850101526040601f19601f83011684010191505092915050565b80516020808301519190811015610235575f1960209190910360031b1b16919050565b60805160a05160c05160e05161010051610120516101405161335f6103ea5f395f6120e701525f6120ba01525f611c0b01525f611be301525f611b3e01525f611b6801525f611b92015261335f5ff3fe608060405234801561000f575f5ffd5b506004361061024a575f3560e01c806384b0196e11610140578063a594da95116100bf578063da6130f511610084578063da6130f514610537578063dd62ed3e1461054a578063e09917c314610582578063e2a4f7411461058a578063f1127ed814610609578063f63e372d14610648575f5ffd5b8063a594da95146104e1578063a9059cbb146104f6578063afc3c75714610509578063c3cda52014610511578063d505accf14610524575f5ffd5b80639288bfa8116101055780639288bfa8146104ab57806395d89b41146104b45780639819385e146104bc5780639ab24eb0146104c65780639d87b1ac146104d9575f5ffd5b806384b0196e14610420578063877b9a671461043b5780638e539e8c146104715780638fe6cae31461048457806391ddadf41461048c575f5ffd5b806342966c68116101cc57806361ec30c41161019157806361ec30c4146103975780636fcfff45146103aa57806370a08231146103d257806379cc6790146103fa5780637ecebe001461040d575f5ffd5b806342966c6814610313578063436693d5146103265780634bf5d7e914610339578063587cde1e146103415780635c19a95c14610384575f5ffd5b8063313ce56711610212578063313ce567146102c15780633644e515146102d05780633a46b1a8146102d85780633a71daf4146102eb57806340c10f1914610300575f5ffd5b806306fdde031461024e5780630927cd0d1461026c578063095ea7b31461028357806318160ddd146102a657806323b872dd146102ae575b5f5ffd5b61025661065b565b6040516102639190612e99565b60405180910390f35b610275600b5481565b604051908152602001610263565b610296610291366004612ec6565b6106eb565b6040519015158152602001610263565b600254610275565b6102966102bc366004612eee565b610704565b60405160128152602001610263565b610275610727565b6102756102e6366004612ec6565b610735565b6102fe6102f9366004612f28565b6107b9565b005b6102fe61030e366004612ec6565b610960565b6102fe610321366004612f41565b610c82565b6102fe610334366004612f28565b610d97565b610256610faf565b61036c61034f366004612f28565b6001600160a01b039081165f908152600860205260409020541690565b6040516001600160a01b039091168152602001610263565b6102fe610392366004612f28565b611027565b61036c6103a5366004612f41565b611036565b6103bd6103b8366004612f28565b61105e565b60405163ffffffff9091168152602001610263565b6102756103e0366004612f28565b6001600160a01b03165f9081526020819052604090205490565b6102fe610408366004612ec6565b611068565b61027561041b366004612f28565b61112b565b610428611135565b6040516102639796959493929190612f58565b61045e610449366004612f28565b600d6020525f908152604090205461ffff1681565b60405161ffff9091168152602001610263565b61027561047f366004612f41565b611177565b6102756111e0565b6104946111f8565b60405165ffffffffffff9091168152602001610263565b6102756103e881565b610256611201565b610275622819a081565b6102756104d4366004612f28565b611210565b610275600581565b6104e961123f565b6040516102639190612fee565b610296610504366004612ec6565b61129e565b6102fe6112ab565b6102fe61051f366004613049565b6113f1565b6102fe61053236600461309d565b6114ad565b610275610545366004612f28565b6115e3565b610275610558366004613103565b6001600160a01b039182165f90815260016020908152604080832093909416825291909152205490565b6104e96115ed565b6105d4610598366004612f28565b600e6020525f90815260409020805460018201546002830154600384015460048501546005860154600690960154949593949293919290919087565b604080519788526020880196909652948601939093526060850191909152608084015260a083015260c082015260e001610263565b61061c610617366004613134565b6116d0565b60408051825165ffffffffffff1681526020928301516001600160d01b03169281019290925201610263565b6102fe610656366004612f28565b6116f4565b60606003805461066a90613171565b80601f016020809104026020016040519081016040528092919081815260200182805461069690613171565b80156106e15780601f106106b8576101008083540402835291602001916106e1565b820191905f5260205f20905b8154815290600101906020018083116106c457829003601f168201915b5050505050905090565b5f336106f8818585611a48565b60019150505b92915050565b5f33610711858285611a5a565b61071c858585611ad5565b506001949350505050565b5f610730611b32565b905090565b5f5f61073f6111f8565b90508065ffffffffffff16831061077f57604051637669fc0f60e11b81526004810184905265ffffffffffff821660248201526044015b60405180910390fd5b6107a861078b84611c5b565b6001600160a01b0386165f90815260096020526040902090611c91565b6001600160d01b0316949350505050565b6001600160a01b0381165f908152600d602052604090205461ffff166001146108305760405162461bcd60e51b815260206004820152602360248201527f41646472657373206973206e6f7420616e20617574686f72697a6564206973736044820152623ab2b960e91b6064820152608401610776565b336001600160a01b038216148061086157506001600160a01b0381165f908152600e60205260409020600201544310155b6108ad5760405162461bcd60e51b815260206004820152601b60248201527f497373756572207465726d20686173206e6f74206578706972656400000000006044820152606401610776565b6001600160a01b0381165f908152600d60205260408120805461ffff19169055600b8054916108db836131bd565b91905055506108e981611d41565b60405133906001600160a01b038316907f02c36ff5da6738dbb9919fed63588f28df9d20151ed743eb0009c21317039297905f90a36001600160a01b03165f908152600e60205260408120818155600181018290556002810182905560038101829055600481018290556005810182905560060155565b335f908152600d602052604090205461ffff166001146109925760405162461bcd60e51b8152600401610776906131d2565b335f908152600e602052604090206002015443106109c25760405162461bcd60e51b8152600401610776906131ff565b6001600160a01b038216610a185760405162461bcd60e51b815260206004820152601f60248201527f45524332303a206d696e7420746f20746865207a65726f2061646472657373006044820152606401610776565b306001600160a01b03831603610a835760405162461bcd60e51b815260206004820152602a60248201527f43616e6e6f74206d696e7420746f6b656e7320746f2074686520636f6e7472616044820152696374206164647265737360b01b6064820152608401610776565b5f610a8d60025490565b90508015610af0575f8211610af05760405162461bcd60e51b8152602060048201526024808201527f4d696e74656420616d6f756e74206d75737420626520677265617465722074686044820152630616e20360e41b6064820152608401610776565b5f610afa33611e26565b90505f610b12670de0b6b3a7640000620f4240613227565b831015610b3c5782610b2f670de0b6b3a7640000620f4240613227565b610b39919061323e565b90505b825f03610b4b575f9350610bba565b610b558284613227565b610b60856064613227565b1115610bba5760405162461bcd60e51b8152602060048201526024808201527f4d696e74656420616d6f756e74206578636565647320616c6c6f7761626c65206044820152631b5a5b9d60e21b6064820152608401610776565b5f610bc58286613251565b9050610bd18682611f92565b335f908152600e602052604081206003018054839290610bf2908490613251565b9091555050335f908152600e60205260408120600401805491610c1483613264565b9091555050335f818152600e6020908152604080832060038101546006909101548251878152938401949094529082015260608101919091527f2c6b67bbb0115d824b2bf0140b6b9bf739dff82b63541c7ac1d7681c917a48229060800160405180910390a2505050505050565b335f908152600d602052604090205461ffff16600114610cb45760405162461bcd60e51b8152600401610776906131d2565b335f908152600e60205260409020600201544310610ce45760405162461bcd60e51b8152600401610776906131ff565b610cee3382611fc6565b335f908152600e602052604081206006018054839290610d0f908490613251565b9091555050335f908152600e60205260408120600501805491610d3183613264565b9091555050335f818152600e60209081526040808320600381015460069091015482519485529284018690529083015260608201527f2c6b67bbb0115d824b2bf0140b6b9bf739dff82b63541c7ac1d7681c917a4822906080015b60405180910390a250565b6001600160a01b0381165f908152600d602052604090205461ffff1615610e005760405162461bcd60e51b815260206004820152601d60248201527f4164647265737320697320616c726561647920617574686f72697a65640000006044820152606401610776565b6103e8600b5410610e5d5760405162461bcd60e51b815260206004820152602160248201527f4d6178696d756d206e756d626572206f662049737375657273207265616368656044820152601960fa1b6064820152608401610776565b600b8054905f610e6c83613264565b9091555050600c8054600180820183557fdf6966c971051c3d54ec59162606531493a51404a002842f56009d7e5cf4a8c790910180546001600160a01b0319166001600160a01b0385169081179091555f908152600d602052604090819020805461ffff191683179055805160e0810190915291548291610eec9161323e565b8152602001438152602001622819a043610f069190613251565b81525f60208083018290526040808401839052606080850184905260809485018490526001600160a01b038716808552600e84529382902086518155928601516001840155858201516002840181905590860151600384015593850151600483015560a0850151600583015560c09094015160069091015591517fa0d402b55b358dfac53c7d1b3ef26f4e07d706ad2cab4e9540094020ee9a1d9991610d8c9190815260200190565b6060610fb9611ffa565b65ffffffffffff16610fc96111f8565b65ffffffffffff1614610fef576040516301bfc1c560e61b815260040160405180910390fd5b5060408051808201909152601d81527f6d6f64653d626c6f636b6e756d6265722666726f6d3d64656661756c74000000602082015290565b336110328183612004565b5050565b600c8181548110611045575f80fd5b5f918252602090912001546001600160a01b0316905081565b5f6106fe82612075565b335f908152600d602052604090205461ffff1660011461109a5760405162461bcd60e51b8152600401610776906131d2565b335f908152600e602052604090206002015443106110ca5760405162461bcd60e51b8152600401610776906131ff565b6110d5823383611a5a565b6110df8282611fc6565b335f908152600e602052604081206006018054839290611100908490613251565b9091555050335f908152600e6020526040812060050180549161112283613264565b91905055505050565b5f6106fe82612096565b5f6060805f5f5f60606111466120b3565b61114e6120e0565b604080515f80825260208201909252600f60f81b9b939a50919850469750309650945092509050565b5f5f6111816111f8565b90508065ffffffffffff1683106111bc57604051637669fc0f60e11b81526004810184905265ffffffffffff82166024820152604401610776565b6111d06111c884611c5b565b600a90611c91565b6001600160d01b03169392505050565b6111f5670de0b6b3a7640000620f4240613227565b81565b5f610730611ffa565b60606004805461066a90613171565b6001600160a01b0381165f9081526009602052604081206112309061210d565b6001600160d01b031692915050565b6060600c8054806020026020016040519081016040528092919081815260200182805480156106e157602002820191905f5260205f20905b81546001600160a01b03168152600190910190602001808311611277575050505050905090565b5f336106f8818585611ad5565b600c545b80156113ee575f6112c160018361323e565b9050600e5f600c83815481106112d9576112d961327c565b5f9182526020808320909101546001600160a01b0316835282019290925260400190206002015443106113db575f600c828154811061131a5761131a61327c565b5f9182526020808320909101546001600160a01b0316808352600d90915260408220805461ffff19169055600b80549193509091611357836131bd565b919050555061136581611d41565b60405133906001600160a01b038316907f02c36ff5da6738dbb9919fed63588f28df9d20151ed743eb0009c21317039297905f90a36001600160a01b03165f908152600e602052604081208181556001810182905560028101829055600381018290556004810182905560058101829055600601555b50806113e6816131bd565b9150506112af565b50565b8342111561141557604051632341d78760e11b815260048101859052602401610776565b604080517fe48329057bfd03d55e49b547132e39cffd9c1820ad7b9d4c5307691425d15adf60208201526001600160a01b0388169181019190915260608101869052608081018590525f9061148e906114869060a00160405160208183030381529060405280519060200120612144565b858585612170565b905061149a818761219c565b6114a48188612004565b50505050505050565b834211156114d15760405163313c898160e11b815260048101859052602401610776565b5f7f6e71edae12b1b97f4d1f60370fef10105fa2faae0126114a169c64845d6126c988888861151c8c6001600160a01b03165f90815260076020526040902080546001810190915590565b6040805160208101969096526001600160a01b0394851690860152929091166060840152608083015260a082015260c0810186905260e0016040516020818303038152906040528051906020012090505f61157682612144565b90505f61158582878787612170565b9050896001600160a01b0316816001600160a01b0316146115cc576040516325c0072360e11b81526001600160a01b0380831660048301528b166024820152604401610776565b6115d78a8a8a611a48565b50505050505050505050565b5f6106fe82611e26565b600c5460609081905f905b80156116c8575f61160a60018361323e565b9050600e5f600c83815481106116225761162261327c565b5f9182526020808320909101546001600160a01b0316835282019290925260400190206002015443106116b557600c81815481106116625761166261327c565b905f5260205f20015f9054906101000a90046001600160a01b031684848151811061168f5761168f61327c565b6001600160a01b0390921660209283029190910190910152826116b181613264565b9350505b50806116c0816131bd565b9150506115f8565b509092915050565b604080518082019091525f80825260208201526116ed83836121ee565b9392505050565b335f908152600d602052604090205461ffff166001146117265760405162461bcd60e51b8152600401610776906131d2565b335f908152600e602052604090206002015443106117565760405162461bcd60e51b8152600401610776906131ff565b335f908152600d602052604090205461ffff166001146117c75760405162461bcd60e51b815260206004820152602660248201527f4d73672e73656e646572206973206e6f7420616e20617574686f72697a65642060448201526534b9b9bab2b960d11b6064820152608401610776565b6001600160a01b0381165f908152600d602052604090205461ffff16156118305760405162461bcd60e51b815260206004820152601d60248201527f4164647265737320697320616c726561647920617574686f72697a65640000006044820152606401610776565b335f908152600e602052604090206002015443106118905760405162461bcd60e51b815260206004820152601760248201527f497373756572207465726d2068617320657870697265640000000000000000006044820152606401610776565b6001600160a01b0381166118fa5760405162461bcd60e51b815260206004820152602b60248201527f43616e6e6f74207472616e7366657220617574686f72697a6174696f6e20746f60448201526a206164647265737328302960a81b6064820152608401610776565b306001600160a01b0382160361196c5760405162461bcd60e51b815260206004820152603160248201527f43616e6e6f74207472616e7366657220617574686f72697a6174696f6e20746f60448201527020636f6e7472616374206164647265737360781b6064820152608401610776565b6040805160e081018252335f818152600e60208181528583208054865260018101805483880152600282018054888a015260038301805460608a015260048401805460808b015260058501805460a08c015260068601805460c08d0152998952600d87529a8820805461ffff1916905595909452918590558490558390558290558190559283905591909155611a028282612222565b80516040519081526001600160a01b0383169033907fc4ae840bfec93e8c78b22242773f764c63ea7131dcd4f5a3408193968615d8a69060200160405180910390a35050565b611a5583838360016122ca565b505050565b6001600160a01b038381165f908152600160209081526040808320938616835292905220545f198114611acf5781811015611ac157604051637dc7a0d960e11b81526001600160a01b03841660048201526024810182905260448101839052606401610776565b611acf84848484035f6122ca565b50505050565b6001600160a01b038316611afe57604051634b637e8f60e11b81525f6004820152602401610776565b6001600160a01b038216611b275760405163ec442f0560e01b81525f6004820152602401610776565b611a5583838361239c565b5f306001600160a01b037f000000000000000000000000000000000000000000000000000000000000000016148015611b8a57507f000000000000000000000000000000000000000000000000000000000000000046145b15611bb457507f000000000000000000000000000000000000000000000000000000000000000090565b610730604080517f8b73c3c69bb8fe3d512ecc4cf759cc79239f7b179b0ffacaa9a75d522b39400f60208201527f0000000000000000000000000000000000000000000000000000000000000000918101919091527f000000000000000000000000000000000000000000000000000000000000000060608201524660808201523060a08201525f9060c00160405160208183030381529060405280519060200120905090565b5f65ffffffffffff821115611c8d576040516306dfcc6560e41b81526030600482015260248101839052604401610776565b5090565b81545f9081816005811115611ced575f611caa8461240b565b611cb4908561323e565b5f8881526020902090915081015465ffffffffffff9081169087161015611cdd57809150611ceb565b611ce8816001613251565b92505b505b5f611cfa87878585612563565b90508015611d3457611d1e87611d1160018461323e565b5f91825260209091200190565b54600160301b90046001600160d01b0316611d36565b5f5b979650505050505050565b6001600160a01b0381165f908152600e6020526040812054600c54909190611d6b9060019061323e565b9050808214611df0575f600c8281548110611d8857611d8861327c565b5f91825260209091200154600c80546001600160a01b039092169250829185908110611db657611db661327c565b5f91825260208083209190910180546001600160a01b0319166001600160a01b03948516179055929091168152600e909152604090208290555b600c805480611e0157611e01613290565b5f8281526020902081015f1990810180546001600160a01b0319169055019055505050565b6001600160a01b0381165f908152600e602052604081206003810154600482015460058301546006909301549192909184611e6060025490565b9050805f03611e76575060059695505050505050565b5f8415611e9f5784611e90670de0b6b3a764000088613227565b611e9a91906132b8565b611ea1565b5f5b90505f8415611ecc5784611ebd670de0b6b3a764000086613227565b611ec791906132b8565b611ece565b5f5b90505f611ee384670de0b6b3a7640000613227565b611eee846064613227565b611ef891906132b8565b90505f60058210611f0a57505f611f18565b611f1582600561323e565b90505b5f868a11611f2e57611f2b600182613251565b90505b838511611f4357611f40600182613251565b90505b60028311611f5957611f56600182613251565b90505b5f611f648284613251565b90506005811115611f82575060059c9b505050505050505050505050565b9c9b505050505050505050505050565b6001600160a01b038216611fbb5760405163ec442f0560e01b81525f6004820152602401610776565b6110325f838361239c565b6001600160a01b038216611fef57604051634b637e8f60e11b81525f6004820152602401610776565b611032825f8361239c565b5f61073043611c5b565b6001600160a01b038281165f8181526008602052604080822080548686166001600160a01b0319821681179092559151919094169392849290917f3134e8a2e6d97e929a7e54011ea5485d7d196dd5f0ba4d4ef95803e8e3fc257f9190a4611a558183612070866125c2565b6125df565b6001600160a01b0381165f908152600960205260408120546106fe90612748565b6001600160a01b0381165f908152600760205260408120546106fe565b60606107307f00000000000000000000000000000000000000000000000000000000000000006005612778565b60606107307f00000000000000000000000000000000000000000000000000000000000000006006612778565b80545f90801561213c5761212683611d1160018461323e565b54600160301b90046001600160d01b03166116ed565b5f9392505050565b5f6106fe612150611b32565b8360405161190160f01b8152600281019290925260228201526042902090565b5f5f5f5f61218088888888612821565b92509250925061219082826128e9565b50909695505050505050565b6001600160a01b0382165f908152600760205260409020805460018101909155818114611a55576040516301d4b62360e61b81526001600160a01b038416600482015260248101829052604401610776565b604080518082019091525f80825260208201526001600160a01b0383165f9081526009602052604090206116ed90836129a1565b81600c825f0151815481106122395761223961327c565b5f91825260208083209190910180546001600160a01b0319166001600160a01b03948516179055939091168152600e835260408082208351815583850151600182810191909155848301516002830155606085015160038301556080850151600483015560a0850151600583015560c090940151600690910155600d90935291909120805461ffff19169091179055565b6001600160a01b0384166122f35760405163e602df0560e01b81525f6004820152602401610776565b6001600160a01b03831661231c57604051634a1406b160e11b81525f6004820152602401610776565b6001600160a01b038085165f9081526001602090815260408083209387168352929052208290558015611acf57826001600160a01b0316846001600160a01b03167f8c5be1e5ebec7d5bd14f71427d1e84f3dd0314c0f7b2291e5b200ac8c7c3b9258460405161238e91815260200190565b60405180910390a350505050565b306001600160a01b038316036124005760405162461bcd60e51b815260206004820152602360248201527f43616e6e6f74207472616e7366657220746f20636f6e7472616374206164647260448201526265737360e81b6064820152608401610776565b611a55838383612a0e565b5f60018211612418575090565b816001600160801b82106124315760809190911c9060401b5b68010000000000000000821061244c5760409190911c9060201b5b64010000000082106124635760209190911c9060101b5b6201000082106124785760109190911c9060081b5b610100821061248c5760089190911c9060041b5b6010821061249f5760049190911c9060021b5b600482106124ab5760011b5b600302600190811c908185816124c3576124c36132a4565b048201901c905060018185816124db576124db6132a4565b048201901c905060018185816124f3576124f36132a4565b048201901c9050600181858161250b5761250b6132a4565b048201901c90506001818581612523576125236132a4565b048201901c9050600181858161253b5761253b6132a4565b048201901c905061255a818581612554576125546132a4565b04821190565b90039392505050565b5f5b818310156125ba575f6125788484612a74565b5f8781526020902090915065ffffffffffff86169082015465ffffffffffff1611156125a6578092506125b4565b6125b1816001613251565b93505b50612565565b509392505050565b6001600160a01b0381165f908152602081905260408120546106fe565b816001600160a01b0316836001600160a01b03161415801561260057505f81115b15611a55576001600160a01b038316156126a7576001600160a01b0383165f908152600960205260408120819061264290612a8e61263d86612a99565b612acc565b6001600160d01b031691506001600160d01b03169150846001600160a01b03167fdec2bacdd2f05b59de34da9b523dff8be42e5e38e818c82fdb0bae774387a724838360405161269c929190918252602082015260400190565b60405180910390a250505b6001600160a01b03821615611a55576001600160a01b0382165f90815260096020526040812081906126df90612b0461263d86612a99565b6001600160d01b031691506001600160d01b03169150836001600160a01b03167fdec2bacdd2f05b59de34da9b523dff8be42e5e38e818c82fdb0bae774387a7248383604051612739929190918252602082015260400190565b60405180910390a25050505050565b5f63ffffffff821115611c8d576040516306dfcc6560e41b81526020600482015260248101839052604401610776565b606060ff83146127925761278b83612b0f565b90506106fe565b81805461279e90613171565b80601f01602080910402602001604051908101604052809291908181526020018280546127ca90613171565b80156128155780601f106127ec57610100808354040283529160200191612815565b820191905f5260205f20905b8154815290600101906020018083116127f857829003601f168201915b505050505090506106fe565b5f80807f7fffffffffffffffffffffffffffffff5d576e7357a4501ddfe92f46681b20a084111561285a57505f915060039050826128df565b604080515f808252602082018084528a905260ff891692820192909252606081018790526080810186905260019060a0016020604051602081039080840390855afa1580156128ab573d5f5f3e3d5ffd5b5050604051601f1901519150506001600160a01b0381166128d657505f9250600191508290506128df565b92505f91508190505b9450945094915050565b5f8260038111156128fc576128fc6132d7565b03612905575050565b6001826003811115612919576129196132d7565b036129375760405163f645eedf60e01b815260040160405180910390fd5b600282600381111561294b5761294b6132d7565b0361296c5760405163fce698f760e01b815260048101829052602401610776565b6003826003811115612980576129806132d7565b03611032576040516335e2f38360e21b815260048101829052602401610776565b604080518082019091525f8082526020820152825f018263ffffffff16815481106129ce576129ce61327c565b5f9182526020918290206040805180820190915291015465ffffffffffff81168252600160301b90046001600160d01b0316918101919091529392505050565b612a19838383612b4c565b6001600160a01b038316612a69575f612a3160025490565b90506001600160d01b0380821115612a6657604051630e58ae9360e11b81526004810183905260248101829052604401610776565b50505b611a55838383612c72565b5f612a8260028484186132b8565b6116ed90848416613251565b5f6116ed82846132eb565b5f6001600160d01b03821115611c8d576040516306dfcc6560e41b815260d0600482015260248101839052604401610776565b5f5f612af7612ad96111f8565b612aef612ae58861210d565b868863ffffffff16565b879190612ce7565b915091505b935093915050565b5f6116ed828461330a565b60605f612b1b83612cf4565b6040805160208082528183019092529192505f91906020820181803683375050509182525060208101929092525090565b6001600160a01b038316612b76578060025f828254612b6b9190613251565b90915550612be69050565b6001600160a01b0383165f9081526020819052604090205481811015612bc85760405163391434e360e21b81526001600160a01b03851660048201526024810182905260448101839052606401610776565b6001600160a01b0384165f9081526020819052604090209082900390555b6001600160a01b038216612c0257600280548290039055612c20565b6001600160a01b0382165f9081526020819052604090208054820190555b816001600160a01b0316836001600160a01b03167fddf252ad1be2c89b69c2b068fc378daa952ba7f163c4a11628f55a4df523b3ef83604051612c6591815260200190565b60405180910390a3505050565b6001600160a01b038316612c9457612c91600a612b0461263d84612a99565b50505b6001600160a01b038216612cb657612cb3600a612a8e61263d84612a99565b50505b6001600160a01b038381165f90815260086020526040808220548584168352912054611a55929182169116836125df565b5f80612af7858585612d1b565b5f60ff8216601f8111156106fe57604051632cd44ac360e21b815260040160405180910390fd5b82545f9081908015612e11575f612d3787611d1160018561323e565b805490915065ffffffffffff80821691600160301b90046001600160d01b0316908816821115612d7a57604051632520601d60e01b815260040160405180910390fd5b8765ffffffffffff168265ffffffffffff1603612db357825465ffffffffffff16600160301b6001600160d01b03891602178355612e03565b6040805180820190915265ffffffffffff808a1682526001600160d01b03808a1660208085019182528d54600181018f555f8f81529190912094519151909216600160301b029216919091179101555b9450859350612afc92505050565b50506040805180820190915265ffffffffffff80851682526001600160d01b0380851660208085019182528854600181018a555f8a815291822095519251909316600160301b029190931617920191909155905081612afc565b5f81518084528060208401602086015e5f602082860101526020601f19601f83011685010191505092915050565b602081525f6116ed6020830184612e6b565b80356001600160a01b0381168114612ec1575f5ffd5b919050565b5f5f60408385031215612ed7575f5ffd5b612ee083612eab565b946020939093013593505050565b5f5f5f60608486031215612f00575f5ffd5b612f0984612eab565b9250612f1760208501612eab565b929592945050506040919091013590565b5f60208284031215612f38575f5ffd5b6116ed82612eab565b5f60208284031215612f51575f5ffd5b5035919050565b60ff60f81b8816815260e060208201525f612f7660e0830189612e6b565b8281036040840152612f888189612e6b565b606084018890526001600160a01b038716608085015260a0840186905283810360c0850152845180825260208087019350909101905f5b81811015612fdd578351835260209384019390920191600101612fbf565b50909b9a5050505050505050505050565b602080825282518282018190525f918401906040840190835b8181101561302e5783516001600160a01b0316835260209384019390920191600101613007565b509095945050505050565b803560ff81168114612ec1575f5ffd5b5f5f5f5f5f5f60c0878903121561305e575f5ffd5b61306787612eab565b9550602087013594506040870135935061308360608801613039565b9598949750929560808101359460a0909101359350915050565b5f5f5f5f5f5f5f60e0888a0312156130b3575f5ffd5b6130bc88612eab565b96506130ca60208901612eab565b955060408801359450606088013593506130e660808901613039565b9699959850939692959460a0840135945060c09093013592915050565b5f5f60408385031215613114575f5ffd5b61311d83612eab565b915061312b60208401612eab565b90509250929050565b5f5f60408385031215613145575f5ffd5b61314e83612eab565b9150602083013563ffffffff81168114613166575f5ffd5b809150509250929050565b600181811c9082168061318557607f821691505b6020821081036131a357634e487b7160e01b5f52602260045260245ffd5b50919050565b634e487b7160e01b5f52601160045260245ffd5b5f816131cb576131cb6131a9565b505f190190565b6020808252601390820152722ab730baba3437b934bd32b21024b9b9bab2b960691b604082015260600190565b6020808252600e908201526d22bc3834b932b21024b9b9bab2b960911b604082015260600190565b80820281158282048414176106fe576106fe6131a9565b818103818111156106fe576106fe6131a9565b808201808211156106fe576106fe6131a9565b5f60018201613275576132756131a9565b5060010190565b634e487b7160e01b5f52603260045260245ffd5b634e487b7160e01b5f52603160045260245ffd5b634e487b7160e01b5f52601260045260245ffd5b5f826132d257634e487b7160e01b5f52601260045260245ffd5b500490565b634e487b7160e01b5f52602160045260245ffd5b6001600160d01b0382811682821603908111156106fe576106fe6131a9565b6001600160d01b0381811683821601908111156106fe576106fe6131a956fea2646970667358221220626c1c7fe0b33897117f345d591b0620661d03df287f0358519ee960c85ac09464736f6c634300081c0033","linkReferences":{}},"methodIdentifiers":{"CLOCK_MODE()":"4bf5d7e9","DOMAIN_SEPARATOR()":"3644e515","allowance(address,address)":"dd62ed3e","approve(address,uint256)":"095ea7b3","authorizeIssuer(address)":"436693d5","balanceOf(address)":"70a08231","baseMintFactor()":"9d87b1ac","burn(uint256)":"42966c68","burnFrom(address,uint256)":"79cc6790","checkpoints(address,uint32)":"f1127ed8","clock()":"91ddadf4","deauthorizeAllExpiredIssuers()":"afc3c757","deauthorizeIssuer(address)":"3a71daf4","decimals()":"313ce567","delegate(address)":"5c19a95c","delegateBySig(address,uint256,uint256,uint8,bytes32,bytes32)":"c3cda520","delegates(address)":"587cde1e","eip712Domain()":"84b0196e","getExpiredIssuers()":"e09917c3","getIssuerMintFactor(address)":"da6130f5","getIssuers()":"a594da95","getPastTotalSupply(uint256)":"8e539e8c","getPastVotes(address,uint256)":"3a46b1a8","getVotes(address)":"9ab24eb0","isIssuer(address)":"877b9a67","issuerData(address)":"e2a4f741","issuerInterval()":"9819385e","issuers(uint256)":"61ec30c4","maxIssuers()":"9288bfa8","minSupply()":"8fe6cae3","mint(address,uint256)":"40c10f19","name()":"06fdde03","nonces(address)":"7ecebe00","numCheckpoints(address)":"6fcfff45","permit(address,address,uint256,uint256,uint8,bytes32,bytes32)":"d505accf","symbol()":"95d89b41","totalIssuers()":"0927cd0d","totalSupply()":"18160ddd","transfer(address,uint256)":"a9059cbb","transferFrom(address,address,uint256)":"23b872dd","transferIssuerAuthorization(address)":"f63e372d"},"id":53}