{"abi":[{"type":"constructor","inputs":[{"name":"initialOwner","type":"address","internalType":"address"}],"stateMutability":"nonpayable"},{"type":"function","name":"CLOCK_MODE","inputs":[],"outputs":[{"name":"","type":"string","internalType":"string"}],"stateMutability":"view"},{"type":"function","name":"DOMAIN_SEPARATOR","inputs":[],"outputs":[{"name":"","type":"bytes32","internalType":"bytes32"}],"stateMutability":"view"},{"type":"function","name":"allowance","inputs":[{"name":"owner","type":"address","internalType":"address"},{"name":"spender","type":"address","internalType":"address"}],"outputs":[{"name":"","type":"uint256","internalType":"uint256"}],"stateMutability":"view"},{"type":"function","name":"approve","inputs":[{"name":"spender","type":"address","internalType":"address"},{"name":"value","type":"uint256","internalType":"uint256"}],"outputs":[{"name":"","type":"bool","internalType":"bool"}],"stateMutability":"nonpayable"},{"type":"function","name":"authorizeIssuer","inputs":[{"name":"newIssuer","type":"address","internalType":"address"}],"outputs":[],"stateMutability":"nonpayable"},{"type":"function","name":"balanceOf","inputs":[{"name":"account","type":"address","internalType":"address"}],"outputs":[{"name":"","type":"uint256","internalType":"uint256"}],"stateMutability":"view"},{"type":"function","name":"baseMintFactor","inputs":[],"outputs":[{"name":"","type":"uint256","internalType":"uint256"}],"stateMutability":"view"},{"type":"function","name":"burn","inputs":[{"name":"amount","type":"uint256","internalType":"uint256"}],"outputs":[],"stateMutability":"nonpayable"},{"type":"function","name":"burnFrom","inputs":[{"name":"account","type":"address","internalType":"address"},{"name":"amount","type":"uint256","internalType":"uint256"}],"outputs":[],"stateMutability":"nonpayable"},{"type":"function","name":"checkpoints","inputs":[{"name":"account","type":"address","internalType":"address"},{"name":"pos","type":"uint32","internalType":"uint32"}],"outputs":[{"name":"","type":"tuple","internalType":"struct Checkpoints.Checkpoint208","components":[{"name":"_key","type":"uint48","internalType":"uint48"},{"name":"_value","type":"uint208","internalType":"uint208"}]}],"stateMutability":"view"},{"type":"function","name":"clock","inputs":[],"outputs":[{"name":"","type":"uint48","internalType":"uint48"}],"stateMutability":"view"},{"type":"function","name":"deauthorizeAllExpiredIssuers","inputs":[],"outputs":[],"stateMutability":"nonpayable"},{"type":"function","name":"deauthorizeIssuer","inputs":[{"name":"existingIssuer","type":"address","internalType":"address"}],"outputs":[],"stateMutability":"nonpayable"},{"type":"function","name":"decimals","inputs":[],"outputs":[{"name":"","type":"uint8","internalType":"uint8"}],"stateMutability":"view"},{"type":"function","name":"delegate","inputs":[{"name":"delegatee","type":"address","internalType":"address"}],"outputs":[],"stateMutability":"nonpayable"},{"type":"function","name":"delegateBySig","inputs":[{"name":"delegatee","type":"address","internalType":"address"},{"name":"nonce","type":"uint256","internalType":"uint256"},{"name":"expiry","type":"uint256","internalType":"uint256"},{"name":"v","type":"uint8","internalType":"uint8"},{"name":"r","type":"bytes32","internalType":"bytes32"},{"name":"s","type":"bytes32","internalType":"bytes32"}],"outputs":[],"stateMutability":"nonpayable"},{"type":"function","name":"delegates","inputs":[{"name":"account","type":"address","internalType":"address"}],"outputs":[{"name":"","type":"address","internalType":"address"}],"stateMutability":"view"},{"type":"function","name":"eip712Domain","inputs":[],"outputs":[{"name":"fields","type":"bytes1","internalType":"bytes1"},{"name":"name","type":"string","internalType":"string"},{"name":"version","type":"string","internalType":"string"},{"name":"chainId","type":"uint256","internalType":"uint256"},{"name":"verifyingContract","type":"address","internalType":"address"},{"name":"salt","type":"bytes32","internalType":"bytes32"},{"name":"extensions","type":"uint256[]","internalType":"uint256[]"}],"stateMutability":"view"},{"type":"function","name":"getIssuerMintFactor","inputs":[{"name":"_issuerAddress","type":"address","internalType":"address"}],"outputs":[{"name":"","type":"uint256","internalType":"uint256"}],"stateMutability":"view"},{"type":"function","name":"getIssuers","inputs":[],"outputs":[{"name":"","type":"address[]","internalType":"address[]"}],"stateMutability":"view"},{"type":"function","name":"getPastTotalSupply","inputs":[{"name":"timepoint","type":"uint256","internalType":"uint256"}],"outputs":[{"name":"","type":"uint256","internalType":"uint256"}],"stateMutability":"view"},{"type":"function","name":"getPastVotes","inputs":[{"name":"account","type":"address","internalType":"address"},{"name":"timepoint","type":"uint256","internalType":"uint256"}],"outputs":[{"name":"","type":"uint256","internalType":"uint256"}],"stateMutability":"view"},{"type":"function","name":"getVotes","inputs":[{"name":"account","type":"address","internalType":"address"}],"outputs":[{"name":"","type":"uint256","internalType":"uint256"}],"stateMutability":"view"},{"type":"function","name":"isIssuer","inputs":[{"name":"","type":"address","internalType":"address"}],"outputs":[{"name":"","type":"uint16","internalType":"uint16"}],"stateMutability":"view"},{"type":"function","name":"issuerData","inputs":[{"name":"","type":"address","internalType":"address"}],"outputs":[{"name":"index","type":"uint256","internalType":"uint256"},{"name":"startingBlock","type":"uint256","internalType":"uint256"},{"name":"expirationBlock","type":"uint256","internalType":"uint256"},{"name":"totalMinted","type":"uint256","internalType":"uint256"},{"name":"mintCount","type":"uint256","internalType":"uint256"},{"name":"burnCount","type":"uint256","internalType":"uint256"},{"name":"totalBurned","type":"uint256","internalType":"uint256"}],"stateMutability":"view"},{"type":"function","name":"issuerInterval","inputs":[],"outputs":[{"name":"","type":"uint256","internalType":"uint256"}],"stateMutability":"view"},{"type":"function","name":"issuers","inputs":[{"name":"","type":"uint256","internalType":"uint256"}],"outputs":[{"name":"","type":"address","internalType":"address"}],"stateMutability":"view"},{"type":"function","name":"maxIssuers","inputs":[],"outputs":[{"name":"","type":"uint256","internalType":"uint256"}],"stateMutability":"view"},{"type":"function","name":"minSupply","inputs":[],"outputs":[{"name":"","type":"uint256","internalType":"uint256"}],"stateMutability":"view"},{"type":"function","name":"mint","inputs":[{"name":"to","type":"address","internalType":"address"},{"name":"userRequestedAmount","type":"uint256","internalType":"uint256"}],"outputs":[],"stateMutability":"nonpayable"},{"type":"function","name":"name","inputs":[],"outputs":[{"name":"","type":"string","internalType":"string"}],"stateMutability":"view"},{"type":"function","name":"nonces","inputs":[{"name":"owner","type":"address","internalType":"address"}],"outputs":[{"name":"","type":"uint256","internalType":"uint256"}],"stateMutability":"view"},{"type":"function","name":"numCheckpoints","inputs":[{"name":"account","type":"address","internalType":"address"}],"outputs":[{"name":"","type":"uint32","internalType":"uint32"}],"stateMutability":"view"},{"type":"function","name":"owner","inputs":[],"outputs":[{"name":"","type":"address","internalType":"address"}],"stateMutability":"view"},{"type":"function","name":"permit","inputs":[{"name":"owner","type":"address","internalType":"address"},{"name":"spender","type":"address","internalType":"address"},{"name":"value","type":"uint256","internalType":"uint256"},{"name":"deadline","type":"uint256","internalType":"uint256"},{"name":"v","type":"uint8","internalType":"uint8"},{"name":"r","type":"bytes32","internalType":"bytes32"},{"name":"s","type":"bytes32","internalType":"bytes32"}],"outputs":[],"stateMutability":"nonpayable"},{"type":"function","name":"renounceOwnership","inputs":[],"outputs":[],"stateMutability":"nonpayable"},{"type":"function","name":"setBaseMintFactor","inputs":[{"name":"newMintFactor","type":"uint256","internalType":"uint256"}],"outputs":[],"stateMutability":"nonpayable"},{"type":"function","name":"setIssuerInterval","inputs":[{"name":"newInterval","type":"uint256","internalType":"uint256"}],"outputs":[],"stateMutability":"nonpayable"},{"type":"function","name":"setMinSupply","inputs":[{"name":"newMinSupply","type":"uint256","internalType":"uint256"}],"outputs":[],"stateMutability":"nonpayable"},{"type":"function","name":"symbol","inputs":[],"outputs":[{"name":"","type":"string","internalType":"string"}],"stateMutability":"view"},{"type":"function","name":"totalIssuers","inputs":[],"outputs":[{"name":"","type":"uint256","internalType":"uint256"}],"stateMutability":"view"},{"type":"function","name":"totalSupply","inputs":[],"outputs":[{"name":"","type":"uint256","internalType":"uint256"}],"stateMutability":"view"},{"type":"function","name":"transfer","inputs":[{"name":"to","type":"address","internalType":"address"},{"name":"value","type":"uint256","internalType":"uint256"}],"outputs":[{"name":"","type":"bool","internalType":"bool"}],"stateMutability":"nonpayable"},{"type":"function","name":"transferFrom","inputs":[{"name":"from","type":"address","internalType":"address"},{"name":"to","type":"address","internalType":"address"},{"name":"value","type":"uint256","internalType":"uint256"}],"outputs":[{"name":"","type":"bool","internalType":"bool"}],"stateMutability":"nonpayable"},{"type":"function","name":"transferIssuerAuthorization","inputs":[{"name":"newIssuer","type":"address","internalType":"address"}],"outputs":[],"stateMutability":"nonpayable"},{"type":"function","name":"transferOwnership","inputs":[{"name":"newOwner","type":"address","internalType":"address"}],"outputs":[],"stateMutability":"nonpayable"},{"type":"event","name":"Approval","inputs":[{"name":"owner","type":"address","indexed":true,"internalType":"address"},{"name":"spender","type":"address","indexed":true,"internalType":"address"},{"name":"value","type":"uint256","indexed":false,"internalType":"uint256"}],"anonymous":false},{"type":"event","name":"BaseMintFactorUpdated","inputs":[{"name":"oldMintFactor","type":"uint256","indexed":false,"internalType":"uint256"},{"name":"newMintFactor","type":"uint256","indexed":false,"internalType":"uint256"}],"anonymous":false},{"type":"event","name":"DelegateChanged","inputs":[{"name":"delegator","type":"address","indexed":true,"internalType":"address"},{"name":"fromDelegate","type":"address","indexed":true,"internalType":"address"},{"name":"toDelegate","type":"address","indexed":true,"internalType":"address"}],"anonymous":false},{"type":"event","name":"DelegateVotesChanged","inputs":[{"name":"delegate","type":"address","indexed":true,"internalType":"address"},{"name":"previousVotes","type":"uint256","indexed":false,"internalType":"uint256"},{"name":"newVotes","type":"uint256","indexed":false,"internalType":"uint256"}],"anonymous":false},{"type":"event","name":"EIP712DomainChanged","inputs":[],"anonymous":false},{"type":"event","name":"IssuerActivity","inputs":[{"name":"issuer","type":"address","indexed":true,"internalType":"address"},{"name":"minted","type":"uint256","indexed":false,"internalType":"uint256"},{"name":"burned","type":"uint256","indexed":false,"internalType":"uint256"},{"name":"totalMintedSoFar","type":"uint256","indexed":false,"internalType":"uint256"},{"name":"totalBurnedSoFar","type":"uint256","indexed":false,"internalType":"uint256"}],"anonymous":false},{"type":"event","name":"IssuerAuthorizationTransferred","inputs":[{"name":"oldIssuer","type":"address","indexed":true,"internalType":"address"},{"name":"newIssuer","type":"address","indexed":true,"internalType":"address"},{"name":"issuerIndex","type":"uint256","indexed":false,"internalType":"uint256"}],"anonymous":false},{"type":"event","name":"IssuerAuthorized","inputs":[{"name":"issuer","type":"address","indexed":true,"internalType":"address"},{"name":"expirationBlock","type":"uint256","indexed":false,"internalType":"uint256"}],"anonymous":false},{"type":"event","name":"IssuerDeauthorized","inputs":[{"name":"issuer","type":"address","indexed":true,"internalType":"address"},{"name":"deauthorizer","type":"address","indexed":true,"internalType":"address"}],"anonymous":false},{"type":"event","name":"IssuerIntervalUpdated","inputs":[{"name":"oldInterval","type":"uint256","indexed":false,"internalType":"uint256"},{"name":"newInterval","type":"uint256","indexed":false,"internalType":"uint256"}],"anonymous":false},{"type":"event","name":"MinSupplyUpdated","inputs":[{"name":"oldMinSupply","type":"uint256","indexed":false,"internalType":"uint256"},{"name":"newMinSupply","type":"uint256","indexed":false,"internalType":"uint256"}],"anonymous":false},{"type":"event","name":"OwnershipTransferred","inputs":[{"name":"previousOwner","type":"address","indexed":true,"internalType":"address"},{"name":"newOwner","type":"address","indexed":true,"internalType":"address"}],"anonymous":false},{"type":"event","name":"Transfer","inputs":[{"name":"from","type":"address","indexed":true,"internalType":"address"},{"name":"to","type":"address","indexed":true,"internalType":"address"},{"name":"value","type":"uint256","indexed":false,"internalType":"uint256"}],"anonymous":false},{"type":"error","name":"CheckpointUnorderedInsertion","inputs":[]},{"type":"error","name":"ECDSAInvalidSignature","inputs":[]},{"type":"error","name":"ECDSAInvalidSignatureLength","inputs":[{"name":"length","type":"uint256","internalType":"uint256"}]},{"type":"error","name":"ECDSAInvalidSignatureS","inputs":[{"name":"s","type":"bytes32","internalType":"bytes32"}]},{"type":"error","name":"ERC20ExceededSafeSupply","inputs":[{"name":"increasedSupply","type":"uint256","internalType":"uint256"},{"name":"cap","type":"uint256","internalType":"uint256"}]},{"type":"error","name":"ERC20InsufficientAllowance","inputs":[{"name":"spender","type":"address","internalType":"address"},{"name":"allowance","type":"uint256","internalType":"uint256"},{"name":"needed","type":"uint256","internalType":"uint256"}]},{"type":"error","name":"ERC20InsufficientBalance","inputs":[{"name":"sender","type":"address","internalType":"address"},{"name":"balance","type":"uint256","internalType":"uint256"},{"name":"needed","type":"uint256","internalType":"uint256"}]},{"type":"error","name":"ERC20InvalidApprover","inputs":[{"name":"approver","type":"address","internalType":"address"}]},{"type":"error","name":"ERC20InvalidReceiver","inputs":[{"name":"receiver","type":"address","internalType":"address"}]},{"type":"error","name":"ERC20InvalidSender","inputs":[{"name":"sender","type":"address","internalType":"address"}]},{"type":"error","name":"ERC20InvalidSpender","inputs":[{"name":"spender","type":"address","internalType":"address"}]},{"type":"error","name":"ERC2612ExpiredSignature","inputs":[{"name":"deadline","type":"uint256","internalType":"uint256"}]},{"type":"error","name":"ERC2612InvalidSigner","inputs":[{"name":"signer","type":"address","internalType":"address"},{"name":"owner","type":"address","internalType":"address"}]},{"type":"error","name":"ERC5805FutureLookup","inputs":[{"name":"timepoint","type":"uint256","internalType":"uint256"},{"name":"clock","type":"uint48","internalType":"uint48"}]},{"type":"error","name":"ERC6372InconsistentClock","inputs":[]},{"type":"error","name":"InvalidAccountNonce","inputs":[{"name":"account","type":"address","internalType":"address"},{"name":"currentNonce","type":"uint256","internalType":"uint256"}]},{"type":"error","name":"InvalidShortString","inputs":[]},{"type":"error","name":"OwnableInvalidOwner","inputs":[{"name":"owner","type":"address","internalType":"address"}]},{"type":"error","name":"OwnableUnauthorizedAccount","inputs":[{"name":"account","type":"address","internalType":"address"}]},{"type":"error","name":"SafeCastOverflowedUintDowncast","inputs":[{"name":"bits","type":"uint8","internalType":"uint8"},{"name":"value","type":"uint256","internalType":"uint256"}]},{"type":"error","name":"StringTooLong","inputs":[{"name":"str","type":"string","internalType":"string"}]},{"type":"error","name":"VotesExpiredSignature","inputs":[{"name":"expiry","type":"uint256","internalType":"uint256"}]}],"bytecode":{"object":"0x6101606040526103e8600c55622819a0600d556005600f55620f4240601055348015610029575f5ffd5b50604051613952380380613952833981016040819052610048916102a7565b60405180604001604052806013815260200172283ab13634b1902237b6b0b4b7102a37b5b2b760691b81525080604051806040016040528060018152602001603160f81b8152508360405180604001604052806013815260200172283ab13634b1902237b6b0b4b7102a37b5b2b760691b8152506040518060400160405280600481526020016314111bd560e21b81525081600390816100e8919061036c565b5060046100f5828261036c565b5050506001600160a01b03811661012657604051631e4fbdf760e01b81525f60048201526024015b60405180910390fd5b61012f816101e7565b5061013b826006610238565b6101205261014a816007610238565b61014052815160208084019190912060e052815190820120610100524660a0526101d660e05161010051604080517f8b73c3c69bb8fe3d512ecc4cf759cc79239f7b179b0ffacaa9a75d522b39400f60208201529081019290925260608201524660808201523060a08201525f9060c00160405160208183030381529060405280519060200120905090565b60805250503060c0525061047e9050565b600580546001600160a01b038381166001600160a01b0319831681179093556040519116919082907f8be0079c531659141344cd1fd0a4f28419497f9722a3daafe3b4186f6b6457e0905f90a35050565b5f6020835110156102535761024c8361026a565b9050610264565b8161025e848261036c565b5060ff90505b92915050565b5f5f829050601f81511115610294578260405163305a27a960e01b815260040161011d9190610426565b805161029f8261045b565b179392505050565b5f602082840312156102b7575f5ffd5b81516001600160a01b03811681146102cd575f5ffd5b9392505050565b634e487b7160e01b5f52604160045260245ffd5b600181811c908216806102fc57607f821691505b60208210810361031a57634e487b7160e01b5f52602260045260245ffd5b50919050565b601f82111561036757805f5260205f20601f840160051c810160208510156103455750805b601f840160051c820191505b81811015610364575f8155600101610351565b50505b505050565b81516001600160401b03811115610385576103856102d4565b6103998161039384546102e8565b84610320565b6020601f8211600181146103cb575f83156103b45750848201515b5f19600385901b1c1916600184901b178455610364565b5f84815260208120601f198516915b828110156103fa57878501518255602094850194600190920191016103da565b508482101561041757868401515f19600387901b60f8161c191681555b50505050600190811b01905550565b602081525f82518060208401528060208501604085015e5f604082850101526040601f19601f83011684010191505092915050565b8051602080830151919081101561031a575f1960209190910360031b1b16919050565b60805160a05160c05160e0516101005161012051610140516134836104cf5f395f61220b01525f6121de01525f611cd701525f611caf01525f611c0a01525f611c3401525f611c5e01526134835ff3fe608060405234801561000f575f5ffd5b5060043610610281575f3560e01c806384b0196e11610156578063a1a4ab53116100ca578063da6130f511610084578063da6130f5146105c1578063dd62ed3e146105d4578063e2a4f7411461060c578063f1127ed81461068b578063f2fde38b146106ca578063f63e372d146106dd575f5ffd5b8063a1a4ab5314610558578063a594da951461056b578063a9059cbb14610580578063afc3c75714610593578063c3cda5201461059b578063d505accf146105ae575f5ffd5b806391ddadf41161011b57806391ddadf4146105035780639288bfa81461052257806395d89b411461052b5780639819385e146105335780639ab24eb01461053c5780639d87b1ac1461054f575f5ffd5b806384b0196e14610485578063877b9a67146104a05780638da5cb5b146104d65780638e539e8c146104e75780638fe6cae3146104fa575f5ffd5b806340c10f19116101f857806361ec30c4116101b257806361ec30c4146103f45780636fcfff451461040757806370a082311461042f578063715018a61461045757806379cc67901461045f5780637ecebe0014610472575f5ffd5b806340c10f191461035d57806342966c6814610370578063436693d5146103835780634bf5d7e914610396578063587cde1e1461039e5780635c19a95c146103e1575f5ffd5b806323b872dd1161024957806323b872dd146102fa578063313ce5671461030d5780633644e5151461031c5780633a46b1a8146103245780633a71daf4146103375780633fdd18b71461034a575f5ffd5b806306fdde03146102855780630927cd0d146102a3578063095ea7b3146102ba57806318160ddd146102dd5780631ac2874b146102e5575b5f5ffd5b61028d6106f0565b60405161029a9190612fbd565b60405180910390f35b6102ac600e5481565b60405190815260200161029a565b6102cd6102c8366004612fea565b610780565b604051901515815260200161029a565b6002546102ac565b6102f86102f3366004613012565b610799565b005b6102cd610308366004613029565b6107e2565b6040516012815260200161029a565b6102ac610805565b6102ac610332366004612fea565b610813565b6102f8610345366004613063565b610897565b6102f8610358366004613012565b610a3e565b6102f861036b366004612fea565b610a87565b6102f861037e366004613012565b610d87565b6102f8610391366004613063565b610e9c565b61028d6110b3565b6103c96103ac366004613063565b6001600160a01b039081165f908152600960205260409020541690565b6040516001600160a01b03909116815260200161029a565b6102f86103ef366004613063565b61112b565b6103c9610402366004613012565b61113a565b61041a610415366004613063565b611162565b60405163ffffffff909116815260200161029a565b6102ac61043d366004613063565b6001600160a01b03165f9081526020819052604090205490565b6102f861116c565b6102f861046d366004612fea565b61117f565b6102ac610480366004613063565b611242565b61048d61124c565b60405161029a979695949392919061307c565b6104c36104ae366004613063565b60126020525f908152604090205461ffff1681565b60405161ffff909116815260200161029a565b6005546001600160a01b03166103c9565b6102ac6104f5366004613012565b61128e565b6102ac60105481565b61050b6112f7565b60405165ffffffffffff909116815260200161029a565b6102ac600c5481565b61028d611300565b6102ac600d5481565b6102ac61054a366004613063565b61130f565b6102ac600f5481565b6102f8610566366004613012565b61133e565b610573611387565b60405161029a9190613112565b6102cd61058e366004612fea565b6113e6565b6102f86113f3565b6102f86105a936600461316d565b611539565b6102f86105bc3660046131c1565b6115f5565b6102ac6105cf366004613063565b61172b565b6102ac6105e2366004613227565b6001600160a01b039182165f90815260016020908152604080832093909416825291909152205490565b61065661061a366004613063565b60136020525f90815260409020805460018201546002830154600384015460048501546005860154600690960154949593949293919290919087565b604080519788526020880196909652948601939093526060850191909152608084015260a083015260c082015260e00161029a565b61069e610699366004613258565b611735565b60408051825165ffffffffffff1681526020928301516001600160d01b0316928101929092520161029a565b6102f86106d8366004613063565b611759565b6102f86106eb366004613063565b611793565b6060600380546106ff90613295565b80601f016020809104026020016040519081016040528092919081815260200182805461072b90613295565b80156107765780601f1061074d57610100808354040283529160200191610776565b820191905f5260205f20905b81548152906001019060200180831161075957829003601f168201915b5050505050905090565b5f3361078d818585611ae7565b60019150505b92915050565b6107a1611af9565b60105460408051918252602082018390527f8e485513f38ca4c23b0c8170161c4fd5c16f934ea7c068b376f646b0194d1b8e910160405180910390a1601055565b5f336107ef858285611b26565b6107fa858585611ba1565b506001949350505050565b5f61080e611bfe565b905090565b5f5f61081d6112f7565b90508065ffffffffffff16831061085d57604051637669fc0f60e11b81526004810184905265ffffffffffff821660248201526044015b60405180910390fd5b61088661086984611d27565b6001600160a01b0386165f908152600a6020526040902090611d5d565b6001600160d01b0316949350505050565b6001600160a01b0381165f9081526012602052604090205461ffff1660011461090e5760405162461bcd60e51b815260206004820152602360248201527f41646472657373206973206e6f7420616e20617574686f72697a6564206973736044820152623ab2b960e91b6064820152608401610854565b336001600160a01b038216148061093f57506001600160a01b0381165f908152601360205260409020600201544310155b61098b5760405162461bcd60e51b815260206004820152601b60248201527f497373756572207465726d20686173206e6f74206578706972656400000000006044820152606401610854565b6001600160a01b0381165f908152601260205260408120805461ffff19169055600e8054916109b9836132e1565b91905055506109c781611e0d565b60405133906001600160a01b038316907f02c36ff5da6738dbb9919fed63588f28df9d20151ed743eb0009c21317039297905f90a36001600160a01b03165f908152601360205260408120818155600181018290556002810182905560038101829055600481018290556005810182905560060155565b610a46611af9565b600f5460408051918252602082018390527f4ca88e7da02b989e4025f130ac671b7900213f18e29e3af5f2d5e8e3c7f1d63f910160405180910390a1600f55565b335f9081526012602052604090205461ffff16600114610ab95760405162461bcd60e51b8152600401610854906132f6565b335f908152601360205260409020600201544310610ae95760405162461bcd60e51b815260040161085490613323565b6001600160a01b038216610b3f5760405162461bcd60e51b815260206004820152601f60248201527f45524332303a206d696e7420746f20746865207a65726f2061646472657373006044820152606401610854565b306001600160a01b03831603610baa5760405162461bcd60e51b815260206004820152602a60248201527f43616e6e6f74206d696e7420746f6b656e7320746f2074686520636f6e7472616044820152696374206164647265737360b01b6064820152608401610854565b5f610bb460025490565b90508015610c17575f8211610c175760405162461bcd60e51b8152602060048201526024808201527f4d696e74656420616d6f756e74206d75737420626520677265617465722074686044820152630616e20360e41b6064820152608401610854565b5f610c2133611ef2565b6010549091505f90831015610c415782601054610c3e919061334b565b90505b825f03610c50575f9350610cbf565b610c5a828461335e565b610c6585606461335e565b1115610cbf5760405162461bcd60e51b8152602060048201526024808201527f4d696e74656420616d6f756e74206578636565647320616c6c6f7761626c65206044820152631b5a5b9d60e21b6064820152608401610854565b5f610cca8286613375565b9050610cd68682612065565b335f9081526013602052604081206003018054839290610cf7908490613375565b9091555050335f908152601360205260408120600401805491610d1983613388565b9091555050335f81815260136020908152604080832060038101546006909101548251878152938401949094529082015260608101919091527f2c6b67bbb0115d824b2bf0140b6b9bf739dff82b63541c7ac1d7681c917a48229060800160405180910390a2505050505050565b335f9081526012602052604090205461ffff16600114610db95760405162461bcd60e51b8152600401610854906132f6565b335f908152601360205260409020600201544310610de95760405162461bcd60e51b815260040161085490613323565b610df33382612099565b335f9081526013602052604081206006018054839290610e14908490613375565b9091555050335f908152601360205260408120600501805491610e3683613388565b9091555050335f818152601360209081526040808320600381015460069091015482519485529284018690529083015260608201527f2c6b67bbb0115d824b2bf0140b6b9bf739dff82b63541c7ac1d7681c917a4822906080015b60405180910390a250565b6001600160a01b0381165f9081526012602052604090205461ffff1615610f055760405162461bcd60e51b815260206004820152601d60248201527f4164647265737320697320616c726561647920617574686f72697a65640000006044820152606401610854565b600c54600e5410610f625760405162461bcd60e51b815260206004820152602160248201527f4d6178696d756d206e756d626572206f662049737375657273207265616368656044820152601960fa1b6064820152608401610854565b600e8054905f610f7183613388565b909155505060118054600180820183557f31ecc21a745e3968a04e9570e4425bc18fa8019c68028196b546d1669c200c6890910180546001600160a01b0319166001600160a01b0385169081179091555f9081526012602052604090819020805461ffff191683179055805160e0810190915291548291610ff19161334b565b8152602001438152602001600d544361100a9190613375565b81525f60208083018290526040808401839052606080850184905260809485018490526001600160a01b038716808552601384529382902086518155928601516001840155858201516002840181905590860151600384015593850151600483015560a0850151600583015560c09094015160069091015591517fa0d402b55b358dfac53c7d1b3ef26f4e07d706ad2cab4e9540094020ee9a1d9991610e919190815260200190565b60606110bd6120cd565b65ffffffffffff166110cd6112f7565b65ffffffffffff16146110f3576040516301bfc1c560e61b815260040160405180910390fd5b5060408051808201909152601d81527f6d6f64653d626c6f636b6e756d6265722666726f6d3d64656661756c74000000602082015290565b3361113681836120d7565b5050565b60118181548110611149575f80fd5b5f918252602090912001546001600160a01b0316905081565b5f61079382612148565b611174611af9565b61117d5f612169565b565b335f9081526012602052604090205461ffff166001146111b15760405162461bcd60e51b8152600401610854906132f6565b335f9081526013602052604090206002015443106111e15760405162461bcd60e51b815260040161085490613323565b6111ec823383611b26565b6111f68282612099565b335f9081526013602052604081206006018054839290611217908490613375565b9091555050335f90815260136020526040812060050180549161123983613388565b91905055505050565b5f610793826121ba565b5f6060805f5f5f606061125d6121d7565b611265612204565b604080515f80825260208201909252600f60f81b9b939a50919850469750309650945092509050565b5f5f6112986112f7565b90508065ffffffffffff1683106112d357604051637669fc0f60e11b81526004810184905265ffffffffffff82166024820152604401610854565b6112e76112df84611d27565b600b90611d5d565b6001600160d01b03169392505050565b5f61080e6120cd565b6060600480546106ff90613295565b6001600160a01b0381165f908152600a6020526040812061132f90612231565b6001600160d01b031692915050565b611346611af9565b600d5460408051918252602082018390527fe797767d82578d43c7848e99944ac15ab481c4c7866343f24b5f4a8bad29f897910160405180910390a1600d55565b6060601180548060200260200160405190810160405280929190818152602001828054801561077657602002820191905f5260205f20905b81546001600160a01b031681526001909101906020018083116113bf575050505050905090565b5f3361078d818585611ba1565b6011545b8015611536575f61140960018361334b565b905060135f60118381548110611421576114216133a0565b5f9182526020808320909101546001600160a01b031683528201929092526040019020600201544310611523575f60118281548110611462576114626133a0565b5f9182526020808320909101546001600160a01b0316808352601290915260408220805461ffff19169055600e8054919350909161149f836132e1565b91905055506114ad81611e0d565b60405133906001600160a01b038316907f02c36ff5da6738dbb9919fed63588f28df9d20151ed743eb0009c21317039297905f90a36001600160a01b03165f9081526013602052604081208181556001810182905560028101829055600381018290556004810182905560058101829055600601555b508061152e816132e1565b9150506113f7565b50565b8342111561155d57604051632341d78760e11b815260048101859052602401610854565b604080517fe48329057bfd03d55e49b547132e39cffd9c1820ad7b9d4c5307691425d15adf60208201526001600160a01b0388169181019190915260608101869052608081018590525f906115d6906115ce9060a00160405160208183030381529060405280519060200120612268565b858585612294565b90506115e281876122c0565b6115ec81886120d7565b50505050505050565b834211156116195760405163313c898160e11b815260048101859052602401610854565b5f7f6e71edae12b1b97f4d1f60370fef10105fa2faae0126114a169c64845d6126c98888886116648c6001600160a01b03165f90815260086020526040902080546001810190915590565b6040805160208101969096526001600160a01b0394851690860152929091166060840152608083015260a082015260c0810186905260e0016040516020818303038152906040528051906020012090505f6116be82612268565b90505f6116cd82878787612294565b9050896001600160a01b0316816001600160a01b031614611714576040516325c0072360e11b81526001600160a01b0380831660048301528b166024820152604401610854565b61171f8a8a8a611ae7565b50505050505050505050565b5f61079382611ef2565b604080518082019091525f80825260208201526117528383612312565b9392505050565b611761611af9565b6001600160a01b03811661178a57604051631e4fbdf760e01b81525f6004820152602401610854565b61153681612169565b335f9081526012602052604090205461ffff166001146117c55760405162461bcd60e51b8152600401610854906132f6565b335f9081526013602052604090206002015443106117f55760405162461bcd60e51b815260040161085490613323565b335f9081526012602052604090205461ffff166001146118665760405162461bcd60e51b815260206004820152602660248201527f4d73672e73656e646572206973206e6f7420616e20617574686f72697a65642060448201526534b9b9bab2b960d11b6064820152608401610854565b6001600160a01b0381165f9081526012602052604090205461ffff16156118cf5760405162461bcd60e51b815260206004820152601d60248201527f4164647265737320697320616c726561647920617574686f72697a65640000006044820152606401610854565b335f90815260136020526040902060020154431061192f5760405162461bcd60e51b815260206004820152601760248201527f497373756572207465726d2068617320657870697265640000000000000000006044820152606401610854565b6001600160a01b0381166119995760405162461bcd60e51b815260206004820152602b60248201527f43616e6e6f74207472616e7366657220617574686f72697a6174696f6e20746f60448201526a206164647265737328302960a81b6064820152608401610854565b306001600160a01b03821603611a0b5760405162461bcd60e51b815260206004820152603160248201527f43616e6e6f74207472616e7366657220617574686f72697a6174696f6e20746f60448201527020636f6e7472616374206164647265737360781b6064820152608401610854565b6040805160e081018252335f818152601360208181528583208054865260018101805483880152600282018054888a015260038301805460608a015260048401805460808b015260058501805460a08c015260068601805460c08d0152998952601287529a8820805461ffff1916905595909452918590558490558390558290558190559283905591909155611aa18282612346565b80516040519081526001600160a01b0383169033907fc4ae840bfec93e8c78b22242773f764c63ea7131dcd4f5a3408193968615d8a69060200160405180910390a35050565b611af483838360016123ee565b505050565b6005546001600160a01b0316331461117d5760405163118cdaa760e01b8152336004820152602401610854565b6001600160a01b038381165f908152600160209081526040808320938616835292905220545f198114611b9b5781811015611b8d57604051637dc7a0d960e11b81526001600160a01b03841660048201526024810182905260448101839052606401610854565b611b9b84848484035f6123ee565b50505050565b6001600160a01b038316611bca57604051634b637e8f60e11b81525f6004820152602401610854565b6001600160a01b038216611bf35760405163ec442f0560e01b81525f6004820152602401610854565b611af48383836124c0565b5f306001600160a01b037f000000000000000000000000000000000000000000000000000000000000000016148015611c5657507f000000000000000000000000000000000000000000000000000000000000000046145b15611c8057507f000000000000000000000000000000000000000000000000000000000000000090565b61080e604080517f8b73c3c69bb8fe3d512ecc4cf759cc79239f7b179b0ffacaa9a75d522b39400f60208201527f0000000000000000000000000000000000000000000000000000000000000000918101919091527f000000000000000000000000000000000000000000000000000000000000000060608201524660808201523060a08201525f9060c00160405160208183030381529060405280519060200120905090565b5f65ffffffffffff821115611d59576040516306dfcc6560e41b81526030600482015260248101839052604401610854565b5090565b81545f9081816005811115611db9575f611d768461252f565b611d80908561334b565b5f8881526020902090915081015465ffffffffffff9081169087161015611da957809150611db7565b611db4816001613375565b92505b505b5f611dc687878585612687565b90508015611e0057611dea87611ddd60018461334b565b5f91825260209091200190565b54600160301b90046001600160d01b0316611e02565b5f5b979650505050505050565b6001600160a01b0381165f90815260136020526040812054601154909190611e379060019061334b565b9050808214611ebc575f60118281548110611e5457611e546133a0565b5f91825260209091200154601180546001600160a01b039092169250829185908110611e8257611e826133a0565b5f91825260208083209190910180546001600160a01b0319166001600160a01b039485161790559290911681526013909152604090208290555b6011805480611ecd57611ecd6133b4565b5f8281526020902081015f1990810180546001600160a01b0319169055019055505050565b6001600160a01b0381165f9081526013602052604081206003810154600482015460058301546006909301549192909184611f2c60025490565b9050805f03611f43575050600f5495945050505050565b5f8415611f6c5784611f5d670de0b6b3a76400008861335e565b611f6791906133dc565b611f6e565b5f5b90505f8415611f995784611f8a670de0b6b3a76400008661335e565b611f9491906133dc565b611f9b565b5f5b90505f611fb084670de0b6b3a764000061335e565b611fbb84606461335e565b611fc591906133dc565b90505f600f548210611fd857505f611fe9565b81600f54611fe6919061334b565b90505b5f868a11611fff57611ffc600182613375565b90505b83851161201457612011600182613375565b90505b6002831161202a57612027600182613375565b90505b5f6120358284613375565b9050600f54811115612055575050600f549b9a5050505050505050505050565b9c9b505050505050505050505050565b6001600160a01b03821661208e5760405163ec442f0560e01b81525f6004820152602401610854565b6111365f83836124c0565b6001600160a01b0382166120c257604051634b637e8f60e11b81525f6004820152602401610854565b611136825f836124c0565b5f61080e43611d27565b6001600160a01b038281165f8181526009602052604080822080548686166001600160a01b0319821681179092559151919094169392849290917f3134e8a2e6d97e929a7e54011ea5485d7d196dd5f0ba4d4ef95803e8e3fc257f9190a4611af48183612143866126e6565b612703565b6001600160a01b0381165f908152600a60205260408120546107939061286c565b600580546001600160a01b038381166001600160a01b0319831681179093556040519116919082907f8be0079c531659141344cd1fd0a4f28419497f9722a3daafe3b4186f6b6457e0905f90a35050565b6001600160a01b0381165f90815260086020526040812054610793565b606061080e7f0000000000000000000000000000000000000000000000000000000000000000600661289c565b606061080e7f0000000000000000000000000000000000000000000000000000000000000000600761289c565b80545f9080156122605761224a83611ddd60018461334b565b54600160301b90046001600160d01b0316611752565b5f9392505050565b5f610793612274611bfe565b8360405161190160f01b8152600281019290925260228201526042902090565b5f5f5f5f6122a488888888612945565b9250925092506122b48282612a0d565b50909695505050505050565b6001600160a01b0382165f908152600860205260409020805460018101909155818114611af4576040516301d4b62360e61b81526001600160a01b038416600482015260248101829052604401610854565b604080518082019091525f80825260208201526001600160a01b0383165f908152600a602052604090206117529083612ac5565b816011825f01518154811061235d5761235d6133a0565b5f91825260208083209190910180546001600160a01b0319166001600160a01b039485161790559390911681526013835260408082208351815583850151600182810191909155848301516002830155606085015160038301556080850151600483015560a0850151600583015560c090940151600690910155601290935291909120805461ffff19169091179055565b6001600160a01b0384166124175760405163e602df0560e01b81525f6004820152602401610854565b6001600160a01b03831661244057604051634a1406b160e11b81525f6004820152602401610854565b6001600160a01b038085165f9081526001602090815260408083209387168352929052208290558015611b9b57826001600160a01b0316846001600160a01b03167f8c5be1e5ebec7d5bd14f71427d1e84f3dd0314c0f7b2291e5b200ac8c7c3b925846040516124b291815260200190565b60405180910390a350505050565b306001600160a01b038316036125245760405162461bcd60e51b815260206004820152602360248201527f43616e6e6f74207472616e7366657220746f20636f6e7472616374206164647260448201526265737360e81b6064820152608401610854565b611af4838383612b32565b5f6001821161253c575090565b816001600160801b82106125555760809190911c9060401b5b6801000000000000000082106125705760409190911c9060201b5b64010000000082106125875760209190911c9060101b5b62010000821061259c5760109190911c9060081b5b61010082106125b05760089190911c9060041b5b601082106125c35760049190911c9060021b5b600482106125cf5760011b5b600302600190811c908185816125e7576125e76133c8565b048201901c905060018185816125ff576125ff6133c8565b048201901c90506001818581612617576126176133c8565b048201901c9050600181858161262f5761262f6133c8565b048201901c90506001818581612647576126476133c8565b048201901c9050600181858161265f5761265f6133c8565b048201901c905061267e818581612678576126786133c8565b04821190565b90039392505050565b5f5b818310156126de575f61269c8484612b98565b5f8781526020902090915065ffffffffffff86169082015465ffffffffffff1611156126ca578092506126d8565b6126d5816001613375565b93505b50612689565b509392505050565b6001600160a01b0381165f90815260208190526040812054610793565b816001600160a01b0316836001600160a01b03161415801561272457505f81115b15611af4576001600160a01b038316156127cb576001600160a01b0383165f908152600a60205260408120819061276690612bb261276186612bbd565b612bf0565b6001600160d01b031691506001600160d01b03169150846001600160a01b03167fdec2bacdd2f05b59de34da9b523dff8be42e5e38e818c82fdb0bae774387a72483836040516127c0929190918252602082015260400190565b60405180910390a250505b6001600160a01b03821615611af4576001600160a01b0382165f908152600a60205260408120819061280390612c2861276186612bbd565b6001600160d01b031691506001600160d01b03169150836001600160a01b03167fdec2bacdd2f05b59de34da9b523dff8be42e5e38e818c82fdb0bae774387a724838360405161285d929190918252602082015260400190565b60405180910390a25050505050565b5f63ffffffff821115611d59576040516306dfcc6560e41b81526020600482015260248101839052604401610854565b606060ff83146128b6576128af83612c33565b9050610793565b8180546128c290613295565b80601f01602080910402602001604051908101604052809291908181526020018280546128ee90613295565b80156129395780601f1061291057610100808354040283529160200191612939565b820191905f5260205f20905b81548152906001019060200180831161291c57829003601f168201915b50505050509050610793565b5f80807f7fffffffffffffffffffffffffffffff5d576e7357a4501ddfe92f46681b20a084111561297e57505f91506003905082612a03565b604080515f808252602082018084528a905260ff891692820192909252606081018790526080810186905260019060a0016020604051602081039080840390855afa1580156129cf573d5f5f3e3d5ffd5b5050604051601f1901519150506001600160a01b0381166129fa57505f925060019150829050612a03565b92505f91508190505b9450945094915050565b5f826003811115612a2057612a206133fb565b03612a29575050565b6001826003811115612a3d57612a3d6133fb565b03612a5b5760405163f645eedf60e01b815260040160405180910390fd5b6002826003811115612a6f57612a6f6133fb565b03612a905760405163fce698f760e01b815260048101829052602401610854565b6003826003811115612aa457612aa46133fb565b03611136576040516335e2f38360e21b815260048101829052602401610854565b604080518082019091525f8082526020820152825f018263ffffffff1681548110612af257612af26133a0565b5f9182526020918290206040805180820190915291015465ffffffffffff81168252600160301b90046001600160d01b0316918101919091529392505050565b612b3d838383612c70565b6001600160a01b038316612b8d575f612b5560025490565b90506001600160d01b0380821115612b8a57604051630e58ae9360e11b81526004810183905260248101829052604401610854565b50505b611af4838383612d96565b5f612ba660028484186133dc565b61175290848416613375565b5f611752828461340f565b5f6001600160d01b03821115611d59576040516306dfcc6560e41b815260d0600482015260248101839052604401610854565b5f5f612c1b612bfd6112f7565b612c13612c0988612231565b868863ffffffff16565b879190612e0b565b915091505b935093915050565b5f611752828461342e565b60605f612c3f83612e18565b6040805160208082528183019092529192505f91906020820181803683375050509182525060208101929092525090565b6001600160a01b038316612c9a578060025f828254612c8f9190613375565b90915550612d0a9050565b6001600160a01b0383165f9081526020819052604090205481811015612cec5760405163391434e360e21b81526001600160a01b03851660048201526024810182905260448101839052606401610854565b6001600160a01b0384165f9081526020819052604090209082900390555b6001600160a01b038216612d2657600280548290039055612d44565b6001600160a01b0382165f9081526020819052604090208054820190555b816001600160a01b0316836001600160a01b03167fddf252ad1be2c89b69c2b068fc378daa952ba7f163c4a11628f55a4df523b3ef83604051612d8991815260200190565b60405180910390a3505050565b6001600160a01b038316612db857612db5600b612c2861276184612bbd565b50505b6001600160a01b038216612dda57612dd7600b612bb261276184612bbd565b50505b6001600160a01b038381165f90815260096020526040808220548584168352912054611af492918216911683612703565b5f80612c1b858585612e3f565b5f60ff8216601f81111561079357604051632cd44ac360e21b815260040160405180910390fd5b82545f9081908015612f35575f612e5b87611ddd60018561334b565b805490915065ffffffffffff80821691600160301b90046001600160d01b0316908816821115612e9e57604051632520601d60e01b815260040160405180910390fd5b8765ffffffffffff168265ffffffffffff1603612ed757825465ffffffffffff16600160301b6001600160d01b03891602178355612f27565b6040805180820190915265ffffffffffff808a1682526001600160d01b03808a1660208085019182528d54600181018f555f8f81529190912094519151909216600160301b029216919091179101555b9450859350612c2092505050565b50506040805180820190915265ffffffffffff80851682526001600160d01b0380851660208085019182528854600181018a555f8a815291822095519251909316600160301b029190931617920191909155905081612c20565b5f81518084528060208401602086015e5f602082860101526020601f19601f83011685010191505092915050565b602081525f6117526020830184612f8f565b80356001600160a01b0381168114612fe5575f5ffd5b919050565b5f5f60408385031215612ffb575f5ffd5b61300483612fcf565b946020939093013593505050565b5f60208284031215613022575f5ffd5b5035919050565b5f5f5f6060848603121561303b575f5ffd5b61304484612fcf565b925061305260208501612fcf565b929592945050506040919091013590565b5f60208284031215613073575f5ffd5b61175282612fcf565b60ff60f81b8816815260e060208201525f61309a60e0830189612f8f565b82810360408401526130ac8189612f8f565b606084018890526001600160a01b038716608085015260a0840186905283810360c0850152845180825260208087019350909101905f5b818110156131015783518352602093840193909201916001016130e3565b50909b9a5050505050505050505050565b602080825282518282018190525f918401906040840190835b818110156131525783516001600160a01b031683526020938401939092019160010161312b565b509095945050505050565b803560ff81168114612fe5575f5ffd5b5f5f5f5f5f5f60c08789031215613182575f5ffd5b61318b87612fcf565b955060208701359450604087013593506131a76060880161315d565b9598949750929560808101359460a0909101359350915050565b5f5f5f5f5f5f5f60e0888a0312156131d7575f5ffd5b6131e088612fcf565b96506131ee60208901612fcf565b9550604088013594506060880135935061320a6080890161315d565b9699959850939692959460a0840135945060c09093013592915050565b5f5f60408385031215613238575f5ffd5b61324183612fcf565b915061324f60208401612fcf565b90509250929050565b5f5f60408385031215613269575f5ffd5b61327283612fcf565b9150602083013563ffffffff8116811461328a575f5ffd5b809150509250929050565b600181811c908216806132a957607f821691505b6020821081036132c757634e487b7160e01b5f52602260045260245ffd5b50919050565b634e487b7160e01b5f52601160045260245ffd5b5f816132ef576132ef6132cd565b505f190190565b6020808252601390820152722ab730baba3437b934bd32b21024b9b9bab2b960691b604082015260600190565b6020808252600e908201526d22bc3834b932b21024b9b9bab2b960911b604082015260600190565b81810381811115610793576107936132cd565b8082028115828204841417610793576107936132cd565b80820180821115610793576107936132cd565b5f60018201613399576133996132cd565b5060010190565b634e487b7160e01b5f52603260045260245ffd5b634e487b7160e01b5f52603160045260245ffd5b634e487b7160e01b5f52601260045260245ffd5b5f826133f657634e487b7160e01b5f52601260045260245ffd5b500490565b634e487b7160e01b5f52602160045260245ffd5b6001600160d01b038281168282160390811115610793576107936132cd565b6001600160d01b038181168382160190811115610793576107936132cd56fea2646970667358221220ae31cbff13a0b9f3eb6b84d6e5a00c56a07cf3323a8b3143266805e3e92048b164736f6c634300081c0033","linkReferences":{}},"methodIdentifiers":{"CLOCK_MODE()":"4bf5d7e9","DOMAIN_SEPARATOR()":"3644e515","allowance(address,address)":"dd62ed3e","approve(address,uint256)":"095ea7b3","authorizeIssuer(address)":"436693d5","balanceOf(address)":"70a08231","baseMintFactor()":"9d87b1ac","burn(uint256)":"42966c68","burnFrom(address,uint256)":"79cc6790","checkpoints(address,uint32)":"f1127ed8","clock()":"91ddadf4","deauthorizeAllExpiredIssuers()":"afc3c757","deauthorizeIssuer(address)":"3a71daf4","decimals()":"313ce567","delegate(address)":"5c19a95c","delegateBySig(address,uint256,uint256,uint8,bytes32,bytes32)":"c3cda520","delegates(address)":"587cde1e","eip712Domain()":"84b0196e","getIssuerMintFactor(address)":"da6130f5","getIssuers()":"a594da95","getPastTotalSupply(uint256)":"8e539e8c","getPastVotes(address,uint256)":"3a46b1a8","getVotes(address)":"9ab24eb0","isIssuer(address)":"877b9a67","issuerData(address)":"e2a4f741","issuerInterval()":"9819385e","issuers(uint256)":"61ec30c4","maxIssuers()":"9288bfa8","minSupply()":"8fe6cae3","mint(address,uint256)":"40c10f19","name()":"06fdde03","nonces(address)":"7ecebe00","numCheckpoints(address)":"6fcfff45","owner()":"8da5cb5b","permit(address,address,uint256,uint256,uint8,bytes32,bytes32)":"d505accf","renounceOwnership()":"715018a6","setBaseMintFactor(uint256)":"3fdd18b7","setIssuerInterval(uint256)":"a1a4ab53","setMinSupply(uint256)":"1ac2874b","symbol()":"95d89b41","totalIssuers()":"0927cd0d","totalSupply()":"18160ddd","transfer(address,uint256)":"a9059cbb","transferFrom(address,address,uint256)":"23b872dd","transferIssuerAuthorization(address)":"f63e372d","transferOwnership(address)":"f2fde38b"},"id":51}