{"abi":[{"type":"constructor","inputs":[{"name":"initialOwner","type":"address","internalType":"address"}],"stateMutability":"nonpayable"},{"type":"function","name":"CLOCK_MODE","inputs":[],"outputs":[{"name":"","type":"string","internalType":"string"}],"stateMutability":"view"},{"type":"function","name":"DOMAIN_SEPARATOR","inputs":[],"outputs":[{"name":"","type":"bytes32","internalType":"bytes32"}],"stateMutability":"view"},{"type":"function","name":"allowance","inputs":[{"name":"owner","type":"address","internalType":"address"},{"name":"spender","type":"address","internalType":"address"}],"outputs":[{"name":"","type":"uint256","internalType":"uint256"}],"stateMutability":"view"},{"type":"function","name":"approve","inputs":[{"name":"spender","type":"address","internalType":"address"},{"name":"value","type":"uint256","internalType":"uint256"}],"outputs":[{"name":"","type":"bool","internalType":"bool"}],"stateMutability":"nonpayable"},{"type":"function","name":"authorizeIssuer","inputs":[{"name":"newIssuer","type":"address","internalType":"address"}],"outputs":[],"stateMutability":"nonpayable"},{"type":"function","name":"balanceOf","inputs":[{"name":"account","type":"address","internalType":"address"}],"outputs":[{"name":"","type":"uint256","internalType":"uint256"}],"stateMutability":"view"},{"type":"function","name":"baseMintFactor","inputs":[],"outputs":[{"name":"","type":"uint256","internalType":"uint256"}],"stateMutability":"view"},{"type":"function","name":"burn","inputs":[{"name":"amount","type":"uint256","internalType":"uint256"}],"outputs":[],"stateMutability":"nonpayable"},{"type":"function","name":"burnFrom","inputs":[{"name":"account","type":"address","internalType":"address"},{"name":"amount","type":"uint256","internalType":"uint256"}],"outputs":[],"stateMutability":"nonpayable"},{"type":"function","name":"checkpoints","inputs":[{"name":"account","type":"address","internalType":"address"},{"name":"pos","type":"uint32","internalType":"uint32"}],"outputs":[{"name":"","type":"tuple","internalType":"struct Checkpoints.Checkpoint208","components":[{"name":"_key","type":"uint48","internalType":"uint48"},{"name":"_value","type":"uint208","internalType":"uint208"}]}],"stateMutability":"view"},{"type":"function","name":"clock","inputs":[],"outputs":[{"name":"","type":"uint48","internalType":"uint48"}],"stateMutability":"view"},{"type":"function","name":"deauthorizeAllExpiredIssuers","inputs":[],"outputs":[],"stateMutability":"nonpayable"},{"type":"function","name":"deauthorizeIssuer","inputs":[{"name":"existingIssuer","type":"address","internalType":"address"}],"outputs":[],"stateMutability":"nonpayable"},{"type":"function","name":"decimals","inputs":[],"outputs":[{"name":"","type":"uint8","internalType":"uint8"}],"stateMutability":"view"},{"type":"function","name":"delegate","inputs":[{"name":"delegatee","type":"address","internalType":"address"}],"outputs":[],"stateMutability":"nonpayable"},{"type":"function","name":"delegateBySig","inputs":[{"name":"delegatee","type":"address","internalType":"address"},{"name":"nonce","type":"uint256","internalType":"uint256"},{"name":"expiry","type":"uint256","internalType":"uint256"},{"name":"v","type":"uint8","internalType":"uint8"},{"name":"r","type":"bytes32","internalType":"bytes32"},{"name":"s","type":"bytes32","internalType":"bytes32"}],"outputs":[],"stateMutability":"nonpayable"},{"type":"function","name":"delegates","inputs":[{"name":"account","type":"address","internalType":"address"}],"outputs":[{"name":"","type":"address","internalType":"address"}],"stateMutability":"view"},{"type":"function","name":"eip712Domain","inputs":[],"outputs":[{"name":"fields","type":"bytes1","internalType":"bytes1"},{"name":"name","type":"string","internalType":"string"},{"name":"version","type":"string","internalType":"string"},{"name":"chainId","type":"uint256","internalType":"uint256"},{"name":"verifyingContract","type":"address","internalType":"address"},{"name":"salt","type":"bytes32","internalType":"bytes32"},{"name":"extensions","type":"uint256[]","internalType":"uint256[]"}],"stateMutability":"view"},{"type":"function","name":"getIssuerMintFactor","inputs":[{"name":"_issuerAddress","type":"address","internalType":"address"}],"outputs":[{"name":"","type":"uint256","internalType":"uint256"}],"stateMutability":"view"},{"type":"function","name":"getIssuers","inputs":[],"outputs":[{"name":"","type":"address[]","internalType":"address[]"}],"stateMutability":"view"},{"type":"function","name":"getPastTotalSupply","inputs":[{"name":"timepoint","type":"uint256","internalType":"uint256"}],"outputs":[{"name":"","type":"uint256","internalType":"uint256"}],"stateMutability":"view"},{"type":"function","name":"getPastVotes","inputs":[{"name":"account","type":"address","internalType":"address"},{"name":"timepoint","type":"uint256","internalType":"uint256"}],"outputs":[{"name":"","type":"uint256","internalType":"uint256"}],"stateMutability":"view"},{"type":"function","name":"getVotes","inputs":[{"name":"account","type":"address","internalType":"address"}],"outputs":[{"name":"","type":"uint256","internalType":"uint256"}],"stateMutability":"view"},{"type":"function","name":"isIssuer","inputs":[{"name":"","type":"address","internalType":"address"}],"outputs":[{"name":"","type":"uint16","internalType":"uint16"}],"stateMutability":"view"},{"type":"function","name":"issuerData","inputs":[{"name":"","type":"address","internalType":"address"}],"outputs":[{"name":"index","type":"uint256","internalType":"uint256"},{"name":"startingBlock","type":"uint256","internalType":"uint256"},{"name":"expirationBlock","type":"uint256","internalType":"uint256"},{"name":"totalMinted","type":"uint256","internalType":"uint256"},{"name":"mintCount","type":"uint256","internalType":"uint256"},{"name":"burnCount","type":"uint256","internalType":"uint256"},{"name":"totalBurned","type":"uint256","internalType":"uint256"}],"stateMutability":"view"},{"type":"function","name":"issuerInterval","inputs":[],"outputs":[{"name":"","type":"uint256","internalType":"uint256"}],"stateMutability":"view"},{"type":"function","name":"issuers","inputs":[{"name":"","type":"uint256","internalType":"uint256"}],"outputs":[{"name":"","type":"address","internalType":"address"}],"stateMutability":"view"},{"type":"function","name":"maxIssuers","inputs":[],"outputs":[{"name":"","type":"uint256","internalType":"uint256"}],"stateMutability":"view"},{"type":"function","name":"minSupply","inputs":[],"outputs":[{"name":"","type":"uint256","internalType":"uint256"}],"stateMutability":"view"},{"type":"function","name":"mint","inputs":[{"name":"to","type":"address","internalType":"address"},{"name":"userRequestedAmount","type":"uint256","internalType":"uint256"}],"outputs":[],"stateMutability":"nonpayable"},{"type":"function","name":"name","inputs":[],"outputs":[{"name":"","type":"string","internalType":"string"}],"stateMutability":"view"},{"type":"function","name":"nonces","inputs":[{"name":"owner","type":"address","internalType":"address"}],"outputs":[{"name":"","type":"uint256","internalType":"uint256"}],"stateMutability":"view"},{"type":"function","name":"numCheckpoints","inputs":[{"name":"account","type":"address","internalType":"address"}],"outputs":[{"name":"","type":"uint32","internalType":"uint32"}],"stateMutability":"view"},{"type":"function","name":"owner","inputs":[],"outputs":[{"name":"","type":"address","internalType":"address"}],"stateMutability":"view"},{"type":"function","name":"permit","inputs":[{"name":"owner","type":"address","internalType":"address"},{"name":"spender","type":"address","internalType":"address"},{"name":"value","type":"uint256","internalType":"uint256"},{"name":"deadline","type":"uint256","internalType":"uint256"},{"name":"v","type":"uint8","internalType":"uint8"},{"name":"r","type":"bytes32","internalType":"bytes32"},{"name":"s","type":"bytes32","internalType":"bytes32"}],"outputs":[],"stateMutability":"nonpayable"},{"type":"function","name":"renounceOwnership","inputs":[],"outputs":[],"stateMutability":"nonpayable"},{"type":"function","name":"setBaseMintFactor","inputs":[{"name":"newMintFactor","type":"uint256","internalType":"uint256"}],"outputs":[],"stateMutability":"nonpayable"},{"type":"function","name":"setIssuerInterval","inputs":[{"name":"newInterval","type":"uint256","internalType":"uint256"}],"outputs":[],"stateMutability":"nonpayable"},{"type":"function","name":"setMinSupply","inputs":[{"name":"newMinSupply","type":"uint256","internalType":"uint256"}],"outputs":[],"stateMutability":"nonpayable"},{"type":"function","name":"symbol","inputs":[],"outputs":[{"name":"","type":"string","internalType":"string"}],"stateMutability":"view"},{"type":"function","name":"totalIssuers","inputs":[],"outputs":[{"name":"","type":"uint256","internalType":"uint256"}],"stateMutability":"view"},{"type":"function","name":"totalSupply","inputs":[],"outputs":[{"name":"","type":"uint256","internalType":"uint256"}],"stateMutability":"view"},{"type":"function","name":"transfer","inputs":[{"name":"to","type":"address","internalType":"address"},{"name":"value","type":"uint256","internalType":"uint256"}],"outputs":[{"name":"","type":"bool","internalType":"bool"}],"stateMutability":"nonpayable"},{"type":"function","name":"transferFrom","inputs":[{"name":"from","type":"address","internalType":"address"},{"name":"to","type":"address","internalType":"address"},{"name":"value","type":"uint256","internalType":"uint256"}],"outputs":[{"name":"","type":"bool","internalType":"bool"}],"stateMutability":"nonpayable"},{"type":"function","name":"transferOwnership","inputs":[{"name":"newOwner","type":"address","internalType":"address"}],"outputs":[],"stateMutability":"nonpayable"},{"type":"event","name":"Approval","inputs":[{"name":"owner","type":"address","indexed":true,"internalType":"address"},{"name":"spender","type":"address","indexed":true,"internalType":"address"},{"name":"value","type":"uint256","indexed":false,"internalType":"uint256"}],"anonymous":false},{"type":"event","name":"BaseMintFactorUpdated","inputs":[{"name":"oldMintFactor","type":"uint256","indexed":false,"internalType":"uint256"},{"name":"newMintFactor","type":"uint256","indexed":false,"internalType":"uint256"}],"anonymous":false},{"type":"event","name":"DelegateChanged","inputs":[{"name":"delegator","type":"address","indexed":true,"internalType":"address"},{"name":"fromDelegate","type":"address","indexed":true,"internalType":"address"},{"name":"toDelegate","type":"address","indexed":true,"internalType":"address"}],"anonymous":false},{"type":"event","name":"DelegateVotesChanged","inputs":[{"name":"delegate","type":"address","indexed":true,"internalType":"address"},{"name":"previousVotes","type":"uint256","indexed":false,"internalType":"uint256"},{"name":"newVotes","type":"uint256","indexed":false,"internalType":"uint256"}],"anonymous":false},{"type":"event","name":"EIP712DomainChanged","inputs":[],"anonymous":false},{"type":"event","name":"IssuerActivity","inputs":[{"name":"issuer","type":"address","indexed":true,"internalType":"address"},{"name":"minted","type":"uint256","indexed":false,"internalType":"uint256"},{"name":"burned","type":"uint256","indexed":false,"internalType":"uint256"},{"name":"totalMintedSoFar","type":"uint256","indexed":false,"internalType":"uint256"},{"name":"totalBurnedSoFar","type":"uint256","indexed":false,"internalType":"uint256"}],"anonymous":false},{"type":"event","name":"IssuerAuthorized","inputs":[{"name":"issuer","type":"address","indexed":true,"internalType":"address"},{"name":"expirationBlock","type":"uint256","indexed":false,"internalType":"uint256"}],"anonymous":false},{"type":"event","name":"IssuerDeauthorized","inputs":[{"name":"issuer","type":"address","indexed":true,"internalType":"address"},{"name":"deauthorizer","type":"address","indexed":true,"internalType":"address"}],"anonymous":false},{"type":"event","name":"IssuerIntervalUpdated","inputs":[{"name":"oldInterval","type":"uint256","indexed":false,"internalType":"uint256"},{"name":"newInterval","type":"uint256","indexed":false,"internalType":"uint256"}],"anonymous":false},{"type":"event","name":"MinSupplyUpdated","inputs":[{"name":"oldMinSupply","type":"uint256","indexed":false,"internalType":"uint256"},{"name":"newMinSupply","type":"uint256","indexed":false,"internalType":"uint256"}],"anonymous":false},{"type":"event","name":"OwnershipTransferred","inputs":[{"name":"previousOwner","type":"address","indexed":true,"internalType":"address"},{"name":"newOwner","type":"address","indexed":true,"internalType":"address"}],"anonymous":false},{"type":"event","name":"Transfer","inputs":[{"name":"from","type":"address","indexed":true,"internalType":"address"},{"name":"to","type":"address","indexed":true,"internalType":"address"},{"name":"value","type":"uint256","indexed":false,"internalType":"uint256"}],"anonymous":false},{"type":"error","name":"CheckpointUnorderedInsertion","inputs":[]},{"type":"error","name":"ECDSAInvalidSignature","inputs":[]},{"type":"error","name":"ECDSAInvalidSignatureLength","inputs":[{"name":"length","type":"uint256","internalType":"uint256"}]},{"type":"error","name":"ECDSAInvalidSignatureS","inputs":[{"name":"s","type":"bytes32","internalType":"bytes32"}]},{"type":"error","name":"ERC20ExceededSafeSupply","inputs":[{"name":"increasedSupply","type":"uint256","internalType":"uint256"},{"name":"cap","type":"uint256","internalType":"uint256"}]},{"type":"error","name":"ERC20InsufficientAllowance","inputs":[{"name":"spender","type":"address","internalType":"address"},{"name":"allowance","type":"uint256","internalType":"uint256"},{"name":"needed","type":"uint256","internalType":"uint256"}]},{"type":"error","name":"ERC20InsufficientBalance","inputs":[{"name":"sender","type":"address","internalType":"address"},{"name":"balance","type":"uint256","internalType":"uint256"},{"name":"needed","type":"uint256","internalType":"uint256"}]},{"type":"error","name":"ERC20InvalidApprover","inputs":[{"name":"approver","type":"address","internalType":"address"}]},{"type":"error","name":"ERC20InvalidReceiver","inputs":[{"name":"receiver","type":"address","internalType":"address"}]},{"type":"error","name":"ERC20InvalidSender","inputs":[{"name":"sender","type":"address","internalType":"address"}]},{"type":"error","name":"ERC20InvalidSpender","inputs":[{"name":"spender","type":"address","internalType":"address"}]},{"type":"error","name":"ERC2612ExpiredSignature","inputs":[{"name":"deadline","type":"uint256","internalType":"uint256"}]},{"type":"error","name":"ERC2612InvalidSigner","inputs":[{"name":"signer","type":"address","internalType":"address"},{"name":"owner","type":"address","internalType":"address"}]},{"type":"error","name":"ERC5805FutureLookup","inputs":[{"name":"timepoint","type":"uint256","internalType":"uint256"},{"name":"clock","type":"uint48","internalType":"uint48"}]},{"type":"error","name":"ERC6372InconsistentClock","inputs":[]},{"type":"error","name":"InvalidAccountNonce","inputs":[{"name":"account","type":"address","internalType":"address"},{"name":"currentNonce","type":"uint256","internalType":"uint256"}]},{"type":"error","name":"InvalidShortString","inputs":[]},{"type":"error","name":"OwnableInvalidOwner","inputs":[{"name":"owner","type":"address","internalType":"address"}]},{"type":"error","name":"OwnableUnauthorizedAccount","inputs":[{"name":"account","type":"address","internalType":"address"}]},{"type":"error","name":"SafeCastOverflowedUintDowncast","inputs":[{"name":"bits","type":"uint8","internalType":"uint8"},{"name":"value","type":"uint256","internalType":"uint256"}]},{"type":"error","name":"StringTooLong","inputs":[{"name":"str","type":"string","internalType":"string"}]},{"type":"error","name":"VotesExpiredSignature","inputs":[{"name":"expiry","type":"uint256","internalType":"uint256"}]}],"bytecode":{"object":"0x6101606040526103e8600c55622819a0600d556005600f55620f4240601055348015610029575f5ffd5b506040516134b23803806134b2833981016040819052610048916102a7565b60405180604001604052806013815260200172283ab13634b1902237b6b0b4b7102a37b5b2b760691b81525080604051806040016040528060018152602001603160f81b8152508360405180604001604052806013815260200172283ab13634b1902237b6b0b4b7102a37b5b2b760691b8152506040518060400160405280600481526020016314111bd560e21b81525081600390816100e8919061036c565b5060046100f5828261036c565b5050506001600160a01b03811661012657604051631e4fbdf760e01b81525f60048201526024015b60405180910390fd5b61012f816101e7565b5061013b826006610238565b6101205261014a816007610238565b61014052815160208084019190912060e052815190820120610100524660a0526101d660e05161010051604080517f8b73c3c69bb8fe3d512ecc4cf759cc79239f7b179b0ffacaa9a75d522b39400f60208201529081019290925260608201524660808201523060a08201525f9060c00160405160208183030381529060405280519060200120905090565b60805250503060c0525061047e9050565b600580546001600160a01b038381166001600160a01b0319831681179093556040519116919082907f8be0079c531659141344cd1fd0a4f28419497f9722a3daafe3b4186f6b6457e0905f90a35050565b5f6020835110156102535761024c8361026a565b9050610264565b8161025e848261036c565b5060ff90505b92915050565b5f5f829050601f81511115610294578260405163305a27a960e01b815260040161011d9190610426565b805161029f8261045b565b179392505050565b5f602082840312156102b7575f5ffd5b81516001600160a01b03811681146102cd575f5ffd5b9392505050565b634e487b7160e01b5f52604160045260245ffd5b600181811c908216806102fc57607f821691505b60208210810361031a57634e487b7160e01b5f52602260045260245ffd5b50919050565b601f82111561036757805f5260205f20601f840160051c810160208510156103455750805b601f840160051c820191505b81811015610364575f8155600101610351565b50505b505050565b81516001600160401b03811115610385576103856102d4565b6103998161039384546102e8565b84610320565b6020601f8211600181146103cb575f83156103b45750848201515b5f19600385901b1c1916600184901b178455610364565b5f84815260208120601f198516915b828110156103fa57878501518255602094850194600190920191016103da565b508482101561041757868401515f19600387901b60f8161c191681555b50505050600190811b01905550565b602081525f82518060208401528060208501604085015e5f604082850101526040601f19601f83011684010191505092915050565b8051602080830151919081101561031a575f1960209190910360031b1b16919050565b60805160a05160c05160e051610100516101205161014051612fe36104cf5f395f611e7701525f611e4a01525f61194301525f61191b01525f61187601525f6118a001525f6118ca0152612fe35ff3fe608060405234801561000f575f5ffd5b5060043610610276575f3560e01c80637ecebe00116101565780639d87b1ac116100ca578063d505accf11610084578063d505accf146105a3578063da6130f5146105b6578063dd62ed3e146105c9578063e2a4f74114610601578063f1127ed814610680578063f2fde38b146106bf575f5ffd5b80639d87b1ac14610544578063a1a4ab531461054d578063a594da9514610560578063a9059cbb14610575578063afc3c75714610588578063c3cda52014610590575f5ffd5b80638fe6cae31161011b5780638fe6cae3146104ef57806391ddadf4146104f85780639288bfa81461051757806395d89b41146105205780639819385e146105285780639ab24eb014610531575f5ffd5b80637ecebe001461046757806384b0196e1461047a578063877b9a67146104955780638da5cb5b146104cb5780638e539e8c146104dc575f5ffd5b806340c10f19116101ed5780635c19a95c116101b25780635c19a95c146103d657806361ec30c4146103e95780636fcfff45146103fc57806370a0823114610424578063715018a61461044c57806379cc679014610454575f5ffd5b806340c10f191461035257806342966c6814610365578063436693d5146103785780634bf5d7e91461038b578063587cde1e14610393575f5ffd5b806323b872dd1161023e57806323b872dd146102ef578063313ce567146103025780633644e515146103115780633a46b1a8146103195780633a71daf41461032c5780633fdd18b71461033f575f5ffd5b806306fdde031461027a5780630927cd0d14610298578063095ea7b3146102af57806318160ddd146102d25780631ac2874b146102da575b5f5ffd5b6102826106d2565b60405161028f9190612b1d565b60405180910390f35b6102a1600e5481565b60405190815260200161028f565b6102c26102bd366004612b4a565b610762565b604051901515815260200161028f565b6002546102a1565b6102ed6102e8366004612b72565b61077b565b005b6102c26102fd366004612b89565b6107c4565b6040516012815260200161028f565b6102a16107e7565b6102a1610327366004612b4a565b6107f5565b6102ed61033a366004612bc3565b610879565b6102ed61034d366004612b72565b610a0d565b6102ed610360366004612b4a565b610a56565b6102ed610373366004612b72565b610d47565b6102ed610386366004612bc3565b610e5c565b610282611073565b6103be6103a1366004612bc3565b6001600160a01b039081165f908152600960205260409020541690565b6040516001600160a01b03909116815260200161028f565b6102ed6103e4366004612bc3565b6110eb565b6103be6103f7366004612b72565b6110fa565b61040f61040a366004612bc3565b611122565b60405163ffffffff909116815260200161028f565b6102a1610432366004612bc3565b6001600160a01b03165f9081526020819052604090205490565b6102ed61112c565b6102ed610462366004612b4a565b61113f565b6102a1610475366004612bc3565b611202565b61048261120c565b60405161028f9796959493929190612bdc565b6104b86104a3366004612bc3565b60126020525f908152604090205461ffff1681565b60405161ffff909116815260200161028f565b6005546001600160a01b03166103be565b6102a16104ea366004612b72565b61124e565b6102a160105481565b6105006112b7565b60405165ffffffffffff909116815260200161028f565b6102a1600c5481565b6102826112c0565b6102a1600d5481565b6102a161053f366004612bc3565b6112cf565b6102a1600f5481565b6102ed61055b366004612b72565b6112fe565b610568611347565b60405161028f9190612c72565b6102c2610583366004612b4a565b6113a6565b6102ed6113b3565b6102ed61059e366004612ccd565b6114f9565b6102ed6105b1366004612d21565b6115b5565b6102a16105c4366004612bc3565b6116eb565b6102a16105d7366004612d87565b6001600160a01b039182165f90815260016020908152604080832093909416825291909152205490565b61064b61060f366004612bc3565b60136020525f90815260409020805460018201546002830154600384015460048501546005860154600690960154949593949293919290919087565b604080519788526020880196909652948601939093526060850191909152608084015260a083015260c082015260e00161028f565b61069361068e366004612db8565b6116f5565b60408051825165ffffffffffff1681526020928301516001600160d01b0316928101929092520161028f565b6102ed6106cd366004612bc3565b611719565b6060600380546106e190612df5565b80601f016020809104026020016040519081016040528092919081815260200182805461070d90612df5565b80156107585780601f1061072f57610100808354040283529160200191610758565b820191905f5260205f20905b81548152906001019060200180831161073b57829003601f168201915b5050505050905090565b5f3361076f818585611753565b60019150505b92915050565b610783611765565b60105460408051918252602082018390527f8e485513f38ca4c23b0c8170161c4fd5c16f934ea7c068b376f646b0194d1b8e910160405180910390a1601055565b5f336107d1858285611792565b6107dc85858561180d565b506001949350505050565b5f6107f061186a565b905090565b5f5f6107ff6112b7565b90508065ffffffffffff16831061083f57604051637669fc0f60e11b81526004810184905265ffffffffffff821660248201526044015b60405180910390fd5b61086861084b84611993565b6001600160a01b0386165f908152600a60205260409020906119c9565b6001600160d01b0316949350505050565b6001600160a01b0381165f9081526012602052604090205461ffff166001146108f05760405162461bcd60e51b815260206004820152602360248201527f41646472657373206973206e6f7420616e20617574686f72697a6564206973736044820152623ab2b960e91b6064820152608401610836565b6001600160a01b0381165f9081526013602052604090206002015443101561095a5760405162461bcd60e51b815260206004820152601b60248201527f497373756572207465726d20686173206e6f74206578706972656400000000006044820152606401610836565b6001600160a01b0381165f908152601260205260408120805461ffff19169055600e80549161098883612e41565b919050555061099681611a79565b60405133906001600160a01b038316907f02c36ff5da6738dbb9919fed63588f28df9d20151ed743eb0009c21317039297905f90a36001600160a01b03165f908152601360205260408120818155600181018290556002810182905560038101829055600481018290556005810182905560060155565b610a15611765565b600f5460408051918252602082018390527f4ca88e7da02b989e4025f130ac671b7900213f18e29e3af5f2d5e8e3c7f1d63f910160405180910390a1600f55565b335f9081526012602052604090205461ffff16600114610a885760405162461bcd60e51b815260040161083690612e56565b335f908152601360205260409020600201544310610ab85760405162461bcd60e51b815260040161083690612e83565b6001600160a01b038216610b0e5760405162461bcd60e51b815260206004820152601f60248201527f45524332303a206d696e7420746f20746865207a65726f2061646472657373006044820152606401610836565b306001600160a01b03831603610b795760405162461bcd60e51b815260206004820152602a60248201527f43616e6e6f74206d696e7420746f6b656e7320746f2074686520636f6e7472616044820152696374206164647265737360b01b6064820152608401610836565b5f610b8360025490565b90508015610be6575f8211610be65760405162461bcd60e51b8152602060048201526024808201527f4d696e74656420616d6f756e74206d75737420626520677265617465722074686044820152630616e20360e41b6064820152608401610836565b5f610bf033611b5e565b6010549091505f90831015610c105782601054610c0d9190612eab565b90505b5f610c1b8286612ebe565b9050610c278385612ed1565b610c32866064612ed1565b1115610c8c5760405162461bcd60e51b8152602060048201526024808201527f4d696e74656420616d6f756e74206578636565647320616c6c6f7761626c65206044820152631b5a5b9d60e21b6064820152608401610836565b610c968682611cd1565b335f9081526013602052604081206003018054839290610cb7908490612ebe565b9091555050335f908152601360205260408120600401805491610cd983612ee8565b9091555050335f81815260136020908152604080832060038101546006909101548251878152938401949094529082015260608101919091527f2c6b67bbb0115d824b2bf0140b6b9bf739dff82b63541c7ac1d7681c917a48229060800160405180910390a2505050505050565b335f9081526012602052604090205461ffff16600114610d795760405162461bcd60e51b815260040161083690612e56565b335f908152601360205260409020600201544310610da95760405162461bcd60e51b815260040161083690612e83565b610db33382611d05565b335f9081526013602052604081206006018054839290610dd4908490612ebe565b9091555050335f908152601360205260408120600501805491610df683612ee8565b9091555050335f818152601360209081526040808320600381015460069091015482519485529284018690529083015260608201527f2c6b67bbb0115d824b2bf0140b6b9bf739dff82b63541c7ac1d7681c917a4822906080015b60405180910390a250565b6001600160a01b0381165f9081526012602052604090205461ffff1615610ec55760405162461bcd60e51b815260206004820152601d60248201527f4164647265737320697320616c726561647920617574686f72697a65640000006044820152606401610836565b600c54600e5410610f225760405162461bcd60e51b815260206004820152602160248201527f4d6178696d756d206e756d626572206f662049737375657273207265616368656044820152601960fa1b6064820152608401610836565b600e8054905f610f3183612ee8565b909155505060118054600180820183557f31ecc21a745e3968a04e9570e4425bc18fa8019c68028196b546d1669c200c6890910180546001600160a01b0319166001600160a01b0385169081179091555f9081526012602052604090819020805461ffff191683179055805160e0810190915291548291610fb191612eab565b8152602001438152602001600d5443610fca9190612ebe565b81525f60208083018290526040808401839052606080850184905260809485018490526001600160a01b038716808552601384529382902086518155928601516001840155858201516002840181905590860151600384015593850151600483015560a0850151600583015560c09094015160069091015591517fa0d402b55b358dfac53c7d1b3ef26f4e07d706ad2cab4e9540094020ee9a1d9991610e519190815260200190565b606061107d611d39565b65ffffffffffff1661108d6112b7565b65ffffffffffff16146110b3576040516301bfc1c560e61b815260040160405180910390fd5b5060408051808201909152601d81527f6d6f64653d626c6f636b6e756d6265722666726f6d3d64656661756c74000000602082015290565b336110f68183611d43565b5050565b60118181548110611109575f80fd5b5f918252602090912001546001600160a01b0316905081565b5f61077582611db4565b611134611765565b61113d5f611dd5565b565b335f9081526012602052604090205461ffff166001146111715760405162461bcd60e51b815260040161083690612e56565b335f9081526013602052604090206002015443106111a15760405162461bcd60e51b815260040161083690612e83565b6111ac823383611792565b6111b68282611d05565b335f90815260136020526040812060060180548392906111d7908490612ebe565b9091555050335f9081526013602052604081206005018054916111f983612ee8565b91905055505050565b5f61077582611e26565b5f6060805f5f5f606061121d611e43565b611225611e70565b604080515f80825260208201909252600f60f81b9b939a50919850469750309650945092509050565b5f5f6112586112b7565b90508065ffffffffffff16831061129357604051637669fc0f60e11b81526004810184905265ffffffffffff82166024820152604401610836565b6112a761129f84611993565b600b906119c9565b6001600160d01b03169392505050565b5f6107f0611d39565b6060600480546106e190612df5565b6001600160a01b0381165f908152600a602052604081206112ef90611e9d565b6001600160d01b031692915050565b611306611765565b600d5460408051918252602082018390527fe797767d82578d43c7848e99944ac15ab481c4c7866343f24b5f4a8bad29f897910160405180910390a1600d55565b6060601180548060200260200160405190810160405280929190818152602001828054801561075857602002820191905f5260205f20905b81546001600160a01b0316815260019091019060200180831161137f575050505050905090565b5f3361076f81858561180d565b6011545b80156114f6575f6113c9600183612eab565b905060135f601183815481106113e1576113e1612f00565b5f9182526020808320909101546001600160a01b0316835282019290925260400190206002015443106114e3575f6011828154811061142257611422612f00565b5f9182526020808320909101546001600160a01b0316808352601290915260408220805461ffff19169055600e8054919350909161145f83612e41565b919050555061146d81611a79565b60405133906001600160a01b038316907f02c36ff5da6738dbb9919fed63588f28df9d20151ed743eb0009c21317039297905f90a36001600160a01b03165f9081526013602052604081208181556001810182905560028101829055600381018290556004810182905560058101829055600601555b50806114ee81612e41565b9150506113b7565b50565b8342111561151d57604051632341d78760e11b815260048101859052602401610836565b604080517fe48329057bfd03d55e49b547132e39cffd9c1820ad7b9d4c5307691425d15adf60208201526001600160a01b0388169181019190915260608101869052608081018590525f906115969061158e9060a00160405160208183030381529060405280519060200120611ed4565b858585611f00565b90506115a28187611f2c565b6115ac8188611d43565b50505050505050565b834211156115d95760405163313c898160e11b815260048101859052602401610836565b5f7f6e71edae12b1b97f4d1f60370fef10105fa2faae0126114a169c64845d6126c98888886116248c6001600160a01b03165f90815260086020526040902080546001810190915590565b6040805160208101969096526001600160a01b0394851690860152929091166060840152608083015260a082015260c0810186905260e0016040516020818303038152906040528051906020012090505f61167e82611ed4565b90505f61168d82878787611f00565b9050896001600160a01b0316816001600160a01b0316146116d4576040516325c0072360e11b81526001600160a01b0380831660048301528b166024820152604401610836565b6116df8a8a8a611753565b50505050505050505050565b5f61077582611b5e565b604080518082019091525f80825260208201526117128383611f7e565b9392505050565b611721611765565b6001600160a01b03811661174a57604051631e4fbdf760e01b81525f6004820152602401610836565b6114f681611dd5565b6117608383836001611fb2565b505050565b6005546001600160a01b0316331461113d5760405163118cdaa760e01b8152336004820152602401610836565b6001600160a01b038381165f908152600160209081526040808320938616835292905220545f19811461180757818110156117f957604051637dc7a0d960e11b81526001600160a01b03841660048201526024810182905260448101839052606401610836565b61180784848484035f611fb2565b50505050565b6001600160a01b03831661183657604051634b637e8f60e11b81525f6004820152602401610836565b6001600160a01b03821661185f5760405163ec442f0560e01b81525f6004820152602401610836565b611760838383612084565b5f306001600160a01b037f0000000000000000000000000000000000000000000000000000000000000000161480156118c257507f000000000000000000000000000000000000000000000000000000000000000046145b156118ec57507f000000000000000000000000000000000000000000000000000000000000000090565b6107f0604080517f8b73c3c69bb8fe3d512ecc4cf759cc79239f7b179b0ffacaa9a75d522b39400f60208201527f0000000000000000000000000000000000000000000000000000000000000000918101919091527f000000000000000000000000000000000000000000000000000000000000000060608201524660808201523060a08201525f9060c00160405160208183030381529060405280519060200120905090565b5f65ffffffffffff8211156119c5576040516306dfcc6560e41b81526030600482015260248101839052604401610836565b5090565b81545f9081816005811115611a25575f6119e28461208f565b6119ec9085612eab565b5f8881526020902090915081015465ffffffffffff9081169087161015611a1557809150611a23565b611a20816001612ebe565b92505b505b5f611a32878785856121e7565b90508015611a6c57611a5687611a49600184612eab565b5f91825260209091200190565b54600160301b90046001600160d01b0316611a6e565b5f5b979650505050505050565b6001600160a01b0381165f90815260136020526040812054601154909190611aa390600190612eab565b9050808214611b28575f60118281548110611ac057611ac0612f00565b5f91825260209091200154601180546001600160a01b039092169250829185908110611aee57611aee612f00565b5f91825260208083209190910180546001600160a01b0319166001600160a01b039485161790559290911681526013909152604090208290555b6011805480611b3957611b39612f14565b5f8281526020902081015f1990810180546001600160a01b0319169055019055505050565b6001600160a01b0381165f9081526013602052604081206003810154600482015460058301546006909301549192909184611b9860025490565b9050805f03611baf575050600f5495945050505050565b5f8415611bd85784611bc9670de0b6b3a764000088612ed1565b611bd39190612f3c565b611bda565b5f5b90505f8415611c055784611bf6670de0b6b3a764000086612ed1565b611c009190612f3c565b611c07565b5f5b90505f611c1c84670de0b6b3a7640000612ed1565b611c27846064612ed1565b611c319190612f3c565b90505f600f548210611c4457505f611c55565b81600f54611c529190612eab565b90505b5f868a11611c6b57611c68600182612ebe565b90505b838511611c8057611c7d600182612ebe565b90505b60028311611c9657611c93600182612ebe565b90505b5f611ca18284612ebe565b9050600f54811115611cc1575050600f549b9a5050505050505050505050565b9c9b505050505050505050505050565b6001600160a01b038216611cfa5760405163ec442f0560e01b81525f6004820152602401610836565b6110f65f8383612084565b6001600160a01b038216611d2e57604051634b637e8f60e11b81525f6004820152602401610836565b6110f6825f83612084565b5f6107f043611993565b6001600160a01b038281165f8181526009602052604080822080548686166001600160a01b0319821681179092559151919094169392849290917f3134e8a2e6d97e929a7e54011ea5485d7d196dd5f0ba4d4ef95803e8e3fc257f9190a46117608183611daf86612246565b612263565b6001600160a01b0381165f908152600a6020526040812054610775906123cc565b600580546001600160a01b038381166001600160a01b0319831681179093556040519116919082907f8be0079c531659141344cd1fd0a4f28419497f9722a3daafe3b4186f6b6457e0905f90a35050565b6001600160a01b0381165f90815260086020526040812054610775565b60606107f07f000000000000000000000000000000000000000000000000000000000000000060066123fc565b60606107f07f000000000000000000000000000000000000000000000000000000000000000060076123fc565b80545f908015611ecc57611eb683611a49600184612eab565b54600160301b90046001600160d01b0316611712565b5f9392505050565b5f610775611ee061186a565b8360405161190160f01b8152600281019290925260228201526042902090565b5f5f5f5f611f10888888886124a5565b925092509250611f20828261256d565b50909695505050505050565b6001600160a01b0382165f908152600860205260409020805460018101909155818114611760576040516301d4b62360e61b81526001600160a01b038416600482015260248101829052604401610836565b604080518082019091525f80825260208201526001600160a01b0383165f908152600a602052604090206117129083612625565b6001600160a01b038416611fdb5760405163e602df0560e01b81525f6004820152602401610836565b6001600160a01b03831661200457604051634a1406b160e11b81525f6004820152602401610836565b6001600160a01b038085165f908152600160209081526040808320938716835292905220829055801561180757826001600160a01b0316846001600160a01b03167f8c5be1e5ebec7d5bd14f71427d1e84f3dd0314c0f7b2291e5b200ac8c7c3b9258460405161207691815260200190565b60405180910390a350505050565b611760838383612692565b5f6001821161209c575090565b816001600160801b82106120b55760809190911c9060401b5b6801000000000000000082106120d05760409190911c9060201b5b64010000000082106120e75760209190911c9060101b5b6201000082106120fc5760109190911c9060081b5b61010082106121105760089190911c9060041b5b601082106121235760049190911c9060021b5b6004821061212f5760011b5b600302600190811c9081858161214757612147612f28565b048201901c9050600181858161215f5761215f612f28565b048201901c9050600181858161217757612177612f28565b048201901c9050600181858161218f5761218f612f28565b048201901c905060018185816121a7576121a7612f28565b048201901c905060018185816121bf576121bf612f28565b048201901c90506121de8185816121d8576121d8612f28565b04821190565b90039392505050565b5f5b8183101561223e575f6121fc84846126f8565b5f8781526020902090915065ffffffffffff86169082015465ffffffffffff16111561222a57809250612238565b612235816001612ebe565b93505b506121e9565b509392505050565b6001600160a01b0381165f90815260208190526040812054610775565b816001600160a01b0316836001600160a01b03161415801561228457505f81115b15611760576001600160a01b0383161561232b576001600160a01b0383165f908152600a6020526040812081906122c6906127126122c18661271d565b612750565b6001600160d01b031691506001600160d01b03169150846001600160a01b03167fdec2bacdd2f05b59de34da9b523dff8be42e5e38e818c82fdb0bae774387a7248383604051612320929190918252602082015260400190565b60405180910390a250505b6001600160a01b03821615611760576001600160a01b0382165f908152600a602052604081208190612363906127886122c18661271d565b6001600160d01b031691506001600160d01b03169150836001600160a01b03167fdec2bacdd2f05b59de34da9b523dff8be42e5e38e818c82fdb0bae774387a72483836040516123bd929190918252602082015260400190565b60405180910390a25050505050565b5f63ffffffff8211156119c5576040516306dfcc6560e41b81526020600482015260248101839052604401610836565b606060ff83146124165761240f83612793565b9050610775565b81805461242290612df5565b80601f016020809104026020016040519081016040528092919081815260200182805461244e90612df5565b80156124995780601f1061247057610100808354040283529160200191612499565b820191905f5260205f20905b81548152906001019060200180831161247c57829003601f168201915b50505050509050610775565b5f80807f7fffffffffffffffffffffffffffffff5d576e7357a4501ddfe92f46681b20a08411156124de57505f91506003905082612563565b604080515f808252602082018084528a905260ff891692820192909252606081018790526080810186905260019060a0016020604051602081039080840390855afa15801561252f573d5f5f3e3d5ffd5b5050604051601f1901519150506001600160a01b03811661255a57505f925060019150829050612563565b92505f91508190505b9450945094915050565b5f82600381111561258057612580612f5b565b03612589575050565b600182600381111561259d5761259d612f5b565b036125bb5760405163f645eedf60e01b815260040160405180910390fd5b60028260038111156125cf576125cf612f5b565b036125f05760405163fce698f760e01b815260048101829052602401610836565b600382600381111561260457612604612f5b565b036110f6576040516335e2f38360e21b815260048101829052602401610836565b604080518082019091525f8082526020820152825f018263ffffffff168154811061265257612652612f00565b5f9182526020918290206040805180820190915291015465ffffffffffff81168252600160301b90046001600160d01b0316918101919091529392505050565b61269d8383836127d0565b6001600160a01b0383166126ed575f6126b560025490565b90506001600160d01b03808211156126ea57604051630e58ae9360e11b81526004810183905260248101829052604401610836565b50505b6117608383836128f6565b5f6127066002848418612f3c565b61171290848416612ebe565b5f6117128284612f6f565b5f6001600160d01b038211156119c5576040516306dfcc6560e41b815260d0600482015260248101839052604401610836565b5f5f61277b61275d6112b7565b61277361276988611e9d565b868863ffffffff16565b87919061296b565b915091505b935093915050565b5f6117128284612f8e565b60605f61279f83612978565b6040805160208082528183019092529192505f91906020820181803683375050509182525060208101929092525090565b6001600160a01b0383166127fa578060025f8282546127ef9190612ebe565b9091555061286a9050565b6001600160a01b0383165f908152602081905260409020548181101561284c5760405163391434e360e21b81526001600160a01b03851660048201526024810182905260448101839052606401610836565b6001600160a01b0384165f9081526020819052604090209082900390555b6001600160a01b038216612886576002805482900390556128a4565b6001600160a01b0382165f9081526020819052604090208054820190555b816001600160a01b0316836001600160a01b03167fddf252ad1be2c89b69c2b068fc378daa952ba7f163c4a11628f55a4df523b3ef836040516128e991815260200190565b60405180910390a3505050565b6001600160a01b03831661291857612915600b6127886122c18461271d565b50505b6001600160a01b03821661293a57612937600b6127126122c18461271d565b50505b6001600160a01b038381165f9081526009602052604080822054858416835291205461176092918216911683612263565b5f8061277b85858561299f565b5f60ff8216601f81111561077557604051632cd44ac360e21b815260040160405180910390fd5b82545f9081908015612a95575f6129bb87611a49600185612eab565b805490915065ffffffffffff80821691600160301b90046001600160d01b03169088168211156129fe57604051632520601d60e01b815260040160405180910390fd5b8765ffffffffffff168265ffffffffffff1603612a3757825465ffffffffffff16600160301b6001600160d01b03891602178355612a87565b6040805180820190915265ffffffffffff808a1682526001600160d01b03808a1660208085019182528d54600181018f555f8f81529190912094519151909216600160301b029216919091179101555b945085935061278092505050565b50506040805180820190915265ffffffffffff80851682526001600160d01b0380851660208085019182528854600181018a555f8a815291822095519251909316600160301b029190931617920191909155905081612780565b5f81518084528060208401602086015e5f602082860101526020601f19601f83011685010191505092915050565b602081525f6117126020830184612aef565b80356001600160a01b0381168114612b45575f5ffd5b919050565b5f5f60408385031215612b5b575f5ffd5b612b6483612b2f565b946020939093013593505050565b5f60208284031215612b82575f5ffd5b5035919050565b5f5f5f60608486031215612b9b575f5ffd5b612ba484612b2f565b9250612bb260208501612b2f565b929592945050506040919091013590565b5f60208284031215612bd3575f5ffd5b61171282612b2f565b60ff60f81b8816815260e060208201525f612bfa60e0830189612aef565b8281036040840152612c0c8189612aef565b606084018890526001600160a01b038716608085015260a0840186905283810360c0850152845180825260208087019350909101905f5b81811015612c61578351835260209384019390920191600101612c43565b50909b9a5050505050505050505050565b602080825282518282018190525f918401906040840190835b81811015612cb25783516001600160a01b0316835260209384019390920191600101612c8b565b509095945050505050565b803560ff81168114612b45575f5ffd5b5f5f5f5f5f5f60c08789031215612ce2575f5ffd5b612ceb87612b2f565b95506020870135945060408701359350612d0760608801612cbd565b9598949750929560808101359460a0909101359350915050565b5f5f5f5f5f5f5f60e0888a031215612d37575f5ffd5b612d4088612b2f565b9650612d4e60208901612b2f565b95506040880135945060608801359350612d6a60808901612cbd565b9699959850939692959460a0840135945060c09093013592915050565b5f5f60408385031215612d98575f5ffd5b612da183612b2f565b9150612daf60208401612b2f565b90509250929050565b5f5f60408385031215612dc9575f5ffd5b612dd283612b2f565b9150602083013563ffffffff81168114612dea575f5ffd5b809150509250929050565b600181811c90821680612e0957607f821691505b602082108103612e2757634e487b7160e01b5f52602260045260245ffd5b50919050565b634e487b7160e01b5f52601160045260245ffd5b5f81612e4f57612e4f612e2d565b505f190190565b6020808252601390820152722ab730baba3437b934bd32b21024b9b9bab2b960691b604082015260600190565b6020808252600e908201526d22bc3834b932b21024b9b9bab2b960911b604082015260600190565b8181038181111561077557610775612e2d565b8082018082111561077557610775612e2d565b808202811582820484141761077557610775612e2d565b5f60018201612ef957612ef9612e2d565b5060010190565b634e487b7160e01b5f52603260045260245ffd5b634e487b7160e01b5f52603160045260245ffd5b634e487b7160e01b5f52601260045260245ffd5b5f82612f5657634e487b7160e01b5f52601260045260245ffd5b500490565b634e487b7160e01b5f52602160045260245ffd5b6001600160d01b03828116828216039081111561077557610775612e2d565b6001600160d01b03818116838216019081111561077557610775612e2d56fea2646970667358221220d6d6947c19303e3b1f10480b29d2c9a898a7756d6e806766bdfc51b83f80828c64736f6c634300081c0033","linkReferences":{}},"methodIdentifiers":{"CLOCK_MODE()":"4bf5d7e9","DOMAIN_SEPARATOR()":"3644e515","allowance(address,address)":"dd62ed3e","approve(address,uint256)":"095ea7b3","authorizeIssuer(address)":"436693d5","balanceOf(address)":"70a08231","baseMintFactor()":"9d87b1ac","burn(uint256)":"42966c68","burnFrom(address,uint256)":"79cc6790","checkpoints(address,uint32)":"f1127ed8","clock()":"91ddadf4","deauthorizeAllExpiredIssuers()":"afc3c757","deauthorizeIssuer(address)":"3a71daf4","decimals()":"313ce567","delegate(address)":"5c19a95c","delegateBySig(address,uint256,uint256,uint8,bytes32,bytes32)":"c3cda520","delegates(address)":"587cde1e","eip712Domain()":"84b0196e","getIssuerMintFactor(address)":"da6130f5","getIssuers()":"a594da95","getPastTotalSupply(uint256)":"8e539e8c","getPastVotes(address,uint256)":"3a46b1a8","getVotes(address)":"9ab24eb0","isIssuer(address)":"877b9a67","issuerData(address)":"e2a4f741","issuerInterval()":"9819385e","issuers(uint256)":"61ec30c4","maxIssuers()":"9288bfa8","minSupply()":"8fe6cae3","mint(address,uint256)":"40c10f19","name()":"06fdde03","nonces(address)":"7ecebe00","numCheckpoints(address)":"6fcfff45","owner()":"8da5cb5b","permit(address,address,uint256,uint256,uint8,bytes32,bytes32)":"d505accf","renounceOwnership()":"715018a6","setBaseMintFactor(uint256)":"3fdd18b7","setIssuerInterval(uint256)":"a1a4ab53","setMinSupply(uint256)":"1ac2874b","symbol()":"95d89b41","totalIssuers()":"0927cd0d","totalSupply()":"18160ddd","transfer(address,uint256)":"a9059cbb","transferFrom(address,address,uint256)":"23b872dd","transferOwnership(address)":"f2fde38b"},"id":1}